{
  "contractName": "FlightSuretyApp",
  "abi": [
    {
      "inputs": [
        {
          "internalType": "address",
          "name": "dataContract",
          "type": "address"
        }
      ],
      "stateMutability": "nonpayable",
      "type": "constructor"
    },
    {
      "anonymous": false,
      "inputs": [
        {
          "indexed": false,
          "internalType": "bytes32",
          "name": "flightKey",
          "type": "bytes32"
        },
        {
          "indexed": false,
          "internalType": "address",
          "name": "airline",
          "type": "address"
        }
      ],
      "name": "FlightRegistered",
      "type": "event"
    },
    {
      "anonymous": false,
      "inputs": [
        {
          "indexed": false,
          "internalType": "address",
          "name": "airline",
          "type": "address"
        },
        {
          "indexed": false,
          "internalType": "string",
          "name": "flight",
          "type": "string"
        },
        {
          "indexed": false,
          "internalType": "uint256",
          "name": "timestamp",
          "type": "uint256"
        },
        {
          "indexed": false,
          "internalType": "uint8",
          "name": "status",
          "type": "uint8"
        }
      ],
      "name": "FlightStatusInfo",
      "type": "event"
    },
    {
      "anonymous": false,
      "inputs": [
        {
          "indexed": false,
          "internalType": "address",
          "name": "airline",
          "type": "address"
        },
        {
          "indexed": false,
          "internalType": "string",
          "name": "flight",
          "type": "string"
        },
        {
          "indexed": false,
          "internalType": "uint256",
          "name": "timestamp",
          "type": "uint256"
        },
        {
          "indexed": false,
          "internalType": "uint8",
          "name": "status",
          "type": "uint8"
        }
      ],
      "name": "OracleReport",
      "type": "event"
    },
    {
      "anonymous": false,
      "inputs": [
        {
          "indexed": false,
          "internalType": "uint8",
          "name": "index",
          "type": "uint8"
        },
        {
          "indexed": false,
          "internalType": "address",
          "name": "airline",
          "type": "address"
        },
        {
          "indexed": false,
          "internalType": "string",
          "name": "flight",
          "type": "string"
        },
        {
          "indexed": false,
          "internalType": "uint256",
          "name": "timestamp",
          "type": "uint256"
        }
      ],
      "name": "OracleRequest",
      "type": "event"
    },
    {
      "inputs": [],
      "name": "REGISTRATION_FEE",
      "outputs": [
        {
          "internalType": "uint256",
          "name": "",
          "type": "uint256"
        }
      ],
      "stateMutability": "view",
      "type": "function",
      "constant": true
    },
    {
      "inputs": [],
      "name": "isOperational",
      "outputs": [
        {
          "internalType": "bool",
          "name": "",
          "type": "bool"
        }
      ],
      "stateMutability": "pure",
      "type": "function",
      "constant": true
    },
    {
      "inputs": [
        {
          "internalType": "address",
          "name": "airline",
          "type": "address"
        },
        {
          "internalType": "uint256",
          "name": "timestamp",
          "type": "uint256"
        },
        {
          "internalType": "string",
          "name": "flight",
          "type": "string"
        }
      ],
      "name": "isFlightRegistered",
      "outputs": [
        {
          "internalType": "bool",
          "name": "",
          "type": "bool"
        }
      ],
      "stateMutability": "view",
      "type": "function",
      "constant": true
    },
    {
      "inputs": [
        {
          "internalType": "address",
          "name": "airline",
          "type": "address"
        }
      ],
      "name": "isAirlineFunded",
      "outputs": [
        {
          "internalType": "bool",
          "name": "",
          "type": "bool"
        }
      ],
      "stateMutability": "view",
      "type": "function",
      "constant": true
    },
    {
      "inputs": [
        {
          "internalType": "address",
          "name": "newAirline",
          "type": "address"
        },
        {
          "internalType": "string",
          "name": "_name",
          "type": "string"
        }
      ],
      "name": "registerAirline",
      "outputs": [],
      "stateMutability": "nonpayable",
      "type": "function"
    },
    {
      "inputs": [
        {
          "internalType": "uint256",
          "name": "_timestamp",
          "type": "uint256"
        },
        {
          "internalType": "string",
          "name": "_flight",
          "type": "string"
        }
      ],
      "name": "registerFlight",
      "outputs": [],
      "stateMutability": "nonpayable",
      "type": "function"
    },
    {
      "inputs": [],
      "name": "fundAirline",
      "outputs": [],
      "stateMutability": "payable",
      "type": "function",
      "payable": true
    },
    {
      "inputs": [
        {
          "internalType": "string",
          "name": "_flight",
          "type": "string"
        },
        {
          "internalType": "string",
          "name": "passengerName",
          "type": "string"
        },
        {
          "internalType": "address",
          "name": "passengerAddress",
          "type": "address"
        },
        {
          "internalType": "uint256",
          "name": "_timestamp",
          "type": "uint256"
        },
        {
          "internalType": "address",
          "name": "airline",
          "type": "address"
        }
      ],
      "name": "buyFlightInsurance",
      "outputs": [],
      "stateMutability": "payable",
      "type": "function",
      "payable": true
    },
    {
      "inputs": [
        {
          "internalType": "address",
          "name": "airline",
          "type": "address"
        },
        {
          "internalType": "string",
          "name": "flight",
          "type": "string"
        },
        {
          "internalType": "uint256",
          "name": "timestamp",
          "type": "uint256"
        }
      ],
      "name": "getFlightStatus",
      "outputs": [
        {
          "internalType": "uint8",
          "name": "",
          "type": "uint8"
        }
      ],
      "stateMutability": "view",
      "type": "function",
      "constant": true
    },
    {
      "inputs": [
        {
          "internalType": "address",
          "name": "passengerAddress",
          "type": "address"
        }
      ],
      "name": "withdrawCredit",
      "outputs": [],
      "stateMutability": "nonpayable",
      "type": "function"
    },
    {
      "inputs": [
        {
          "internalType": "address",
          "name": "passengerAddress",
          "type": "address"
        }
      ],
      "name": "getPassengerCredit",
      "outputs": [
        {
          "internalType": "uint256",
          "name": "",
          "type": "uint256"
        }
      ],
      "stateMutability": "view",
      "type": "function",
      "constant": true
    },
    {
      "inputs": [],
      "name": "registerOracle",
      "outputs": [],
      "stateMutability": "payable",
      "type": "function",
      "payable": true
    },
    {
      "inputs": [
        {
          "internalType": "address",
          "name": "airline",
          "type": "address"
        },
        {
          "internalType": "string",
          "name": "flight",
          "type": "string"
        },
        {
          "internalType": "uint256",
          "name": "timestamp",
          "type": "uint256"
        }
      ],
      "name": "fetchFlightStatus",
      "outputs": [],
      "stateMutability": "nonpayable",
      "type": "function"
    },
    {
      "inputs": [],
      "name": "getMyIndexes",
      "outputs": [
        {
          "internalType": "uint8[3]",
          "name": "",
          "type": "uint8[3]"
        }
      ],
      "stateMutability": "view",
      "type": "function",
      "constant": true
    },
    {
      "inputs": [
        {
          "internalType": "uint8",
          "name": "index",
          "type": "uint8"
        },
        {
          "internalType": "address",
          "name": "airline",
          "type": "address"
        },
        {
          "internalType": "string",
          "name": "flight",
          "type": "string"
        },
        {
          "internalType": "uint256",
          "name": "timestamp",
          "type": "uint256"
        },
        {
          "internalType": "uint8",
          "name": "statusCode",
          "type": "uint8"
        }
      ],
      "name": "submitOracleResponse",
      "outputs": [],
      "stateMutability": "nonpayable",
      "type": "function"
    }
  ],
  "bytecode": "0x608060405260006004553480156200001657600080fd5b50604051620031273803806200312783398181016040528101906200003c91906200012e565b33600160006101000a81548173ffffffffffffffffffffffffffffffffffffffff021916908373ffffffffffffffffffffffffffffffffffffffff160217905550806000806101000a81548173ffffffffffffffffffffffffffffffffffffffff021916908373ffffffffffffffffffffffffffffffffffffffff1602179055505062000160565b600080fd5b600073ffffffffffffffffffffffffffffffffffffffff82169050919050565b6000620000f682620000c9565b9050919050565b6200010881620000e9565b81146200011457600080fd5b50565b6000815190506200012881620000fd565b92915050565b600060208284031215620001475762000146620000c4565b5b6000620001578482850162000117565b91505092915050565b612fb780620001706000396000f3fe6080604052600436106100e85760003560e01c80639de5f9571161008a578063ee38a74911610059578063ee38a749146102a7578063f0573752146102d0578063f53b6d65146102f9578063f83f11c014610336576100e8565b80639de5f9571461020c5780639ed1892714610249578063c10f270014610253578063cd905dff1461027c576100e8565b806340face3a116100c657806340face3a146101505780635f1cc0e61461018d57806364b4f751146101b85780636c8cc9d9146101e3576100e8565b806305b64e98146100ed578063148d98721461012a578063339d259014610146575b600080fd5b3480156100f957600080fd5b50610114600480360381019061010f9190611cbf565b61035f565b6040516101219190611d05565b60405180910390f35b610144600480360381019061013f9190611e92565b6104d1565b005b61014e610681565b005b34801561015c57600080fd5b5061017760048036038101906101729190611f45565b61076e565b6040516101849190611fcf565b60405180910390f35b34801561019957600080fd5b506101a26107ac565b6040516101af91906120a2565b60405180910390f35b3480156101c457600080fd5b506101cd6108ec565b6040516101da9190611d05565b60405180910390f35b3480156101ef57600080fd5b5061020a60048036038101906102059190611cbf565b6108f8565b005b34801561021857600080fd5b50610233600480360381019061022e91906120bd565b610b20565b604051610240919061213b565b60405180910390f35b610251610b5e565b005b34801561025f57600080fd5b5061027a60048036038101906102759190612182565b610beb565b005b34801561028857600080fd5b50610291610fb7565b60405161029e9190611fcf565b60405180910390f35b3480156102b357600080fd5b506102ce60048036038101906102c99190612219565b610fc0565b005b3480156102dc57600080fd5b506102f760048036038101906102f29190612275565b6111f8565b005b34801561030557600080fd5b50610320600480360381019061031b9190611cbf565b611590565b60405161032d9190611fcf565b60405180910390f35b34801561034257600080fd5b5061035d600480360381019061035891906120bd565b611634565b005b60008060009054906101000a900473ffffffffffffffffffffffffffffffffffffffff1673ffffffffffffffffffffffffffffffffffffffff1663cd905dff6040518163ffffffff1660e01b8152600401602060405180830381865afa1580156103cd573d6000803e3d6000fd5b505050506040513d601f19601f820116820180604052508101906103f191906122fd565b610430576040517f08c379a0000000000000000000000000000000000000000000000000000000008152600401610427906123ad565b60405180910390fd5b60008054906101000a900473ffffffffffffffffffffffffffffffffffffffff1673ffffffffffffffffffffffffffffffffffffffff166305b64e98836040518263ffffffff1660e01b815260040161048991906123dc565b602060405180830381865afa1580156104a6573d6000803e3d6000fd5b505050506040513d601f19601f820116820180604052508101906104ca919061240c565b9050919050565b60008054906101000a900473ffffffffffffffffffffffffffffffffffffffff1673ffffffffffffffffffffffffffffffffffffffff1663cd905dff6040518163ffffffff1660e01b8152600401602060405180830381865afa15801561053c573d6000803e3d6000fd5b505050506040513d601f19601f8201168201806040525081019061056091906122fd565b61059f576040517f08c379a0000000000000000000000000000000000000000000000000000000008152600401610596906123ad565b60405180910390fd5b6105aa81838761076e565b6105e9576040517f08c379a00000000000000000000000000000000000000000000000000000000081526004016105e0906124d1565b60405180910390fd5b60008054906101000a900473ffffffffffffffffffffffffffffffffffffffff1673ffffffffffffffffffffffffffffffffffffffff166317768682868686346040518563ffffffff1660e01b81526004016106489493929190612568565b600060405180830381600087803b15801561066257600080fd5b505af1158015610676573d6000803e3d6000fd5b505050505050505050565b670de0b6b3a76400003410156106cc576040517f08c379a00000000000000000000000000000000000000000000000000000000081526004016106c390612607565b60405180910390fd5b60006106d73361172e565b9050604051806040016040528060011515815260200182815250600560003373ffffffffffffffffffffffffffffffffffffffff1673ffffffffffffffffffffffffffffffffffffffff16815260200190815260200160002060008201518160000160006101000a81548160ff021916908315150217905550602082015181600101906003610767929190611aee565b5090505050565b60008061077c858486611914565b90506003600082815260200190815260200160002060000160009054906101000a900460ff169150509392505050565b6107b4611b88565b600560003373ffffffffffffffffffffffffffffffffffffffff1673ffffffffffffffffffffffffffffffffffffffff16815260200190815260200160002060000160009054906101000a900460ff16610843576040517f08c379a000000000000000000000000000000000000000000000000000000000815260040161083a90612673565b60405180910390fd5b600560003373ffffffffffffffffffffffffffffffffffffffff1673ffffffffffffffffffffffffffffffffffffffff1681526020019081526020016000206001016003806020026040519081016040528092919082600380156108e2576020028201916000905b82829054906101000a900460ff1660ff16815260200190600101906020826000010492830192600103820291508084116108ab5790505b5050505050905090565b670de0b6b3a764000081565b60008054906101000a900473ffffffffffffffffffffffffffffffffffffffff1673ffffffffffffffffffffffffffffffffffffffff1663cd905dff6040518163ffffffff1660e01b8152600401602060405180830381865afa158015610963573d6000803e3d6000fd5b505050506040513d601f19601f8201168201806040525081019061098791906122fd565b6109c6576040517f08c379a00000000000000000000000000000000000000000000000000000000081526004016109bd906123ad565b60405180910390fd5b3273ffffffffffffffffffffffffffffffffffffffff163373ffffffffffffffffffffffffffffffffffffffff1614610a34576040517f08c379a0000000000000000000000000000000000000000000000000000000008152600401610a2b90612705565b60405180910390fd5b60008060009054906101000a900473ffffffffffffffffffffffffffffffffffffffff1673ffffffffffffffffffffffffffffffffffffffff16630c11dedd836040518263ffffffff1660e01b8152600401610a9091906123dc565b6020604051808303816000875af1158015610aaf573d6000803e3d6000fd5b505050506040513d601f19601f82011682018060405250810190610ad3919061240c565b90508173ffffffffffffffffffffffffffffffffffffffff166108fc829081150290604051600060405180830381858888f19350505050158015610b1b573d6000803e3d6000fd5b505050565b600080610b2e858585611914565b90506003600082815260200190815260200160002060000160019054906101000a900460ff169150509392505050565b60008054906101000a900473ffffffffffffffffffffffffffffffffffffffff1673ffffffffffffffffffffffffffffffffffffffff1663ca1d209d346040518263ffffffff1660e01b8152600401610bb79190611d05565b600060405180830381600087803b158015610bd157600080fd5b505af1158015610be5573d6000803e3d6000fd5b50505050565b7f43c853095c2752648493c88b4baac4d580d2594ffb00c6f1d4242d844514f78384848484604051610c209493929190612725565b60405180910390a18460ff16600560003373ffffffffffffffffffffffffffffffffffffffff1673ffffffffffffffffffffffffffffffffffffffff168152602001908152602001600020600101600060038110610c8157610c80612771565b5b602091828204019190069054906101000a900460ff1660ff161480610d1557508460ff16600560003373ffffffffffffffffffffffffffffffffffffffff1673ffffffffffffffffffffffffffffffffffffffff168152602001908152602001600020600101600160038110610cfa57610cf9612771565b5b602091828204019190069054906101000a900460ff1660ff16145b80610d8f57508460ff16600560003373ffffffffffffffffffffffffffffffffffffffff1673ffffffffffffffffffffffffffffffffffffffff168152602001908152602001600020600101600260038110610d7457610d73612771565b5b602091828204019190069054906101000a900460ff1660ff16145b610dce576040517f08c379a0000000000000000000000000000000000000000000000000000000008152600401610dc590612812565b60405180910390fd5b600085858585604051602001610de7949392919061290d565b6040516020818303038152906040528051906020012090506006600082815260200190815260200160002060000160149054906101000a900460ff16610e62576040517f08c379a0000000000000000000000000000000000000000000000000000000008152600401610e59906129c9565b60405180910390fd5b6006600082815260200190815260200160002060010160008360ff1660ff168152602001908152602001600020339080600181540180825580915050600190039060005260206000200160009091909190916101000a81548173ffffffffffffffffffffffffffffffffffffffff021916908373ffffffffffffffffffffffffffffffffffffffff1602179055507f43c853095c2752648493c88b4baac4d580d2594ffb00c6f1d4242d844514f78385858585604051610f259493929190612725565b60405180910390a160036006600083815260200190815260200160002060010160008460ff1660ff1681526020019081526020016000208054905010610faf577fe23f5229de535c091e3b7bec2665f5d698192d3b31393066e8987b7a05076b6c85858585604051610f9a9493929190612725565b60405180910390a1610fae8585858561194a565b5b505050505050565b60006001905090565b60008054906101000a900473ffffffffffffffffffffffffffffffffffffffff1673ffffffffffffffffffffffffffffffffffffffff1663cd905dff6040518163ffffffff1660e01b8152600401602060405180830381865afa15801561102b573d6000803e3d6000fd5b505050506040513d601f19601f8201168201806040525081019061104f91906122fd565b61108e576040517f08c379a0000000000000000000000000000000000000000000000000000000008152600401611085906123ad565b60405180910390fd5b60008054906101000a900473ffffffffffffffffffffffffffffffffffffffff1673ffffffffffffffffffffffffffffffffffffffff166313b0633c336040518263ffffffff1660e01b81526004016110e791906123dc565b602060405180830381865afa158015611104573d6000803e3d6000fd5b505050506040513d601f19601f8201168201806040525081019061112891906122fd565b611167576040517f08c379a000000000000000000000000000000000000000000000000000000000815260040161115e90612acd565b60405180910390fd5b60008054906101000a900473ffffffffffffffffffffffffffffffffffffffff1673ffffffffffffffffffffffffffffffffffffffff1663ee38a74983836040518363ffffffff1660e01b81526004016111c2929190612aed565b600060405180830381600087803b1580156111dc57600080fd5b505af11580156111f0573d6000803e3d6000fd5b505050505050565b60008054906101000a900473ffffffffffffffffffffffffffffffffffffffff1673ffffffffffffffffffffffffffffffffffffffff1663cd905dff6040518163ffffffff1660e01b8152600401602060405180830381865afa158015611263573d6000803e3d6000fd5b505050506040513d601f19601f8201168201806040525081019061128791906122fd565b6112c6576040517f08c379a00000000000000000000000000000000000000000000000000000000081526004016112bd906123ad565b60405180910390fd5b60008054906101000a900473ffffffffffffffffffffffffffffffffffffffff1673ffffffffffffffffffffffffffffffffffffffff166313b0633c336040518263ffffffff1660e01b815260040161131f91906123dc565b602060405180830381865afa15801561133c573d6000803e3d6000fd5b505050506040513d601f19601f8201168201806040525081019061136091906122fd565b61139f576040517f08c379a000000000000000000000000000000000000000000000000000000000815260040161139690612acd565b60405180910390fd5b60006113ac338385611914565b90506000826040516020016113c19190612b1d565b60405160208183030381529060405280519060200120600360008481526020019081526020016000206003016040516020016113fd9190612c28565b604051602081830303815290604052805190602001201490508015611457576040517f08c379a000000000000000000000000000000000000000000000000000000000815260040161144e90612cd7565b60405180910390fd5b82600360008481526020019081526020016000206003019080519060200190611481929190611baa565b50336003600084815260200190815260200160002060020160006101000a81548173ffffffffffffffffffffffffffffffffffffffff021916908373ffffffffffffffffffffffffffffffffffffffff16021790555060006003600084815260200190815260200160002060000160016101000a81548160ff021916908360ff16021790555083600360008481526020019081526020016000206001018190555060016003600084815260200190815260200160002060000160006101000a81548160ff0219169083151502179055507ff36888bfb476ff598f8870d1a63a133e2181fbd122a802be9bf6aeef4e730f8d8233604051611582929190612d10565b60405180910390a150505050565b60008060009054906101000a900473ffffffffffffffffffffffffffffffffffffffff1673ffffffffffffffffffffffffffffffffffffffff1663f53b6d65836040518263ffffffff1660e01b81526004016115ec91906123dc565b602060405180830381865afa158015611609573d6000803e3d6000fd5b505050506040513d601f19601f8201168201806040525081019061162d91906122fd565b9050919050565b600061163f33611a69565b905060008185858560405160200161165a949392919061290d565b6040516020818303038152906040528051906020012090506000600660008381526020019081526020016000209050338160000160006101000a81548173ffffffffffffffffffffffffffffffffffffffff021916908373ffffffffffffffffffffffffffffffffffffffff16021790555060018160000160146101000a81548160ff0219169083151502179055507f3ed01f2c3fc24c6b329d931e35b03e390d23497d22b3f90e15b600343e93df118387878760405161171e9493929190612d39565b60405180910390a1505050505050565b611736611b88565b61173e611b88565b61174783611a69565b8160006003811061175b5761175a612771565b5b602002019060ff16908160ff1681525050806000600381106117805761177f612771565b5b60200201518160016003811061179957611798612771565b5b602002019060ff16908160ff16815250505b806000600381106117bf576117be612771565b5b602002015160ff16816001600381106117db576117da612771565b5b602002015160ff160361181b576117f183611a69565b8160016003811061180557611804612771565b5b602002019060ff16908160ff16815250506117ab565b8060016003811061182f5761182e612771565b5b60200201518160026003811061184857611847612771565b5b602002019060ff16908160ff16815250505b8060006003811061186e5761186d612771565b5b602002015160ff168160026003811061188a57611889612771565b5b602002015160ff1614806118d35750806001600381106118ad576118ac612771565b5b602002015160ff16816002600381106118c9576118c8612771565b5b602002015160ff16145b1561190b576118e183611a69565b816002600381106118f5576118f4612771565b5b602002019060ff16908160ff168152505061185a565b80915050919050565b600083838360405160200161192b93929190612d85565b6040516020818303038152906040528051906020012090509392505050565b6000611957858585611914565b9050816003600083815260200190815260200160002060000160016101000a81548160ff021916908360ff160217905550600a60ff168260ff1614611a255760008054906101000a900473ffffffffffffffffffffffffffffffffffffffff1673ffffffffffffffffffffffffffffffffffffffff166303ee4e568560966040518363ffffffff1660e01b81526004016119f2929190612df9565b600060405180830381600087803b158015611a0c57600080fd5b505af1158015611a20573d6000803e3d6000fd5b505050505b7fe23f5229de535c091e3b7bec2665f5d698192d3b31393066e8987b7a05076b6c85858585604051611a5a9493929190612725565b60405180910390a15050505050565b600080600a905060008160ff1660046000815480929190611a8990612e58565b9190505543611a989190612ea0565b4085604051602001611aab929190612ef5565b6040516020818303038152906040528051906020012060001c611ace9190612f50565b905060fa6004541115611ae45760006004819055505b8092505050919050565b826003601f01602090048101928215611b775791602002820160005b83821115611b4857835183826101000a81548160ff021916908360ff1602179055509260200192600101602081600001049283019260010302611b0a565b8015611b755782816101000a81549060ff0219169055600101602081600001049283019260010302611b48565b505b509050611b849190611c30565b5090565b6040518060600160405280600390602082028036833780820191505090505090565b828054611bb690612b63565b90600052602060002090601f016020900481019282611bd85760008555611c1f565b82601f10611bf157805160ff1916838001178555611c1f565b82800160010185558215611c1f579182015b82811115611c1e578251825591602001919060010190611c03565b5b509050611c2c9190611c30565b5090565b5b80821115611c49576000816000905550600101611c31565b5090565b6000604051905090565b600080fd5b600080fd5b600073ffffffffffffffffffffffffffffffffffffffff82169050919050565b6000611c8c82611c61565b9050919050565b611c9c81611c81565b8114611ca757600080fd5b50565b600081359050611cb981611c93565b92915050565b600060208284031215611cd557611cd4611c57565b5b6000611ce384828501611caa565b91505092915050565b6000819050919050565b611cff81611cec565b82525050565b6000602082019050611d1a6000830184611cf6565b92915050565b600080fd5b600080fd5b6000601f19601f8301169050919050565b7f4e487b7100000000000000000000000000000000000000000000000000000000600052604160045260246000fd5b611d7382611d2a565b810181811067ffffffffffffffff82111715611d9257611d91611d3b565b5b80604052505050565b6000611da5611c4d565b9050611db18282611d6a565b919050565b600067ffffffffffffffff821115611dd157611dd0611d3b565b5b611dda82611d2a565b9050602081019050919050565b82818337600083830152505050565b6000611e09611e0484611db6565b611d9b565b905082815260208101848484011115611e2557611e24611d25565b5b611e30848285611de7565b509392505050565b600082601f830112611e4d57611e4c611d20565b5b8135611e5d848260208601611df6565b91505092915050565b611e6f81611cec565b8114611e7a57600080fd5b50565b600081359050611e8c81611e66565b92915050565b600080600080600060a08688031215611eae57611ead611c57565b5b600086013567ffffffffffffffff811115611ecc57611ecb611c5c565b5b611ed888828901611e38565b955050602086013567ffffffffffffffff811115611ef957611ef8611c5c565b5b611f0588828901611e38565b9450506040611f1688828901611caa565b9350506060611f2788828901611e7d565b9250506080611f3888828901611caa565b9150509295509295909350565b600080600060608486031215611f5e57611f5d611c57565b5b6000611f6c86828701611caa565b9350506020611f7d86828701611e7d565b925050604084013567ffffffffffffffff811115611f9e57611f9d611c5c565b5b611faa86828701611e38565b9150509250925092565b60008115159050919050565b611fc981611fb4565b82525050565b6000602082019050611fe46000830184611fc0565b92915050565b600060039050919050565b600081905092915050565b6000819050919050565b600060ff82169050919050565b6120208161200a565b82525050565b60006120328383612017565b60208301905092915050565b6000602082019050919050565b61205481611fea565b61205e8184611ff5565b925061206982612000565b8060005b8381101561209a5781516120818782612026565b965061208c8361203e565b92505060018101905061206d565b505050505050565b60006060820190506120b7600083018461204b565b92915050565b6000806000606084860312156120d6576120d5611c57565b5b60006120e486828701611caa565b935050602084013567ffffffffffffffff81111561210557612104611c5c565b5b61211186828701611e38565b925050604061212286828701611e7d565b9150509250925092565b6121358161200a565b82525050565b6000602082019050612150600083018461212c565b92915050565b61215f8161200a565b811461216a57600080fd5b50565b60008135905061217c81612156565b92915050565b600080600080600060a0868803121561219e5761219d611c57565b5b60006121ac8882890161216d565b95505060206121bd88828901611caa565b945050604086013567ffffffffffffffff8111156121de576121dd611c5c565b5b6121ea88828901611e38565b93505060606121fb88828901611e7d565b925050608061220c8882890161216d565b9150509295509295909350565b600080604083850312156122305761222f611c57565b5b600061223e85828601611caa565b925050602083013567ffffffffffffffff81111561225f5761225e611c5c565b5b61226b85828601611e38565b9150509250929050565b6000806040838503121561228c5761228b611c57565b5b600061229a85828601611e7d565b925050602083013567ffffffffffffffff8111156122bb576122ba611c5c565b5b6122c785828601611e38565b9150509250929050565b6122da81611fb4565b81146122e557600080fd5b50565b6000815190506122f7816122d1565b92915050565b60006020828403121561231357612312611c57565b5b6000612321848285016122e8565b91505092915050565b600082825260208201905092915050565b7f436f6e74726163742069732063757272656e746c79206e6f74206f706572617460008201527f696f6e616c000000000000000000000000000000000000000000000000000000602082015250565b600061239760258361232a565b91506123a28261233b565b604082019050919050565b600060208201905081810360008301526123c68161238a565b9050919050565b6123d681611c81565b82525050565b60006020820190506123f160008301846123cd565b92915050565b60008151905061240681611e66565b92915050565b60006020828403121561242257612421611c57565b5b6000612430848285016123f7565b91505092915050565b7f464c49474854204e4f5420464f554e443a20596f752063616e206f6e6c79206260008201527f757920696e737572616e636520666f72207265676973746572656420666c696760208201527f6874730000000000000000000000000000000000000000000000000000000000604082015250565b60006124bb60438361232a565b91506124c682612439565b606082019050919050565b600060208201905081810360008301526124ea816124ae565b9050919050565b600081519050919050565b60005b8381101561251a5780820151818401526020810190506124ff565b83811115612529576000848401525b50505050565b600061253a826124f1565b612544818561232a565b93506125548185602086016124fc565b61255d81611d2a565b840191505092915050565b60006080820190508181036000830152612582818761252f565b90508181036020830152612596818661252f565b90506125a560408301856123cd565b6125b26060830184611cf6565b95945050505050565b7f526567697374726174696f6e2066656520697320726571756972656400000000600082015250565b60006125f1601c8361232a565b91506125fc826125bb565b602082019050919050565b60006020820190508181036000830152612620816125e4565b9050919050565b7f4e6f74207265676973746572656420617320616e206f7261636c650000000000600082015250565b600061265d601b8361232a565b915061266882612627565b602082019050919050565b6000602082019050818103600083015261268c81612650565b9050919050565b7f57524f4e472043414c4c45523a204f6e6c7920454f412063616e2063616c6c2060008201527f746869732066756e6374696f6e00000000000000000000000000000000000000602082015250565b60006126ef602d8361232a565b91506126fa82612693565b604082019050919050565b6000602082019050818103600083015261271e816126e2565b9050919050565b600060808201905061273a60008301876123cd565b818103602083015261274c818661252f565b905061275b6040830185611cf6565b612768606083018461212c565b95945050505050565b7f4e487b7100000000000000000000000000000000000000000000000000000000600052603260045260246000fd5b7f496e64657820646f6573206e6f74206d61746368206f7261636c65207265717560008201527f6573740000000000000000000000000000000000000000000000000000000000602082015250565b60006127fc60238361232a565b9150612807826127a0565b604082019050919050565b6000602082019050818103600083015261282b816127ef565b9050919050565b60008160f81b9050919050565b600061284a82612832565b9050919050565b61286261285d8261200a565b61283f565b82525050565b60008160601b9050919050565b600061288082612868565b9050919050565b600061289282612875565b9050919050565b6128aa6128a582611c81565b612887565b82525050565b600081905092915050565b60006128c6826124f1565b6128d081856128b0565b93506128e08185602086016124fc565b80840191505092915050565b6000819050919050565b61290761290282611cec565b6128ec565b82525050565b60006129198287612851565b6001820191506129298286612899565b60148201915061293982856128bb565b915061294582846128f6565b60208201915081905095945050505050565b7f466c69676874206f722074696d657374616d7020646f206e6f74206d6174636860008201527f206f7261636c6520726571756573740000000000000000000000000000000000602082015250565b60006129b3602f8361232a565b91506129be82612957565b604082019050919050565b600060208201905081810360008301526129e2816129a6565b9050919050565b7f20494e414354495645204149524c494e453a20436f6e6669726d20746861742060008201527f796f75206861766520626f7468206265656e207265676973746572656420616e60208201527f64206861766520706169642074686520736565642066756e64206265666f726560408201527f20617474656d7074696e67207265676973746572696e672061206e657720616960608201527f726c696e652e0000000000000000000000000000000000000000000000000000608082015250565b6000612ab760868361232a565b9150612ac2826129e9565b60a082019050919050565b60006020820190508181036000830152612ae681612aaa565b9050919050565b6000604082019050612b0260008301856123cd565b8181036020830152612b14818461252f565b90509392505050565b6000612b2982846128bb565b915081905092915050565b7f4e487b7100000000000000000000000000000000000000000000000000000000600052602260045260246000fd5b60006002820490506001821680612b7b57607f821691505b602082108103612b8e57612b8d612b34565b5b50919050565b60008190508160005260206000209050919050565b60008154612bb681612b63565b612bc081866128b0565b94506001821660008114612bdb5760018114612bec57612c1f565b60ff19831686528186019350612c1f565b612bf585612b94565b60005b83811015612c1757815481890152600182019150602081019050612bf8565b838801955050505b50505092915050565b6000612c348284612ba9565b915081905092915050565b7f444f55424c4520524547495354524154494f4e20415454454d50543a2054686560008201527f20676976656e20666c696768742068617320616c7265616479206265656e207260208201527f6567697374657265640000000000000000000000000000000000000000000000604082015250565b6000612cc160498361232a565b9150612ccc82612c3f565b606082019050919050565b60006020820190508181036000830152612cf081612cb4565b9050919050565b6000819050919050565b612d0a81612cf7565b82525050565b6000604082019050612d256000830185612d01565b612d3260208301846123cd565b9392505050565b6000608082019050612d4e600083018761212c565b612d5b60208301866123cd565b8181036040830152612d6d818561252f565b9050612d7c6060830184611cf6565b95945050505050565b6000612d918286612899565b601482019150612da182856128bb565b9150612dad82846128f6565b602082019150819050949350505050565b6000819050919050565b6000612de3612dde612dd98461200a565b612dbe565b611cec565b9050919050565b612df381612dc8565b82525050565b60006040820190508181036000830152612e13818561252f565b9050612e226020830184612dea565b9392505050565b7f4e487b7100000000000000000000000000000000000000000000000000000000600052601160045260246000fd5b6000612e6382611cec565b91507fffffffffffffffffffffffffffffffffffffffffffffffffffffffffffffffff8203612e9557612e94612e29565b5b600182019050919050565b6000612eab82611cec565b9150612eb683611cec565b925082821015612ec957612ec8612e29565b5b828203905092915050565b6000819050919050565b612eef612eea82612cf7565b612ed4565b82525050565b6000612f018285612ede565b602082019150612f118284612899565b6014820191508190509392505050565b7f4e487b7100000000000000000000000000000000000000000000000000000000600052601260045260246000fd5b6000612f5b82611cec565b9150612f6683611cec565b925082612f7657612f75612f21565b5b82820690509291505056fea26469706673582212209a4f324680cc938767e1818cbadaf534facbb59a68c21ad8618e9c5ce27e1cbb64736f6c634300080e0033",
  "immutableReferences": {},
  "source": "// SPDX-License-Identifier: MIT\npragma solidity ^0.8.13;\n\n// It's important to avoid vulnerabilities due to numeric overflow bugs\n// OpenZeppelin's SafeMath library, when used correctly, protects agains such bugs\n// More info: https://www.nccgroup.trust/us/about-us/newsroom-and-events/blog/2018/november/smart-contract-insecurity-bad-arithmetic/\n\nimport \"@openzeppelin/contracts/utils/math/SafeMath.sol\";\n\n/************************************************** */\n/* FlightSurety Smart Contract                      */\n/************************************************** */\ncontract FlightSuretyApp {\n    using SafeMath for uint256; // Allow SafeMath functions to be called for all uint256 types (similar to \"prototype\" in Javascript)\n\n\n    IFlightSuretyData flightSuretyData;\n\n    /********************************************************************************************/\n    /*                                       DATA VARIABLES                                     */\n    /********************************************************************************************/\n\n    // Flight status codees\n    uint8 private constant STATUS_CODE_UNKNOWN = 0;\n    uint8 private constant STATUS_CODE_ON_TIME = 10;\n    uint8 private constant STATUS_CODE_LATE_AIRLINE = 20;\n    uint8 private constant STATUS_CODE_LATE_WEATHER = 30;\n    uint8 private constant STATUS_CODE_LATE_TECHNICAL = 40;\n    uint8 private constant STATUS_CODE_LATE_OTHER = 50;\n\n\n    // Credit value\n    uint8 private constant PASSENGER_CREDIT_VALUE = 150;\n\n    address private contractOwner;          // Account used to deploy contract\n    address private firstAirline;\n\n    struct Flight {\n        bool isRegistered;\n        uint8 statusCode;\n        uint256 updatedTimestamp;        \n        address airline;\n        string flight;\n    }\n    mapping(bytes32 => Flight) private s_flights;\n\n\n\n    /********************************************************************************************/\n    /*                                       EVENT DEFINITIONS                                  */\n    /********************************************************************************************/\n \n    event FlightRegistered(bytes32 flightKey, address airline);\n\n    /********************************************************************************************/\n    /*                                       FUNCTION MODIFIERS                                 */\n    /********************************************************************************************/\n\n    // Modifiers help avoid duplication of code. They are typically used to validate something\n    // before a function is allowed to be executed.\n\n    /**\n    * @dev Modifier that requires the \"operational\" boolean variable to be \"true\"\n    *      This is used on all state changing functions to pause the contract in \n    *      the event there is an issue that needs to be fixed\n    */\n    modifier requireIsOperational() \n    {\n         // Modify to call data contract's status\n        require(flightSuretyData.isOperational(), \"Contract is currently not operational\");  \n        _;  // All modifiers require an \"_\" which indicates where the function body will be added\n    }\n\n    /**\n    * @dev Modifier that requires the caller of registerAirline to be a registeredAirline.\n    */\n    \n\n    /**\n    * @dev Modifier that requires the \"ContractOwner\" account to be the function caller\n    */\n    modifier requireContractOwner()\n    {\n        require(msg.sender == contractOwner, \"Caller is not contract owner\");\n        _;\n    }\n\n    modifier requireAirlineIsActive() \n    {\n        require(flightSuretyData.isAirlineActive(msg.sender), \" INACTIVE AIRLINE: Confirm that you have both been registered and have paid the seed fund before attempting registering a new airline.\");  \n        _;  \n    }\n\n    // Modifier to check if number of registered users have reached 4\n\n    /********************************************************************************************/\n    /*                                       CONSTRUCTOR                                        */\n    /********************************************************************************************/\n\n    /**\n    * @dev Contract constructor\n    *\n    */\n    constructor ( address dataContract){\n\n        contractOwner = msg.sender;\n\n        flightSuretyData = IFlightSuretyData(dataContract);\n\n    }\n\n    /********************************************************************************************/\n    /*                                       UTILITY FUNCTIONS                                  */\n    /********************************************************************************************/\n\n    function isOperational() \n                            public \n                            pure \n                            returns(bool) \n    {\n        return true;  // Modify to call data contract's status\n    }\n\n    function isFlightRegistered(address airline, uint timestamp, string memory flight) public view returns (bool){\n       \n       bytes32 flightKey = getFlightKey(airline, flight, timestamp);\n        return s_flights[flightKey].isRegistered;\n\n    }\n\n    function isAirlineFunded(address airline) public view returns(bool){\n        return flightSuretyData.isAirlineFunded(airline);\n    }\n\n\n    /********************************************************************************************/\n    /*                                     SMART CONTRACT FUNCTIONS                             */\n    /********************************************************************************************/\n\n  \n   /**\n    * @dev Add an airline to the registration queue\n    *\n    */   \n    function registerAirline ( address newAirline, string memory _name ) public requireIsOperational requireAirlineIsActive {\n        flightSuretyData.registerAirline(newAirline, _name);\n    }\n\n\n\n\n   /**\n    * @dev Register a future flight for insuring.\n    *\n    */  \n    function registerFlight (uint _timestamp, string memory _flight ) public requireIsOperational requireAirlineIsActive{\n        \n\n        bytes32 flightKey = getFlightKey(msg.sender, _flight, _timestamp);\n\n        bool isRegisteredTwice = keccak256(abi.encodePacked((s_flights[flightKey].flight))) == keccak256(abi.encodePacked((_flight)));\n        require(!isRegisteredTwice,'DOUBLE REGISTRATION ATTEMPT: The given flight has already been registered');\n\n        // TODO: WRITE TO FLIGHTS STORAGE ONLY ONCE\n\n        s_flights[flightKey].flight = _flight;\n        s_flights[flightKey].airline = msg.sender;\n        s_flights[flightKey].statusCode = STATUS_CODE_UNKNOWN;\n        s_flights[flightKey].updatedTimestamp = _timestamp;\n        s_flights[flightKey].isRegistered = true;\n\n        emit FlightRegistered(flightKey, msg.sender);\n\n    }\n\n    function fundAirline() public payable{\n        flightSuretyData.fund(msg.value);\n    }\n\n    function buyFlightInsurance ( \n        string memory _flight, \n        string memory passengerName,\n        address passengerAddress,\n        uint256 _timestamp, \n        address airline \n        ) public payable requireIsOperational{\n\n        // confirm that flight is registered.\n        require(isFlightRegistered(airline, _timestamp, _flight),'FLIGHT NOT FOUND: You can only buy insurance for registered flights');\n\n        flightSuretyData.buyInsurance(_flight, passengerName, passengerAddress, msg.value);\n    }\n    \n   /**\n    * @dev Called after oracle has updated flight status\n    *\n    */  \n    function processFlightStatus ( \n        address airline, \n        string memory flight, \n        uint256 timestamp, \n        uint8 statusCode ) internal {\n\n            //generate flightKey\n            bytes32 flightKey = getFlightKey(airline, flight, timestamp);\n\n            // update flight status code\n            s_flights[flightKey].statusCode = statusCode;\n\n            // When flight is delayed, credit passengers with insurance \n          if (statusCode != STATUS_CODE_ON_TIME) {\n            flightSuretyData.creditInsuree(flight, PASSENGER_CREDIT_VALUE);\n          }\n\n            emit FlightStatusInfo(airline, flight, timestamp, statusCode);\n\n    }\n    \n\n    // Get the current flight status\n    function getFlightStatus (\n                                address airline,\n                                string memory flight,                        \n                                uint256 timestamp     \n                            )\n                            public\n                            view\n                            returns(uint8)\n    {\n        bytes32 flightKey = getFlightKey(airline, flight, timestamp);\n        return s_flights[flightKey].statusCode;\n    }\n\n    function withdrawCredit(address passengerAddress) public requireIsOperational{\n         // verify it's be en called from an externally owned account - msg.sender == tx.origin\n        require(msg.sender == tx.origin,'WRONG CALLER: Only EOA can call this function');\n\n        // transfer funds to passenger account.\n        uint256 creditToPay = flightSuretyData.pay(passengerAddress);\n\n        payable(passengerAddress).transfer(creditToPay);\n \n    }\n\n    function getPassengerCredit(address passengerAddress) public view requireIsOperational returns(uint){\n        return flightSuretyData.getPassengerCredit(passengerAddress);\n    }\n\n   \n\n// region ORACLE MANAGEMENT\n\n    // Incremented to add pseudo-randomness at various points\n    uint256 private nonce = 0;    \n\n    // Fee to be paid when registering oracle\n    uint256 public constant REGISTRATION_FEE = 1 ether;\n\n    // Number of oracles that must respond for valid status\n    uint256 private constant MIN_RESPONSES = 3;\n\n\n    struct Oracle {\n        bool isRegistered;\n        uint8[3] indexes;        \n    }\n\n    // Track all registered oracles\n    mapping(address => Oracle) private oracles;\n\n    // Model for responses from oracles\n    struct ResponseInfo {\n        address requester;                              // Account that requested status\n        bool isOpen;                                    // If open, oracle responses are accepted\n        mapping(uint8 => address[]) responses;          // Mapping key is the status code reported\n                                                        // This lets us group responses and identify                                                 // the response that majority of the oracles\n    }\n\n    // Track all oracle responses\n    // Key = hash(index, flight, timestamp)\n    mapping(bytes32 => ResponseInfo) private oracleResponses;\n\n\n\n    // Event fired each time an oracle submits a response\n    event FlightStatusInfo(address airline, string flight, uint256 timestamp, uint8 status);\n\n    event OracleReport(address airline, string flight, uint256 timestamp, uint8 status);\n\n    // Event fired when flight status request is submitted\n    // Oracles track this and if they have a matching index\n    // they fetch data and submit a response\n    event OracleRequest(uint8 index, address airline, string flight, uint256 timestamp);\n\n\n\n\n    // Register an oracle with the contract\n    function registerOracle ( ) external payable{\n        // Require registration fee\n        require(msg.value >= REGISTRATION_FEE, \"Registration fee is required\");\n\n        // uint8[3] memory indexes = [5,6,8];\n        uint8[3] memory indexes = generateIndexes(msg.sender);\n\n        oracles[msg.sender] = Oracle({\n                                        isRegistered: true,\n                                        indexes: indexes\n                                    });\n    }\n\n     // Generate a request for oracles to fetch flight information\n    function fetchFlightStatus (\n                            address airline,\n                            string memory flight,\n                            uint256 timestamp                            \n                        )\n                        external\n    {\n        uint8 index = getRandomIndex(msg.sender);\n    \n\n        // Generate a unique key for storing the request\n        bytes32 key = keccak256(abi.encodePacked(index, airline, flight, timestamp));\n\n        ResponseInfo storage s_response = oracleResponses[key];\n\n        s_response.requester = msg.sender;\n        s_response.isOpen = true;\n\n        emit OracleRequest(index, airline, flight, timestamp);\n    } \n\n\n    function getMyIndexes ( ) view external returns(uint8[3] memory)\n    {\n        require(oracles[msg.sender].isRegistered, \"Not registered as an oracle\");\n\n        return oracles[msg.sender].indexes;\n    }\n\n\n\n\n    // Called by oracle when a response is available to an outstanding request\n    // For the response to be accepted, there must be a pending request that is open\n    // and matches one of the three Indexes randomly assigned to the oracle at the\n    // time of registration (i.e. uninvited oracles are not welcome)\n    function submitOracleResponse\n                        (\n                            uint8 index,\n                            address airline,\n                            string memory flight,\n                            uint256 timestamp,\n                            uint8 statusCode\n                        )\n                        external\n    {\n        emit OracleReport(airline, flight, timestamp, statusCode);\n        require((oracles[msg.sender].indexes[0] == index) || (oracles[msg.sender].indexes[1] == index) || (oracles[msg.sender].indexes[2] == index), \"Index does not match oracle request\");\n\n\n        bytes32 key = keccak256(abi.encodePacked(index, airline, flight, timestamp)); \n        require(oracleResponses[key].isOpen, \"Flight or timestamp do not match oracle request\");\n\n        oracleResponses[key].responses[statusCode].push(msg.sender);\n\n        // Information isn't considered verified until at least MIN_RESPONSES\n        // oracles respond with the *** same *** information\n        emit OracleReport(airline, flight, timestamp, statusCode);\n        if (oracleResponses[key].responses[statusCode].length >= MIN_RESPONSES) {\n\n            emit FlightStatusInfo(airline, flight, timestamp, statusCode);\n\n            // TODO: CLOSE response acceptance for request\n\n            // Handle flight status as appropriate\n            processFlightStatus(airline, flight, timestamp, statusCode);\n        }\n    }\n\n\n    function getFlightKey (\n         address airline, \n        string memory flight, \n        uint256 timestamp\n        ) pure internal returns(bytes32) {\n             return keccak256(abi.encodePacked(airline, flight, timestamp));\n    }\n\n    // Returns array of three non-duplicating integers from 0-9\n    function generateIndexes (address account) internal returns(uint8[3] memory)\n    {\n        uint8[3] memory indexes;\n        indexes[0] = getRandomIndex(account);\n        \n        indexes[1] = indexes[0];\n        while(indexes[1] == indexes[0]) {\n            indexes[1] = getRandomIndex(account);\n        }\n\n        indexes[2] = indexes[1];\n        while((indexes[2] == indexes[0]) || (indexes[2] == indexes[1])) {\n            indexes[2] = getRandomIndex(account);\n        }\n\n        return indexes;\n    }\n\n    // Returns array of three non-duplicating integers from 0-9\n    function getRandomIndex\n                            (\n                                address account\n                            )\n                            internal\n                            returns (uint8)\n    {\n        uint8 maxValue = 10;\n\n        // Pseudo random number...the incrementing nonce adds variation\n        uint8 random = uint8(uint256(keccak256(abi.encodePacked(blockhash(block.number - nonce++), account))) % maxValue);\n        // uint8 random = uint8(uint256(keccak256(abi.encodePacked(blockhash(block.number.sub(nonce.add(1))), account))).mod(maxValue));\n\n        if (nonce > 250) {\n            nonce = 0;  // Can only fetch blockhashes for last 256 blocks so we adapt\n        }\n\n        return random;\n    }\n\n// endregion\n\n}   \n\ninterface IFlightSuretyData{\n    function registerAirline(address airline, string memory name) external;\n    function isOperational() external view returns (bool);\n    function isAirline(address airline) external view returns (bool);\n    function isAirlineActive(address airline) external view returns (bool);\n    function buyInsurance(string memory flight, string memory passengerName, address passengerAddress, uint256 insuranceAmount) external payable;\n    function creditInsuree(string memory flight, uint256 creditAmount) external;\n    function getPassengerCredit(address passengerAddress) external view returns(uint256);\n    // function clearPassengerCredit(address passengerAddress) external;\n    function pay(address passengerAddress) external returns(uint256);\n    function isAirlineFunded(address airline) external view returns(bool);\n    function fund(uint value) external payable;\n}\n",
  "sourcePath": "/Users/apple/Documents/personal/tutorials/ethereum/flightSuretyDApp/contracts/flightSuretyApp.sol",
  "compiler": {
    "name": "solc",
    "version": "0.8.14+commit.80d49f37.Emscripten.clang"
  },
  "schemaVersion": "3.4.7",
  "updatedAt": "2022-05-26T08:52:31.752Z",
  "networkType": "ethereum",
  "devdoc": {
    "kind": "dev",
    "methods": {
      "constructor": {
        "details": "Contract constructor"
      },
      "registerAirline(address,string)": {
        "details": "Add an airline to the registration queue"
      },
      "registerFlight(uint256,string)": {
        "details": "Register a future flight for insuring."
      }
    },
    "version": 1
  },
  "userdoc": {
    "kind": "user",
    "methods": {},
    "version": 1
  }
}