{
  "contractName": "FlightSuretyData",
  "abi": [
    {
      "inputs": [
        {
          "internalType": "address",
          "name": "firstAirline",
          "type": "address"
        }
      ],
      "stateMutability": "nonpayable",
      "type": "constructor"
    },
    {
      "anonymous": false,
      "inputs": [
        {
          "indexed": false,
          "internalType": "address",
          "name": "voterAddress",
          "type": "address"
        },
        {
          "indexed": false,
          "internalType": "string",
          "name": "voterName",
          "type": "string"
        },
        {
          "indexed": false,
          "internalType": "address",
          "name": "voteeAddress",
          "type": "address"
        },
        {
          "indexed": false,
          "internalType": "string",
          "name": "voteeName",
          "type": "string"
        }
      ],
      "name": "CastVote",
      "type": "event"
    },
    {
      "anonymous": false,
      "inputs": [
        {
          "indexed": false,
          "internalType": "string",
          "name": "flight",
          "type": "string"
        },
        {
          "indexed": false,
          "internalType": "uint256",
          "name": "insuranceAmount",
          "type": "uint256"
        }
      ],
      "name": "FlightInsured",
      "type": "event"
    },
    {
      "anonymous": false,
      "inputs": [
        {
          "indexed": false,
          "internalType": "uint256",
          "name": "amount",
          "type": "uint256"
        },
        {
          "indexed": false,
          "internalType": "string",
          "name": "airlineName",
          "type": "string"
        },
        {
          "indexed": false,
          "internalType": "address",
          "name": "airlineAddress",
          "type": "address"
        }
      ],
      "name": "HasPayedSeedFund",
      "type": "event"
    },
    {
      "anonymous": false,
      "inputs": [
        {
          "indexed": false,
          "internalType": "address",
          "name": "newAirline",
          "type": "address"
        },
        {
          "indexed": false,
          "internalType": "string",
          "name": "name",
          "type": "string"
        }
      ],
      "name": "RegisteredNewAirline",
      "type": "event"
    },
    {
      "stateMutability": "payable",
      "type": "fallback",
      "payable": true
    },
    {
      "inputs": [],
      "name": "MINIMUM_SEED_FUND",
      "outputs": [
        {
          "internalType": "uint256",
          "name": "",
          "type": "uint256"
        }
      ],
      "stateMutability": "view",
      "type": "function",
      "constant": true
    },
    {
      "inputs": [],
      "name": "MIN_FLIGHT_INSURANCE_PRICE",
      "outputs": [
        {
          "internalType": "uint256",
          "name": "",
          "type": "uint256"
        }
      ],
      "stateMutability": "view",
      "type": "function",
      "constant": true
    },
    {
      "inputs": [],
      "name": "firstAirlineAddress",
      "outputs": [
        {
          "internalType": "address",
          "name": "",
          "type": "address"
        }
      ],
      "stateMutability": "view",
      "type": "function",
      "constant": true
    },
    {
      "inputs": [
        {
          "internalType": "uint256",
          "name": "",
          "type": "uint256"
        }
      ],
      "name": "flightToPassengersKeys",
      "outputs": [
        {
          "internalType": "bytes32",
          "name": "",
          "type": "bytes32"
        }
      ],
      "stateMutability": "view",
      "type": "function",
      "constant": true
    },
    {
      "inputs": [],
      "name": "registeredAirlinesCount",
      "outputs": [
        {
          "internalType": "uint256",
          "name": "",
          "type": "uint256"
        }
      ],
      "stateMutability": "view",
      "type": "function",
      "constant": true
    },
    {
      "stateMutability": "payable",
      "type": "receive",
      "payable": true
    },
    {
      "inputs": [],
      "name": "isOperational",
      "outputs": [
        {
          "internalType": "bool",
          "name": "",
          "type": "bool"
        }
      ],
      "stateMutability": "view",
      "type": "function",
      "constant": true
    },
    {
      "inputs": [
        {
          "internalType": "address",
          "name": "airline",
          "type": "address"
        }
      ],
      "name": "isAirline",
      "outputs": [
        {
          "internalType": "bool",
          "name": "",
          "type": "bool"
        }
      ],
      "stateMutability": "view",
      "type": "function",
      "constant": true
    },
    {
      "inputs": [
        {
          "internalType": "address",
          "name": "airline",
          "type": "address"
        }
      ],
      "name": "isAirlineFunded",
      "outputs": [
        {
          "internalType": "bool",
          "name": "",
          "type": "bool"
        }
      ],
      "stateMutability": "view",
      "type": "function",
      "constant": true
    },
    {
      "inputs": [
        {
          "internalType": "address",
          "name": "airline",
          "type": "address"
        }
      ],
      "name": "hasPaidSeedFund",
      "outputs": [
        {
          "internalType": "bool",
          "name": "",
          "type": "bool"
        }
      ],
      "stateMutability": "view",
      "type": "function",
      "constant": true
    },
    {
      "inputs": [
        {
          "internalType": "bool",
          "name": "mode",
          "type": "bool"
        }
      ],
      "name": "setOperatingStatus",
      "outputs": [],
      "stateMutability": "nonpayable",
      "type": "function"
    },
    {
      "inputs": [
        {
          "internalType": "address",
          "name": "contractAddress",
          "type": "address"
        }
      ],
      "name": "authorizeContract",
      "outputs": [],
      "stateMutability": "nonpayable",
      "type": "function"
    },
    {
      "inputs": [
        {
          "internalType": "address",
          "name": "contractAddress",
          "type": "address"
        }
      ],
      "name": "deauthorizeContract",
      "outputs": [],
      "stateMutability": "nonpayable",
      "type": "function"
    },
    {
      "inputs": [
        {
          "internalType": "address",
          "name": "airline",
          "type": "address"
        }
      ],
      "name": "airlineHasReachedConsensus",
      "outputs": [
        {
          "internalType": "bool",
          "name": "",
          "type": "bool"
        }
      ],
      "stateMutability": "view",
      "type": "function",
      "constant": true
    },
    {
      "inputs": [
        {
          "internalType": "address",
          "name": "airline",
          "type": "address"
        }
      ],
      "name": "isAirlineActive",
      "outputs": [
        {
          "internalType": "bool",
          "name": "",
          "type": "bool"
        }
      ],
      "stateMutability": "view",
      "type": "function",
      "constant": true
    },
    {
      "inputs": [
        {
          "internalType": "address",
          "name": "passengerAddress",
          "type": "address"
        }
      ],
      "name": "getPassengerCredit",
      "outputs": [
        {
          "internalType": "uint256",
          "name": "",
          "type": "uint256"
        }
      ],
      "stateMutability": "view",
      "type": "function",
      "constant": true
    },
    {
      "inputs": [
        {
          "internalType": "address",
          "name": "passengerAddress",
          "type": "address"
        }
      ],
      "name": "clearPassengerCredit",
      "outputs": [],
      "stateMutability": "nonpayable",
      "type": "function"
    },
    {
      "inputs": [
        {
          "internalType": "address",
          "name": "newAirline",
          "type": "address"
        },
        {
          "internalType": "string",
          "name": "_name",
          "type": "string"
        }
      ],
      "name": "registerAirline",
      "outputs": [
        {
          "internalType": "bool",
          "name": "success",
          "type": "bool"
        },
        {
          "internalType": "uint256",
          "name": "votes",
          "type": "uint256"
        }
      ],
      "stateMutability": "nonpayable",
      "type": "function"
    },
    {
      "inputs": [
        {
          "internalType": "string",
          "name": "_flight",
          "type": "string"
        },
        {
          "internalType": "string",
          "name": "passengerName",
          "type": "string"
        },
        {
          "internalType": "address",
          "name": "passengerAddress",
          "type": "address"
        },
        {
          "internalType": "uint256",
          "name": "_insuranceAmount",
          "type": "uint256"
        }
      ],
      "name": "buyInsurance",
      "outputs": [
        {
          "internalType": "bool",
          "name": "",
          "type": "bool"
        }
      ],
      "stateMutability": "payable",
      "type": "function",
      "payable": true
    },
    {
      "inputs": [
        {
          "internalType": "string",
          "name": "_flight",
          "type": "string"
        },
        {
          "internalType": "uint256",
          "name": "creditAmount",
          "type": "uint256"
        }
      ],
      "name": "creditInsuree",
      "outputs": [],
      "stateMutability": "nonpayable",
      "type": "function"
    },
    {
      "inputs": [
        {
          "internalType": "address",
          "name": "passengerAddress",
          "type": "address"
        }
      ],
      "name": "pay",
      "outputs": [
        {
          "internalType": "uint256",
          "name": "",
          "type": "uint256"
        }
      ],
      "stateMutability": "nonpayable",
      "type": "function"
    },
    {
      "inputs": [
        {
          "internalType": "uint256",
          "name": "value",
          "type": "uint256"
        }
      ],
      "name": "fund",
      "outputs": [],
      "stateMutability": "payable",
      "type": "function",
      "payable": true
    }
  ],
  "bytecode": "0x60a060405260016000806101000a81548160ff021916908315150217905550600067ffffffffffffffff8111156200003c576200003b62000444565b5b6040519080825280602002602001820160405280156200006b5781602001602082028036833780820191505090505b50600890805190602001906200008392919062000305565b503480156200009157600080fd5b5060405162003138380380620031388339818101604052810190620000b79190620004dd565b3373ffffffffffffffffffffffffffffffffffffffff1660808173ffffffffffffffffffffffffffffffffffffffff168152505060018060008373ffffffffffffffffffffffffffffffffffffffff1673ffffffffffffffffffffffffffffffffffffffff16815260200190815260200160002060000160006101000a81548160ff021916908315150217905550678ac7230489e80000600160008373ffffffffffffffffffffffffffffffffffffffff1673ffffffffffffffffffffffffffffffffffffffff168152602001908152602001600020600101819055506040518060400160405280600c81526020017f4172696b20416972776179730000000000000000000000000000000000000000815250600160008373ffffffffffffffffffffffffffffffffffffffff1673ffffffffffffffffffffffffffffffffffffffff16815260200190815260200160002060030190805190602001906200022192919062000394565b5080600160008373ffffffffffffffffffffffffffffffffffffffff1673ffffffffffffffffffffffffffffffffffffffff16815260200190815260200160002060040160006101000a81548173ffffffffffffffffffffffffffffffffffffffff021916908373ffffffffffffffffffffffffffffffffffffffff16021790555080600760006101000a81548173ffffffffffffffffffffffffffffffffffffffff021916908373ffffffffffffffffffffffffffffffffffffffff16021790555060066000815480929190620002f99062000548565b919050555050620005f9565b82805482825590600052602060002090810192821562000381579160200282015b82811115620003805782518260006101000a81548173ffffffffffffffffffffffffffffffffffffffff021916908373ffffffffffffffffffffffffffffffffffffffff1602179055509160200191906001019062000326565b5b50905062000390919062000425565b5090565b828054620003a290620005c4565b90600052602060002090601f016020900481019282620003c6576000855562000412565b82601f10620003e157805160ff191683800117855562000412565b8280016001018555821562000412579182015b8281111562000411578251825591602001919060010190620003f4565b5b50905062000421919062000425565b5090565b5b808211156200044057600081600090555060010162000426565b5090565b7f4e487b7100000000000000000000000000000000000000000000000000000000600052604160045260246000fd5b600080fd5b600073ffffffffffffffffffffffffffffffffffffffff82169050919050565b6000620004a58262000478565b9050919050565b620004b78162000498565b8114620004c357600080fd5b50565b600081519050620004d781620004ac565b92915050565b600060208284031215620004f657620004f562000473565b5b60006200050684828501620004c6565b91505092915050565b7f4e487b7100000000000000000000000000000000000000000000000000000000600052601160045260246000fd5b6000819050919050565b600062000555826200053e565b91507fffffffffffffffffffffffffffffffffffffffffffffffffffffffffffffffff82036200058a57620005896200050f565b5b600182019050919050565b7f4e487b7100000000000000000000000000000000000000000000000000000000600052602260045260246000fd5b60006002820490506001821680620005dd57607f821691505b602082108103620005f357620005f262000595565b5b50919050565b608051612b1c6200061c600039600081816109b40152610ed40152612b1c6000f3fe60806040526004361061012e5760003560e01c80636e861c0e116100ab578063d46c10201161006f578063d46c102014610402578063d61387741461043f578063dcb229201461046a578063ee38a749146104a7578063f53aa2e2146104e5578063f53b6d651461051057610135565b80636e861c0e1461033e578063c18a451314610367578063ca1d209d14610390578063cd76c7f1146103ac578063cd905dff146103d757610135565b8063110466ed116100f2578063110466ed1461025457806313b0633c1461027d57806317768682146102ba57806342bcb826146102ea57806367561d931461031557610135565b806301566ea01461013757806303ee4e561461017457806305b64e981461019d5780630c11dedd146101da5780630e248a111461021757610135565b3661013557005b005b34801561014357600080fd5b5061015e60048036038101906101599190611c2e565b61054d565b60405161016b9190611c76565b60405180910390f35b34801561018057600080fd5b5061019b60048036038101906101969190611e0d565b6105a4565b005b3480156101a957600080fd5b506101c460048036038101906101bf9190611c2e565b610756565b6040516101d19190611e78565b60405180910390f35b3480156101e657600080fd5b5061020160048036038101906101fc9190611c2e565b6107a2565b60405161020e9190611e78565b60405180910390f35b34801561022357600080fd5b5061023e60048036038101906102399190611c2e565b610959565b60405161024b9190611c76565b60405180910390f35b34801561026057600080fd5b5061027b60048036038101906102769190611ebf565b6109b2565b005b34801561028957600080fd5b506102a4600480360381019061029f9190611c2e565b610a5c565b6040516102b19190611c76565b60405180910390f35b6102d460048036038101906102cf9190611eec565b610b1c565b6040516102e19190611c76565b60405180910390f35b3480156102f657600080fd5b506102ff610e51565b60405161030c9190611f9a565b60405180910390f35b34801561032157600080fd5b5061033c60048036038101906103379190611c2e565b610e77565b005b34801561034a57600080fd5b5061036560048036038101906103609190611c2e565b610ed2565b005b34801561037357600080fd5b5061038e60048036038101906103899190611c2e565b610fb2565b005b6103aa60048036038101906103a59190611fb5565b610ffd565b005b3480156103b857600080fd5b506103c16112bd565b6040516103ce9190611e78565b60405180910390f35b3480156103e357600080fd5b506103ec6112c9565b6040516103f99190611c76565b60405180910390f35b34801561040e57600080fd5b5061042960048036038101906104249190611c2e565b6112df565b6040516104369190611c76565b60405180910390f35b34801561044b57600080fd5b50610454611348565b6040516104619190611e78565b60405180910390f35b34801561047657600080fd5b50610491600480360381019061048c9190611fb5565b611354565b60405161049e9190611ffb565b60405180910390f35b3480156104b357600080fd5b506104ce60048036038101906104c99190612016565b611378565b6040516104dc929190612072565b60405180910390f35b3480156104f157600080fd5b506104fa61165a565b6040516105079190611e78565b60405180910390f35b34801561051c57600080fd5b5061053760048036038101906105329190611c2e565b611660565b6040516105449190611c76565b60405180910390f35b6000678ac7230489e80000600160008473ffffffffffffffffffffffffffffffffffffffff1673ffffffffffffffffffffffffffffffffffffffff1681526020019081526020016000206001015410159050919050565b6000826040516020016105b79190612115565b6040516020818303038152906040528051906020012090506000805b60028054905081101561074f57600281815481106105f4576105f361212c565b5b906000526020600020015491508260046000848152602001908152602001600020600201540361073c5760006004600084815260200190815260200160002060000160009054906101000a900473ffffffffffffffffffffffffffffffffffffffff169050600060046000858152602001908152602001600020600101549050600061069c606461068e89856116ae90919063ffffffff16565b6116c490919063ffffffff16565b90506000600360008573ffffffffffffffffffffffffffffffffffffffff1673ffffffffffffffffffffffffffffffffffffffff16815260200190815260200160002060020154905081816106f1919061218a565b600360008673ffffffffffffffffffffffffffffffffffffffff1673ffffffffffffffffffffffffffffffffffffffff16815260200190815260200160002060020181905550505050505b8080610747906121e0565b9150506105d3565b5050505050565b6000600360008373ffffffffffffffffffffffffffffffffffffffff1673ffffffffffffffffffffffffffffffffffffffff168152602001908152602001600020600201549050919050565b60008060009054906101000a900460ff166107f2576040517f08c379a00000000000000000000000000000000000000000000000000000000081526004016107e9906122ab565b60405180910390fd5b600560003373ffffffffffffffffffffffffffffffffffffffff1673ffffffffffffffffffffffffffffffffffffffff16815260200190815260200160002060009054906101000a900460ff1661087e576040517f08c379a000000000000000000000000000000000000000000000000000000000815260040161087590612317565b60405180910390fd5b6000600360008473ffffffffffffffffffffffffffffffffffffffff1673ffffffffffffffffffffffffffffffffffffffff16815260200190815260200160002060020154905060008111610908576040517f08c379a00000000000000000000000000000000000000000000000000000000081526004016108ff906123cf565b60405180910390fd5b6000600360008573ffffffffffffffffffffffffffffffffffffffff1673ffffffffffffffffffffffffffffffffffffffff1681526020019081526020016000206002018190555080915050919050565b6000600160008373ffffffffffffffffffffffffffffffffffffffff1673ffffffffffffffffffffffffffffffffffffffff16815260200190815260200160002060000160009054906101000a900460ff169050919050565b7f000000000000000000000000000000000000000000000000000000000000000073ffffffffffffffffffffffffffffffffffffffff163373ffffffffffffffffffffffffffffffffffffffff1614610a40576040517f08c379a0000000000000000000000000000000000000000000000000000000008152600401610a3790612317565b60405180910390fd5b806000806101000a81548160ff02191690831515021790555050565b6000806000600160008573ffffffffffffffffffffffffffffffffffffffff1673ffffffffffffffffffffffffffffffffffffffff16815260200190815260200160002060000160009054906101000a900460ff1690506000678ac7230489e80000600160008773ffffffffffffffffffffffffffffffffffffffff1673ffffffffffffffffffffffffffffffffffffffff1681526020019081526020016000206001015410159050818015610b0f5750805b9250829350505050919050565b60008060009054906101000a900460ff16610b6c576040517f08c379a0000000000000000000000000000000000000000000000000000000008152600401610b63906122ab565b60405180910390fd5b670de0b6b3a7640000821015610bb7576040517f08c379a0000000000000000000000000000000000000000000000000000000008152600401610bae90612487565b60405180910390fd5b3073ffffffffffffffffffffffffffffffffffffffff166108fc349081150290604051600060405180830381858888f19350505050158015610bfd573d6000803e3d6000fd5b5082600360008573ffffffffffffffffffffffffffffffffffffffff1673ffffffffffffffffffffffffffffffffffffffff16815260200190815260200160002060000160006101000a81548173ffffffffffffffffffffffffffffffffffffffff021916908373ffffffffffffffffffffffffffffffffffffffff16021790555083600360008573ffffffffffffffffffffffffffffffffffffffff1673ffffffffffffffffffffffffffffffffffffffff1681526020019081526020016000206001019080519060200190610cd5929190611a8f565b5060008386604051602001610ceb9291906124ef565b604051602081830303815290604052805190602001209050600086604051602001610d169190612115565b604051602081830303815290604052805190602001209050846004600084815260200190815260200160002060000160006101000a81548173ffffffffffffffffffffffffffffffffffffffff021916908373ffffffffffffffffffffffffffffffffffffffff1602179055508060046000848152602001908152602001600020600201819055508360046000848152602001908152602001600020600101819055506000805b600280549050811015610e0b578360028281548110610ddf57610dde61212c565b5b906000526020600020015403610df85760019150610e0b565b8080610e03906121e0565b915050610dbd565b506000151581151503610e425760028390806001815401808255809150506001900390600052602060002001600090919091909150555b60019350505050949350505050565b600760009054906101000a900473ffffffffffffffffffffffffffffffffffffffff1681565b6001600560008373ffffffffffffffffffffffffffffffffffffffff1673ffffffffffffffffffffffffffffffffffffffff16815260200190815260200160002060006101000a81548160ff02191690831515021790555050565b7f000000000000000000000000000000000000000000000000000000000000000073ffffffffffffffffffffffffffffffffffffffff163373ffffffffffffffffffffffffffffffffffffffff1614610f60576040517f08c379a0000000000000000000000000000000000000000000000000000000008152600401610f5790612317565b60405180910390fd5b600560008273ffffffffffffffffffffffffffffffffffffffff1673ffffffffffffffffffffffffffffffffffffffff16815260200190815260200160002060006101000a81549060ff021916905550565b6000600360008373ffffffffffffffffffffffffffffffffffffffff1673ffffffffffffffffffffffffffffffffffffffff1681526020019081526020016000206002018190555050565b600160003373ffffffffffffffffffffffffffffffffffffffff1673ffffffffffffffffffffffffffffffffffffffff16815260200190815260200160002060000160009054906101000a900460ff1661108c576040517f08c379a0000000000000000000000000000000000000000000000000000000008152600401611083906125af565b60405180910390fd5b6000600160003373ffffffffffffffffffffffffffffffffffffffff1673ffffffffffffffffffffffffffffffffffffffff1681526020019081526020016000206001015414611111576040517f08c379a000000000000000000000000000000000000000000000000000000000815260040161110890612641565b60405180910390fd5b678ac7230489e8000081101561115c576040517f08c379a0000000000000000000000000000000000000000000000000000000008152600401611153906126f9565b60405180910390fd5b3073ffffffffffffffffffffffffffffffffffffffff166108fc829081150290604051600060405180830381858888f193505050501580156111a2573d6000803e3d6000fd5b506111f881600160003373ffffffffffffffffffffffffffffffffffffffff1673ffffffffffffffffffffffffffffffffffffffff168152602001908152602001600020600101546116da90919063ffffffff16565b600160003373ffffffffffffffffffffffffffffffffffffffff1673ffffffffffffffffffffffffffffffffffffffff168152602001908152602001600020600101819055507f7282685da06d9c48b8e68d171e7ccc1827b780effe4b7f235048a8ef963f1cb481600160003373ffffffffffffffffffffffffffffffffffffffff1673ffffffffffffffffffffffffffffffffffffffff168152602001908152602001600020600301336040516112b29392919061280e565b60405180910390a150565b670de0b6b3a764000081565b60008060009054906101000a900460ff16905090565b6000806112f860026006546116c490919063ffffffff16565b905080600160008573ffffffffffffffffffffffffffffffffffffffff1673ffffffffffffffffffffffffffffffffffffffff168152602001908152602001600020600201541015915050919050565b678ac7230489e8000081565b6002818154811061136457600080fd5b906000526020600020016000915090505481565b60008061138484610959565b156113c4576040517f08c379a00000000000000000000000000000000000000000000000000000000081526004016113bb906128be565b60405180910390fd5b60046006541061142d5760006113d9336116f0565b9050801561141c576040517f08c379a000000000000000000000000000000000000000000000000000000000815260040161141390612950565b60405180910390fd5b6114278585336117a4565b5061164c565b60018060008673ffffffffffffffffffffffffffffffffffffffff1673ffffffffffffffffffffffffffffffffffffffff16815260200190815260200160002060000160006101000a81548160ff02191690831515021790555082600160008673ffffffffffffffffffffffffffffffffffffffff1673ffffffffffffffffffffffffffffffffffffffff16815260200190815260200160002060030190805190602001906114dd929190611a8f565b5083600160008673ffffffffffffffffffffffffffffffffffffffff1673ffffffffffffffffffffffffffffffffffffffff16815260200190815260200160002060040160006101000a81548173ffffffffffffffffffffffffffffffffffffffff021916908373ffffffffffffffffffffffffffffffffffffffff1602179055506115b460018060008773ffffffffffffffffffffffffffffffffffffffff1673ffffffffffffffffffffffffffffffffffffffff168152602001908152602001600020600201546116da90919063ffffffff16565b600160008673ffffffffffffffffffffffffffffffffffffffff1673ffffffffffffffffffffffffffffffffffffffff168152602001908152602001600020600201819055506006600081548092919061160d906121e0565b91905055507f234fea0fa5d0d6371abc6364829e96136d182d801277bb7a58f860410b3a7eae84846040516116439291906129a9565b60405180910390a15b816000915091509250929050565b60065481565b600080600160008473ffffffffffffffffffffffffffffffffffffffff1673ffffffffffffffffffffffffffffffffffffffff16815260200190815260200160002060010154119050919050565b600081836116bc91906129d9565b905092915050565b600081836116d29190612a62565b905092915050565b600081836116e8919061218a565b905092915050565b6000806000905060005b600880549050811015611799578373ffffffffffffffffffffffffffffffffffffffff16600882815481106117325761173161212c565b5b9060005260206000200160009054906101000a900473ffffffffffffffffffffffffffffffffffffffff1673ffffffffffffffffffffffffffffffffffffffff16036117865760019150819250505061179f565b8080611791906121e0565b9150506116fa565b50809150505b919050565b6117f960018060008673ffffffffffffffffffffffffffffffffffffffff1673ffffffffffffffffffffffffffffffffffffffff168152602001908152602001600020600201546116da90919063ffffffff16565b600160008573ffffffffffffffffffffffffffffffffffffffff1673ffffffffffffffffffffffffffffffffffffffff16815260200190815260200160002060020181905550600061185760026006546116c490919063ffffffff16565b90506000600160008673ffffffffffffffffffffffffffffffffffffffff1673ffffffffffffffffffffffffffffffffffffffff168152602001908152602001600020600201549050818103611a0a5760018060008773ffffffffffffffffffffffffffffffffffffffff1673ffffffffffffffffffffffffffffffffffffffff16815260200190815260200160002060000160006101000a81548160ff02191690831515021790555083600160008773ffffffffffffffffffffffffffffffffffffffff1673ffffffffffffffffffffffffffffffffffffffff1681526020019081526020016000206003019080519060200190611957929190611a8f565b506006600081548092919061196b906121e0565b9190505550600067ffffffffffffffff81111561198b5761198a611cac565b5b6040519080825280602002602001820160405280156119b95781602001602082028036833780820191505090505b50600890805190602001906119cf929190611b15565b507f234fea0fa5d0d6371abc6364829e96136d182d801277bb7a58f860410b3a7eae8585604051611a019291906129a9565b60405180910390a15b7fa35fba70b0ffe23a8a27fe549e3dca48c0a9f342c242dc2fc7e235b795b9730183600160008673ffffffffffffffffffffffffffffffffffffffff1673ffffffffffffffffffffffffffffffffffffffff1681526020019081526020016000206003018787604051611a809493929190612a93565b60405180910390a15050505050565b828054611a9b90612748565b90600052602060002090601f016020900481019282611abd5760008555611b04565b82601f10611ad657805160ff1916838001178555611b04565b82800160010185558215611b04579182015b82811115611b03578251825591602001919060010190611ae8565b5b509050611b119190611b9f565b5090565b828054828255906000526020600020908101928215611b8e579160200282015b82811115611b8d5782518260006101000a81548173ffffffffffffffffffffffffffffffffffffffff021916908373ffffffffffffffffffffffffffffffffffffffff16021790555091602001919060010190611b35565b5b509050611b9b9190611b9f565b5090565b5b80821115611bb8576000816000905550600101611ba0565b5090565b6000604051905090565b600080fd5b600080fd5b600073ffffffffffffffffffffffffffffffffffffffff82169050919050565b6000611bfb82611bd0565b9050919050565b611c0b81611bf0565b8114611c1657600080fd5b50565b600081359050611c2881611c02565b92915050565b600060208284031215611c4457611c43611bc6565b5b6000611c5284828501611c19565b91505092915050565b60008115159050919050565b611c7081611c5b565b82525050565b6000602082019050611c8b6000830184611c67565b92915050565b600080fd5b600080fd5b6000601f19601f8301169050919050565b7f4e487b7100000000000000000000000000000000000000000000000000000000600052604160045260246000fd5b611ce482611c9b565b810181811067ffffffffffffffff82111715611d0357611d02611cac565b5b80604052505050565b6000611d16611bbc565b9050611d228282611cdb565b919050565b600067ffffffffffffffff821115611d4257611d41611cac565b5b611d4b82611c9b565b9050602081019050919050565b82818337600083830152505050565b6000611d7a611d7584611d27565b611d0c565b905082815260208101848484011115611d9657611d95611c96565b5b611da1848285611d58565b509392505050565b600082601f830112611dbe57611dbd611c91565b5b8135611dce848260208601611d67565b91505092915050565b6000819050919050565b611dea81611dd7565b8114611df557600080fd5b50565b600081359050611e0781611de1565b92915050565b60008060408385031215611e2457611e23611bc6565b5b600083013567ffffffffffffffff811115611e4257611e41611bcb565b5b611e4e85828601611da9565b9250506020611e5f85828601611df8565b9150509250929050565b611e7281611dd7565b82525050565b6000602082019050611e8d6000830184611e69565b92915050565b611e9c81611c5b565b8114611ea757600080fd5b50565b600081359050611eb981611e93565b92915050565b600060208284031215611ed557611ed4611bc6565b5b6000611ee384828501611eaa565b91505092915050565b60008060008060808587031215611f0657611f05611bc6565b5b600085013567ffffffffffffffff811115611f2457611f23611bcb565b5b611f3087828801611da9565b945050602085013567ffffffffffffffff811115611f5157611f50611bcb565b5b611f5d87828801611da9565b9350506040611f6e87828801611c19565b9250506060611f7f87828801611df8565b91505092959194509250565b611f9481611bf0565b82525050565b6000602082019050611faf6000830184611f8b565b92915050565b600060208284031215611fcb57611fca611bc6565b5b6000611fd984828501611df8565b91505092915050565b6000819050919050565b611ff581611fe2565b82525050565b60006020820190506120106000830184611fec565b92915050565b6000806040838503121561202d5761202c611bc6565b5b600061203b85828601611c19565b925050602083013567ffffffffffffffff81111561205c5761205b611bcb565b5b61206885828601611da9565b9150509250929050565b60006040820190506120876000830185611c67565b6120946020830184611e69565b9392505050565b600081519050919050565b600081905092915050565b60005b838110156120cf5780820151818401526020810190506120b4565b838111156120de576000848401525b50505050565b60006120ef8261209b565b6120f981856120a6565b93506121098185602086016120b1565b80840191505092915050565b600061212182846120e4565b915081905092915050565b7f4e487b7100000000000000000000000000000000000000000000000000000000600052603260045260246000fd5b7f4e487b7100000000000000000000000000000000000000000000000000000000600052601160045260246000fd5b600061219582611dd7565b91506121a083611dd7565b9250827fffffffffffffffffffffffffffffffffffffffffffffffffffffffffffffffff038211156121d5576121d461215b565b5b828201905092915050565b60006121eb82611dd7565b91507fffffffffffffffffffffffffffffffffffffffffffffffffffffffffffffffff820361221d5761221c61215b565b5b600182019050919050565b600082825260208201905092915050565b7f436f6e74726163742069732063757272656e746c79206e6f74206f706572617460008201527f696f6e616c000000000000000000000000000000000000000000000000000000602082015250565b6000612295602583612228565b91506122a082612239565b604082019050919050565b600060208201905081810360008301526122c481612288565b9050919050565b7f43616c6c6572206973206e6f7420636f6e7472616374206f776e657200000000600082015250565b6000612301601c83612228565b915061230c826122cb565b602082019050919050565b60006020820190508181036000830152612330816122f4565b9050919050565b7f494e53554646494349454e542043524544495420414d4f554e543a20596f752060008201527f646f6e7420686176652073756666696365696e742063726564697420746f207760208201527f6974686472617700000000000000000000000000000000000000000000000000604082015250565b60006123b9604783612228565b91506123c482612337565b606082019050919050565b600060208201905081810360008301526123e8816123ac565b9050919050565b7f494e53554646494349454e5420414d4f554e543a204d696e696d756d2070726960008201527f636520666f7220666c6967687420696e737572616e636520697320312065746860208201527f6572000000000000000000000000000000000000000000000000000000000000604082015250565b6000612471604283612228565b915061247c826123ef565b606082019050919050565b600060208201905081810360008301526124a081612464565b9050919050565b60008160601b9050919050565b60006124bf826124a7565b9050919050565b60006124d1826124b4565b9050919050565b6124e96124e482611bf0565b6124c6565b82525050565b60006124fb82856124d8565b60148201915061250b82846120e4565b91508190509392505050565b7f46554e44494e47204245464f524520524547495354524154494f4e3a20506c6560008201527f61736520656e73757265206169726c696e65206973207265676973746572656460208201527f206265666f726520706179696e6720736565642066756e640000000000000000604082015250565b6000612599605883612228565b91506125a482612517565b606082019050919050565b600060208201905081810360008301526125c88161258c565b9050919050565b7f444f55424c45205041594d454e5420415454454d50543a205468616e6b20796f60008201527f752c2062757420796f752063616e206f6e6c7920706179206f6e63652e000000602082015250565b600061262b603d83612228565b9150612636826125cf565b604082019050919050565b6000602082019050818103600083015261265a8161261e565b9050919050565b7f494e53554646494349454e5420414d4f554e543a20506c6561736520656e737560008201527f726520746f206d65657420746865206d696e696d756d20616d6f756e74206f6660208201527f20313020657468657220666f722074686520736565642066756e640000000000604082015250565b60006126e3605b83612228565b91506126ee82612661565b606082019050919050565b60006020820190508181036000830152612712816126d6565b9050919050565b7f4e487b7100000000000000000000000000000000000000000000000000000000600052602260045260246000fd5b6000600282049050600182168061276057607f821691505b60208210810361277357612772612719565b5b50919050565b60008190508160005260206000209050919050565b6000815461279b81612748565b6127a58186612228565b945060018216600081146127c057600181146127d257612805565b60ff1983168652602086019350612805565b6127db85612779565b60005b838110156127fd578154818901526001820191506020810190506127de565b808801955050505b50505092915050565b60006060820190506128236000830186611e69565b8181036020830152612835818561278e565b90506128446040830184611f8b565b949350505050565b7f4149524c494e4520414c52454144592045584953543a20506c6561736520726560008201527f6769737465722061206e6577206169726c696e65000000000000000000000000602082015250565b60006128a8603483612228565b91506128b38261284c565b604082019050919050565b600060208201905081810360008301526128d78161289b565b9050919050565b7f444f55424c4520564f54494e473a20566f746572206973206f6e6c7920616c6c60008201527f6f77656420746f2063617374203120766f74652e000000000000000000000000602082015250565b600061293a603483612228565b9150612945826128de565b604082019050919050565b600060208201905081810360008301526129698161292d565b9050919050565b600061297b8261209b565b6129858185612228565b93506129958185602086016120b1565b61299e81611c9b565b840191505092915050565b60006040820190506129be6000830185611f8b565b81810360208301526129d08184612970565b90509392505050565b60006129e482611dd7565b91506129ef83611dd7565b9250817fffffffffffffffffffffffffffffffffffffffffffffffffffffffffffffffff0483118215151615612a2857612a2761215b565b5b828202905092915050565b7f4e487b7100000000000000000000000000000000000000000000000000000000600052601260045260246000fd5b6000612a6d82611dd7565b9150612a7883611dd7565b925082612a8857612a87612a33565b5b828204905092915050565b6000608082019050612aa86000830187611f8b565b8181036020830152612aba818661278e565b9050612ac96040830185611f8b565b8181036060830152612adb8184612970565b90509594505050505056fea26469706673582212203c999065af7c3c787dcd2b828135ea7d75a37a1e55fcf0e385e948a4b0a7054d64736f6c634300080e0033",
  "immutableReferences": {
    "1297": [
      {
        "length": 32,
        "start": 2484
      },
      {
        "length": 32,
        "start": 3796
      }
    ]
  },
  "source": "// SPDX-License-Identifier: MIT\npragma solidity ^0.8.9;\n\nimport \"@openzeppelin/contracts/utils/math/SafeMath.sol\";\n\ncontract FlightSuretyData {\n    using SafeMath for uint256;\n\n    // TODO: prefix all storage variables with s_\n    // TODO: replace require statements with revert statement\n    // TODO: create custom error messages\n    // TODO: reduce reading frequency from global variables\n    // TODO: make variables constant wherever possible.\n    // TODO: capitalize struct names\n    // TODO: implement re-entrancy guard\n    // TODO: implement rate-limiting guard\n    // TODO: go over security best practices.\n\n\n    /********************************************************************************************/\n    /*                                       DATA VARIABLES                                     */\n    /********************************************************************************************/\n    // address private firstAirline;                                       // Account of first airline deployed with contract\n    address private immutable i_contractOwner;                                      // Account used to deploy contract\n    bool private operational = true;                                    // Blocks all state changes throughout the contract if false\n    \n    struct airlineInfo{\n        bool isRegistered;\n        uint256 seedFund;\n        uint256 votes;\n        string name;\n        address airlineAddress;\n    }\n    mapping (address => airlineInfo) airlines;\n\n\n    // Track Passengers Insurance \n    struct Passenger {\n        address passengersAddress;\n        string name;\n        uint256 credit;\n    }\n\n    // Track Insured Flights\n    struct FlightInsurance {\n        address passenger;\n        uint256 insuranceAmount;\n        bytes32 flightKey; \n    }\n\n    // Used to Map Flights to Passengers with Insurance \n    bytes32[] public flightToPassengersKeys;\n\n    mapping (address => Passenger) private s_passengers;\n    mapping (bytes32 => FlightInsurance) private s_flightInsurances;\n\n    uint public constant MINIMUM_SEED_FUND = 10 ether;\n    uint public constant MIN_FLIGHT_INSURANCE_PRICE = 1 ether;\n    mapping(address => bool) private authorizedContracts;\n    uint256 public registeredAirlinesCount;\n    address public firstAirlineAddress;\n\n\n    address[] private _voters = new address[](0);\n    uint constant MULTIPARTY_THRESHOLD = 4;\n\n    /********************************************************************************************/\n    /*                                       EVENT DEFINITIONS                                  */\n    /********************************************************************************************/\n\n    event HasPayedSeedFund(uint amount, string airlineName, address airlineAddress);\n    event RegisteredNewAirline(address newAirline, string name);\n    event CastVote(address voterAddress, string voterName, address voteeAddress, string voteeName );\n    event FlightInsured(string flight, uint256 insuranceAmount);\n \n\n    /**\n    * @dev Constructor\n    *      The deploying account becomes contractOwner\n    */\n    constructor ( address firstAirline) \n    {\n        i_contractOwner = msg.sender;\n\n    \n\n        // Initialize first airline\n        airlines[firstAirline].isRegistered = true;\n        airlines[firstAirline].seedFund = 10 ether; // Change to 0 in order to make test pass\n        airlines[firstAirline].name = 'Arik Airways';\n        airlines[firstAirline].airlineAddress = firstAirline;\n\n        firstAirlineAddress = firstAirline;\n\n        registeredAirlinesCount++;\n    }\n\n    /********************************************************************************************/\n    /*                                       FUNCTION MODIFIERS                                 */\n    /********************************************************************************************/\n\n    // Modifiers help avoid duplication of code. They are typically used to validate something\n    // before a function is allowed to be executed.\n\n    /**\n    * @dev Modifier that requires the \"operational\" boolean variable to be \"true\"\n    *      This is used on all state changing functions to pause the contract in \n    *      the event there is an issue that needs to be fixed\n    */\n    modifier requireIsOperational() \n    {\n        require(operational, \"Contract is currently not operational\");\n        _;  // All modifiers require an \"_\" which indicates where the function body will be added\n    }\n\n    /**\n    * @dev Modifier that requires the \"ContractOwner\" account to be the function caller\n    */\n    modifier requireContractOwner()\n    {\n        require(msg.sender == i_contractOwner, \"Caller is not contract owner\");\n        _;\n    }\n    modifier requireIsAuthorizedCaller()\n    {\n        require(authorizedContracts[msg.sender], \"Caller is not contract owner\");\n        _;\n    }\n\n    \n\n    /********************************************************************************************/\n    /*                                       UTILITY FUNCTIONS                                  */\n    /********************************************************************************************/\n\n    /**\n    * @dev Get operating status of contract\n    *\n    * @return A bool that is the current operating status\n    */      \n    function isOperational() \n                            external \n                            view \n                            returns(bool) \n    {\n        return operational;\n    }\n\n    function isAirline(address airline) public view  returns (bool){\n        return airlines[airline].isRegistered;\n    }\n\n    function isAirlineFunded(address airline) external view returns(bool){\n        return airlines[airline].seedFund > 0;\n    }\n\n\n    /**\n    * @dev Check if airline has paid seed fund\n    *\n    * @return A bool if seedFund amount is greater than initial value of 0\n    */  \n    function hasPaidSeedFund ( address airline) public view returns (bool){\n        return airlines[airline].seedFund >= MINIMUM_SEED_FUND; \n    }\n\n    /**\n    * @dev Sets contract operations on/off\n    *\n    * When operational mode is disabled, all write transactions except for this one will fail\n    */    \n    function setOperatingStatus\n                            (\n                                bool mode\n                            ) \n                            external\n                            requireContractOwner \n    {\n        operational = mode;\n    }\n\n    function authorizeContract (address contractAddress) external {\n        authorizedContracts[contractAddress] = true;\n    }\n\n    function deauthorizeContract (address contractAddress) external requireContractOwner {\n        delete authorizedContracts[contractAddress];\n    }\n\n\n    function checkDuplicateVotes(address voter) internal view returns (bool){\n        bool isDuplicate = false;\n        for(uint c=0; c<_voters.length; c++) {\n            if (_voters[c] == voter) {\n                isDuplicate = true;\n                return isDuplicate;\n            }\n        }\n        return isDuplicate;\n    }\n\n    function voteForAirline(address newAirline, string memory _name, address voter) internal {\n\n\n        // Increment votes field for airline about to be registered.\n        airlines[newAirline].votes = airlines[newAirline].votes.add(1);\n\n         // Get minimum voters for consensus (50% of registered airlines)\n        uint minimumVotersRequired = registeredAirlinesCount.div(2);\n        uint votesReceived = airlines[newAirline].votes;\n\n        if ( votesReceived == minimumVotersRequired) {\n            airlines[newAirline].isRegistered = true;\n            airlines[newAirline].name = _name;\n\n            registeredAirlinesCount++;\n\n            // Reset voters after successfully registering a new airline;\n            _voters = new address[](0);   \n\n            // Emit event when new airline is registered\n            emit RegisteredNewAirline(newAirline, _name);   \n        }\n\n        // Emit event after every vote showing which airline voted.\n        emit CastVote(voter,airlines[voter].name,newAirline, _name);\n\n    }\n\n    function airlineHasReachedConsensus(address airline) external view returns(bool) {\n        uint256 numberOfRequiredVotes = registeredAirlinesCount.div(2); \n        return airlines[airline].votes >= numberOfRequiredVotes;\n    }\n\n\n    function isAirlineActive(address airline) external view returns (bool){\n        bool state;\n\n        bool isRegistered = airlines[airline].isRegistered;\n        bool isFunded = airlines[airline].seedFund >= MINIMUM_SEED_FUND;\n\n        state = isRegistered && isFunded;\n\n        return state;\n    }\n\n    function getFlightKey (\n         address airline, \n        string memory flight, \n        uint256 timestamp\n        ) pure internal returns(bytes32) {\n             return keccak256(abi.encodePacked(airline, flight, timestamp));\n    }\n\n    function getPassengerCredit(address passengerAddress) external view returns(uint256){\n        return s_passengers[passengerAddress].credit;\n    }\n\n    function clearPassengerCredit(address passengerAddress) external {\n        s_passengers[passengerAddress].credit = 0;\n    }\n\n\n    /********************************************************************************************/\n    /*                                     SMART CONTRACT FUNCTIONS                             */\n    /********************************************************************************************/\n\n   /**\n    * @dev Add an airline to the registration queue\n    *      Can only be called from FlightSuretyApp contract\n    *\n    */   \n    // Function writes to the state hence, remains in the data contract.\n    function registerAirline ( address newAirline, string memory _name ) external  returns (bool success, uint256 votes) {\n\n        // Confirm msg.sender is not trying to register an airline more than once\n        require(!isAirline(newAirline), \"AIRLINE ALREADY EXIST: Please register a new airline\");\n\n\n        // Use multiparty consensus if registered airlines reaches 4: 50% vote is required from registered user to approve registering new airline. \n        if(registeredAirlinesCount >= MULTIPARTY_THRESHOLD){\n            \n        // Check for duplicate vote by an airline (msg.sender).\n        bool isDuplicate = checkDuplicateVotes(msg.sender);\n        \n        require(!isDuplicate, \"DOUBLE VOTING: Voter is only allowed to cast 1 vote.\");\n\n        // Emit event to tell front-end the airline that recently voted\n\n\n        // Atleast 50% of registered airlines should vote to register airline\n        voteForAirline(newAirline, _name,msg.sender);\n\n       \n        }else{\n        \n        // Register airline\n        airlines[newAirline].isRegistered = true;\n        airlines[newAirline].name = _name;\n        airlines[newAirline].airlineAddress = newAirline;\n        airlines[newAirline].votes = airlines[newAirline].votes.add(1);\n\n        // Keep track of registered airlines by incrementing on each successful registration\n        registeredAirlinesCount++;\n\n        emit RegisteredNewAirline(newAirline, _name);\n        }\n\n\n        return (success, 0);\n    }\n\n\n\n   /**\n    * @dev Buy insurance for a flight\n    *\n    */   \n    // \n    function buyInsurance ( string memory _flight, string memory passengerName, address passengerAddress, uint256 _insuranceAmount ) external requireIsOperational payable returns(bool) {\n\n        // Passenger cannot buy insurance for the same flight more than once.\n\n\n        // Passengers may pay up to 1 ether for purchasing flight insurance\n        require(_insuranceAmount >= MIN_FLIGHT_INSURANCE_PRICE,\"INSUFFICIENT AMOUNT: Minimum price for flight insurance is 1 ether\");\n\n        // Transfer payment to DAO\n        payable(address(this)).transfer(msg.value);\n\n\n        // Setup Passenger - Use Later to credit them\n        s_passengers[passengerAddress].passengersAddress = passengerAddress;\n        s_passengers[passengerAddress].name = passengerName;\n\n        // Setup Flight Insurance Mapping to Passenger\n        bytes32 key = keccak256(abi.encodePacked(passengerAddress, _flight));\n        bytes32 flightKey = keccak256(abi.encodePacked(_flight));\n\n        s_flightInsurances[key].passenger = passengerAddress;\n        s_flightInsurances[key].flightKey = flightKey;\n        s_flightInsurances[key].insuranceAmount = _insuranceAmount;\n\n        // Checks array to see if hashed value of passengerAddress and flight exist.\n        bool keyFound = false;\n        for (uint i; i < flightToPassengersKeys.length; i++) {\n            if (flightToPassengersKeys[i] == key) {\n                keyFound = true;\n                break;\n            }\n        }\n\n        // If the key is not found, then it must be a new key, hence, pushed into the array.\n        if (keyFound == false) {\n            flightToPassengersKeys.push(key);\n        }\n\n        return(true);\n    }\n\n    /**\n     *  @dev Credits payouts to insurees\n    */\n    function creditInsuree ( string memory _flight, uint256 creditAmount) external {\n\n\n        // has the flight\n        bytes32 flightKey = keccak256(abi.encodePacked(_flight));\n\n        // var for storing array items of flightToPassengersKeys (hashed values of passengerAddress and flight)\n        bytes32 key;\n\n        for (uint i; i < flightToPassengersKeys.length; i++) {\n\n            key = flightToPassengersKeys[i];\n\n\n            if (s_flightInsurances[key].flightKey == flightKey) {\n                address passengerAddress = s_flightInsurances[key].passenger;\n                uint256 insuranceAmount = s_flightInsurances[key].insuranceAmount;\n\n                // Credit passenger with insurance payout \n                uint256 insuranceAmountBenefit =insuranceAmount.mul(creditAmount).div(100);\n                uint256 currentCredit = s_passengers[passengerAddress].credit;\n                s_passengers[passengerAddress].credit = currentCredit + insuranceAmountBenefit;\n            }\n        }\n    }\n    \n\n    /**\n     *  @dev Transfers eligible payout funds to insuree\n        This function transfers the funds accumulated for the passenger\n     *\n    */\n    function pay(address passengerAddress) external requireIsOperational requireIsAuthorizedCaller returns(uint256){\n\n        // fetch payout amount - passengers.credit\n        uint256 currentCredit = s_passengers[passengerAddress].credit;\n\n        // require that credit amount is greater than 0\n        require(currentCredit > 0, 'INSUFFICIENT CREDIT AMOUNT: You dont have sufficeint credit to withdraw');\n\n        // deduct amount to be payed out from the credit balance first\n        s_passengers[passengerAddress].credit = 0;\n\n        return currentCredit;\n    }\n\n   /**\n    * @dev Initial funding for the insurance. Unless there are too many delayed flights\n    *      resulting in insurance payouts, the contract should be self-sustaining\n    *\n    */   \n    function fund (uint value) external payable {\n\n        // Require that an airline needs to be registered before paying seed fund.\n        require(airlines[msg.sender].isRegistered,\"FUNDING BEFORE REGISTRATION: Please ensure airline is registered before paying seed fund\");\n\n        // Require that an airline doesn't pay for seed funds more than once.\n        require(airlines[msg.sender].seedFund == 0,\"DOUBLE PAYMENT ATTEMPT: Thank you, but you can only pay once.\");\n\n        require(value >= MINIMUM_SEED_FUND,\"INSUFFICIENT AMOUNT: Please ensure to meet the minimum amount of 10 ether for the seed fund\");\n\n        // Transfer value to contract balance\n        payable(address(this)).transfer(value);\n\n        // Set amount paid by airline.\n        airlines[msg.sender].seedFund = airlines[msg.sender].seedFund.add(value);\n\n        // emit event for successful payment\n        emit HasPayedSeedFund(value,airlines[msg.sender].name,msg.sender);\n    }\n\n\n    /**\n    * @dev Fallback function for funding smart contract.\n    *\n    */\n    fallback() external payable {\n        // fund();\n    }\n\n    receive() external payable { \n        // custom function code\n        // fund();\n    }\n\n\n}\n\n",
  "sourcePath": "/Users/apple/Documents/personal/tutorials/ethereum/flightSuretyDApp/contracts/flightSuretyData.sol",
  "compiler": {
    "name": "solc",
    "version": "0.8.14+commit.80d49f37.Emscripten.clang"
  },
  "schemaVersion": "3.4.7",
  "updatedAt": "2022-05-23T07:38:21.398Z",
  "networkType": "ethereum",
  "devdoc": {
    "kind": "dev",
    "methods": {
      "buyInsurance(string,string,address,uint256)": {
        "details": "Buy insurance for a flight"
      },
      "constructor": {
        "details": "Constructor      The deploying account becomes contractOwner"
      },
      "creditInsuree(string,uint256)": {
        "details": "Credits payouts to insurees"
      },
      "fund(uint256)": {
        "details": "Initial funding for the insurance. Unless there are too many delayed flights      resulting in insurance payouts, the contract should be self-sustaining"
      },
      "hasPaidSeedFund(address)": {
        "details": "Check if airline has paid seed fund",
        "returns": {
          "_0": "A bool if seedFund amount is greater than initial value of 0"
        }
      },
      "isOperational()": {
        "details": "Get operating status of contract",
        "returns": {
          "_0": "A bool that is the current operating status"
        }
      },
      "pay(address)": {
        "details": "Transfers eligible payout funds to insuree This function transfers the funds accumulated for the passenger"
      },
      "registerAirline(address,string)": {
        "details": "Add an airline to the registration queue      Can only be called from FlightSuretyApp contract"
      },
      "setOperatingStatus(bool)": {
        "details": "Sets contract operations on/off When operational mode is disabled, all write transactions except for this one will fail"
      }
    },
    "version": 1
  },
  "userdoc": {
    "kind": "user",
    "methods": {},
    "version": 1
  }
}