{
  "contractName": "FlightSuretyData",
  "abi": [
    {
      "inputs": [
        {
          "internalType": "address",
          "name": "firstAirline",
          "type": "address"
        }
      ],
      "stateMutability": "nonpayable",
      "type": "constructor"
    },
    {
      "anonymous": false,
      "inputs": [
        {
          "indexed": false,
          "internalType": "address",
          "name": "voterAddress",
          "type": "address"
        },
        {
          "indexed": false,
          "internalType": "string",
          "name": "voterName",
          "type": "string"
        },
        {
          "indexed": false,
          "internalType": "address",
          "name": "voteeAddress",
          "type": "address"
        },
        {
          "indexed": false,
          "internalType": "string",
          "name": "voteeName",
          "type": "string"
        }
      ],
      "name": "CastVote",
      "type": "event"
    },
    {
      "anonymous": false,
      "inputs": [
        {
          "indexed": false,
          "internalType": "string",
          "name": "flight",
          "type": "string"
        },
        {
          "indexed": false,
          "internalType": "uint256",
          "name": "insuranceAmount",
          "type": "uint256"
        }
      ],
      "name": "FlightInsured",
      "type": "event"
    },
    {
      "anonymous": false,
      "inputs": [
        {
          "indexed": false,
          "internalType": "uint256",
          "name": "amount",
          "type": "uint256"
        },
        {
          "indexed": false,
          "internalType": "string",
          "name": "airlineName",
          "type": "string"
        },
        {
          "indexed": false,
          "internalType": "address",
          "name": "airlineAddress",
          "type": "address"
        }
      ],
      "name": "HasPayedSeedFund",
      "type": "event"
    },
    {
      "anonymous": false,
      "inputs": [
        {
          "indexed": false,
          "internalType": "address",
          "name": "newAirline",
          "type": "address"
        },
        {
          "indexed": false,
          "internalType": "string",
          "name": "name",
          "type": "string"
        }
      ],
      "name": "RegisteredNewAirline",
      "type": "event"
    },
    {
      "inputs": [],
      "name": "MINIMUM_SEED_FUND",
      "outputs": [
        {
          "internalType": "uint256",
          "name": "",
          "type": "uint256"
        }
      ],
      "stateMutability": "view",
      "type": "function",
      "constant": true
    },
    {
      "inputs": [],
      "name": "MIN_FLIGHT_INSURANCE_PRICE",
      "outputs": [
        {
          "internalType": "uint256",
          "name": "",
          "type": "uint256"
        }
      ],
      "stateMutability": "view",
      "type": "function",
      "constant": true
    },
    {
      "inputs": [],
      "name": "firstAirlineAddress",
      "outputs": [
        {
          "internalType": "address",
          "name": "",
          "type": "address"
        }
      ],
      "stateMutability": "view",
      "type": "function",
      "constant": true
    },
    {
      "inputs": [
        {
          "internalType": "uint256",
          "name": "",
          "type": "uint256"
        }
      ],
      "name": "flightToPassengersKeys",
      "outputs": [
        {
          "internalType": "bytes32",
          "name": "",
          "type": "bytes32"
        }
      ],
      "stateMutability": "view",
      "type": "function",
      "constant": true
    },
    {
      "inputs": [],
      "name": "registeredAirlinesCount",
      "outputs": [
        {
          "internalType": "uint256",
          "name": "",
          "type": "uint256"
        }
      ],
      "stateMutability": "view",
      "type": "function",
      "constant": true
    },
    {
      "stateMutability": "payable",
      "type": "receive",
      "payable": true
    },
    {
      "inputs": [],
      "name": "isOperational",
      "outputs": [
        {
          "internalType": "bool",
          "name": "",
          "type": "bool"
        }
      ],
      "stateMutability": "view",
      "type": "function",
      "constant": true
    },
    {
      "inputs": [
        {
          "internalType": "address",
          "name": "airline",
          "type": "address"
        }
      ],
      "name": "isAirline",
      "outputs": [
        {
          "internalType": "bool",
          "name": "",
          "type": "bool"
        }
      ],
      "stateMutability": "view",
      "type": "function",
      "constant": true
    },
    {
      "inputs": [
        {
          "internalType": "address",
          "name": "airline",
          "type": "address"
        }
      ],
      "name": "isAirlineFunded",
      "outputs": [
        {
          "internalType": "bool",
          "name": "",
          "type": "bool"
        }
      ],
      "stateMutability": "view",
      "type": "function",
      "constant": true
    },
    {
      "inputs": [
        {
          "internalType": "address",
          "name": "airline",
          "type": "address"
        }
      ],
      "name": "hasPaidSeedFund",
      "outputs": [
        {
          "internalType": "bool",
          "name": "",
          "type": "bool"
        }
      ],
      "stateMutability": "view",
      "type": "function",
      "constant": true
    },
    {
      "inputs": [
        {
          "internalType": "bool",
          "name": "mode",
          "type": "bool"
        }
      ],
      "name": "setOperatingStatus",
      "outputs": [],
      "stateMutability": "nonpayable",
      "type": "function"
    },
    {
      "inputs": [
        {
          "internalType": "address",
          "name": "contractAddress",
          "type": "address"
        }
      ],
      "name": "deauthorizeContract",
      "outputs": [],
      "stateMutability": "nonpayable",
      "type": "function"
    },
    {
      "inputs": [
        {
          "internalType": "address",
          "name": "contractAddress",
          "type": "address"
        }
      ],
      "name": "authorizeContract",
      "outputs": [],
      "stateMutability": "nonpayable",
      "type": "function"
    },
    {
      "inputs": [
        {
          "internalType": "address",
          "name": "contractAddress",
          "type": "address"
        }
      ],
      "name": "isAuthorizedCaller",
      "outputs": [
        {
          "internalType": "bool",
          "name": "",
          "type": "bool"
        }
      ],
      "stateMutability": "view",
      "type": "function",
      "constant": true
    },
    {
      "inputs": [
        {
          "internalType": "address",
          "name": "airline",
          "type": "address"
        }
      ],
      "name": "airlineHasReachedConsensus",
      "outputs": [
        {
          "internalType": "bool",
          "name": "",
          "type": "bool"
        }
      ],
      "stateMutability": "view",
      "type": "function",
      "constant": true
    },
    {
      "inputs": [
        {
          "internalType": "address",
          "name": "airline",
          "type": "address"
        }
      ],
      "name": "isAirlineActive",
      "outputs": [
        {
          "internalType": "bool",
          "name": "",
          "type": "bool"
        }
      ],
      "stateMutability": "view",
      "type": "function",
      "constant": true
    },
    {
      "inputs": [
        {
          "internalType": "address",
          "name": "passengerAddress",
          "type": "address"
        }
      ],
      "name": "getPassengerCredit",
      "outputs": [
        {
          "internalType": "uint256",
          "name": "",
          "type": "uint256"
        }
      ],
      "stateMutability": "view",
      "type": "function",
      "constant": true
    },
    {
      "inputs": [
        {
          "internalType": "address",
          "name": "passengerAddress",
          "type": "address"
        }
      ],
      "name": "clearPassengerCredit",
      "outputs": [],
      "stateMutability": "nonpayable",
      "type": "function"
    },
    {
      "inputs": [
        {
          "internalType": "address",
          "name": "newAirline",
          "type": "address"
        },
        {
          "internalType": "string",
          "name": "_name",
          "type": "string"
        }
      ],
      "name": "registerAirline",
      "outputs": [
        {
          "internalType": "bool",
          "name": "success",
          "type": "bool"
        },
        {
          "internalType": "uint256",
          "name": "votes",
          "type": "uint256"
        }
      ],
      "stateMutability": "nonpayable",
      "type": "function"
    },
    {
      "inputs": [
        {
          "internalType": "string",
          "name": "_flight",
          "type": "string"
        },
        {
          "internalType": "string",
          "name": "passengerName",
          "type": "string"
        },
        {
          "internalType": "address",
          "name": "passengerAddress",
          "type": "address"
        },
        {
          "internalType": "uint256",
          "name": "_insuranceAmount",
          "type": "uint256"
        }
      ],
      "name": "buyInsurance",
      "outputs": [
        {
          "internalType": "bool",
          "name": "",
          "type": "bool"
        }
      ],
      "stateMutability": "payable",
      "type": "function",
      "payable": true
    },
    {
      "inputs": [
        {
          "internalType": "string",
          "name": "_flight",
          "type": "string"
        },
        {
          "internalType": "uint256",
          "name": "creditAmount",
          "type": "uint256"
        }
      ],
      "name": "creditInsuree",
      "outputs": [],
      "stateMutability": "nonpayable",
      "type": "function"
    },
    {
      "inputs": [
        {
          "internalType": "address",
          "name": "passengerAddress",
          "type": "address"
        }
      ],
      "name": "pay",
      "outputs": [
        {
          "internalType": "uint256",
          "name": "",
          "type": "uint256"
        }
      ],
      "stateMutability": "nonpayable",
      "type": "function"
    },
    {
      "inputs": [
        {
          "internalType": "address",
          "name": "sender",
          "type": "address"
        }
      ],
      "name": "fund",
      "outputs": [],
      "stateMutability": "payable",
      "type": "function",
      "payable": true
    }
  ],
  "bytecode": "0x60a060405260016000806101000a81548160ff021916908315150217905550600067ffffffffffffffff8111156200003c576200003b62000444565b5b6040519080825280602002602001820160405280156200006b5781602001602082028036833780820191505090505b50600890805190602001906200008392919062000305565b503480156200009157600080fd5b5060405162003300380380620033008339818101604052810190620000b79190620004dd565b3373ffffffffffffffffffffffffffffffffffffffff1660808173ffffffffffffffffffffffffffffffffffffffff168152505060018060008373ffffffffffffffffffffffffffffffffffffffff1673ffffffffffffffffffffffffffffffffffffffff16815260200190815260200160002060000160006101000a81548160ff021916908315150217905550678ac7230489e80000600160008373ffffffffffffffffffffffffffffffffffffffff1673ffffffffffffffffffffffffffffffffffffffff168152602001908152602001600020600101819055506040518060400160405280600c81526020017f4172696b20416972776179730000000000000000000000000000000000000000815250600160008373ffffffffffffffffffffffffffffffffffffffff1673ffffffffffffffffffffffffffffffffffffffff16815260200190815260200160002060030190805190602001906200022192919062000394565b5080600160008373ffffffffffffffffffffffffffffffffffffffff1673ffffffffffffffffffffffffffffffffffffffff16815260200190815260200160002060040160006101000a81548173ffffffffffffffffffffffffffffffffffffffff021916908373ffffffffffffffffffffffffffffffffffffffff16021790555080600760006101000a81548173ffffffffffffffffffffffffffffffffffffffff021916908373ffffffffffffffffffffffffffffffffffffffff16021790555060066000815480929190620002f99062000548565b919050555050620005f9565b82805482825590600052602060002090810192821562000381579160200282015b82811115620003805782518260006101000a81548173ffffffffffffffffffffffffffffffffffffffff021916908373ffffffffffffffffffffffffffffffffffffffff1602179055509160200191906001019062000326565b5b50905062000390919062000425565b5090565b828054620003a290620005c4565b90600052602060002090601f016020900481019282620003c6576000855562000412565b82601f10620003e157805160ff191683800117855562000412565b8280016001018555821562000412579182015b8281111562000411578251825591602001919060010190620003f4565b5b50905062000421919062000425565b5090565b5b808211156200044057600081600090555060010162000426565b5090565b7f4e487b7100000000000000000000000000000000000000000000000000000000600052604160045260246000fd5b600080fd5b600073ffffffffffffffffffffffffffffffffffffffff82169050919050565b6000620004a58262000478565b9050919050565b620004b78162000498565b8114620004c357600080fd5b50565b600081519050620004d781620004ac565b92915050565b600060208284031215620004f657620004f562000473565b5b60006200050684828501620004c6565b91505092915050565b7f4e487b7100000000000000000000000000000000000000000000000000000000600052601160045260246000fd5b6000819050919050565b600062000555826200053e565b91507fffffffffffffffffffffffffffffffffffffffffffffffffffffffffffffffff82036200058a57620005896200050f565b5b600182019050919050565b7f4e487b7100000000000000000000000000000000000000000000000000000000600052602260045260246000fd5b60006002820490506001821680620005dd57607f821691505b602082108103620005f357620005f262000595565b5b50919050565b608051612cdd62000623600039600081816109ff015281816111da01526112c30152612cdd6000f3fe6080604052600436106101395760003560e01c806367561d93116100ab578063d46c10201161006f578063d46c10201461044d578063d61387741461048a578063dcb22920146104b5578063ee38a749146104f2578063f53aa2e214610530578063f53b6d651461055b57610140565b806367561d931461037c5780636e861c0e146103a5578063c18a4513146103ce578063cd76c7f1146103f7578063cd905dff1461042257610140565b8063110466ed116100fd578063110466ed1461026257806313b0633c1461028b57806317768682146102c857806323024408146102f857806342bcb8261461031457806359d14b411461033f57610140565b806301566ea01461014557806303ee4e561461018257806305b64e98146101ab5780630c11dedd146101e85780630e248a111461022557610140565b3661014057005b600080fd5b34801561015157600080fd5b5061016c60048036038101906101679190611d5d565b610598565b6040516101799190611da5565b60405180910390f35b34801561018e57600080fd5b506101a960048036038101906101a49190611f3c565b6105ef565b005b3480156101b757600080fd5b506101d260048036038101906101cd9190611d5d565b6107a1565b6040516101df9190611fa7565b60405180910390f35b3480156101f457600080fd5b5061020f600480360381019061020a9190611d5d565b6107ed565b60405161021c9190611fa7565b60405180910390f35b34801561023157600080fd5b5061024c60048036038101906102479190611d5d565b6109a4565b6040516102599190611da5565b60405180910390f35b34801561026e57600080fd5b5061028960048036038101906102849190611fee565b6109fd565b005b34801561029757600080fd5b506102b260048036038101906102ad9190611d5d565b610aa7565b6040516102bf9190611da5565b60405180910390f35b6102e260048036038101906102dd919061201b565b610b67565b6040516102ef9190611da5565b60405180910390f35b610312600480360381019061030d9190611d5d565b610e9c565b005b34801561032057600080fd5b5061032961115c565b60405161033691906120c9565b60405180910390f35b34801561034b57600080fd5b5061036660048036038101906103619190611d5d565b611182565b6040516103739190611da5565b60405180910390f35b34801561038857600080fd5b506103a3600480360381019061039e9190611d5d565b6111d8565b005b3480156103b157600080fd5b506103cc60048036038101906103c79190611d5d565b6112c1565b005b3480156103da57600080fd5b506103f560048036038101906103f09190611d5d565b6113a1565b005b34801561040357600080fd5b5061040c6113ec565b6040516104199190611fa7565b60405180910390f35b34801561042e57600080fd5b506104376113f8565b6040516104449190611da5565b60405180910390f35b34801561045957600080fd5b50610474600480360381019061046f9190611d5d565b61140e565b6040516104819190611da5565b60405180910390f35b34801561049657600080fd5b5061049f611477565b6040516104ac9190611fa7565b60405180910390f35b3480156104c157600080fd5b506104dc60048036038101906104d791906120e4565b611483565b6040516104e9919061212a565b60405180910390f35b3480156104fe57600080fd5b5061051960048036038101906105149190612145565b6114a7565b6040516105279291906121a1565b60405180910390f35b34801561053c57600080fd5b50610545611789565b6040516105529190611fa7565b60405180910390f35b34801561056757600080fd5b50610582600480360381019061057d9190611d5d565b61178f565b60405161058f9190611da5565b60405180910390f35b6000678ac7230489e80000600160008473ffffffffffffffffffffffffffffffffffffffff1673ffffffffffffffffffffffffffffffffffffffff1681526020019081526020016000206001015410159050919050565b6000826040516020016106029190612244565b6040516020818303038152906040528051906020012090506000805b60028054905081101561079a576002818154811061063f5761063e61225b565b5b90600052602060002001549150826004600084815260200190815260200160002060020154036107875760006004600084815260200190815260200160002060000160009054906101000a900473ffffffffffffffffffffffffffffffffffffffff16905060006004600085815260200190815260200160002060010154905060006106e760646106d989856117dd90919063ffffffff16565b6117f390919063ffffffff16565b90506000600360008573ffffffffffffffffffffffffffffffffffffffff1673ffffffffffffffffffffffffffffffffffffffff168152602001908152602001600020600201549050818161073c91906122b9565b600360008673ffffffffffffffffffffffffffffffffffffffff1673ffffffffffffffffffffffffffffffffffffffff16815260200190815260200160002060020181905550505050505b80806107929061230f565b91505061061e565b5050505050565b6000600360008373ffffffffffffffffffffffffffffffffffffffff1673ffffffffffffffffffffffffffffffffffffffff168152602001908152602001600020600201549050919050565b60008060009054906101000a900460ff1661083d576040517f08c379a0000000000000000000000000000000000000000000000000000000008152600401610834906123da565b60405180910390fd5b600560003373ffffffffffffffffffffffffffffffffffffffff1673ffffffffffffffffffffffffffffffffffffffff16815260200190815260200160002060009054906101000a900460ff166108c9576040517f08c379a00000000000000000000000000000000000000000000000000000000081526004016108c09061246c565b60405180910390fd5b6000600360008473ffffffffffffffffffffffffffffffffffffffff1673ffffffffffffffffffffffffffffffffffffffff16815260200190815260200160002060020154905060008111610953576040517f08c379a000000000000000000000000000000000000000000000000000000000815260040161094a90612524565b60405180910390fd5b6000600360008573ffffffffffffffffffffffffffffffffffffffff1673ffffffffffffffffffffffffffffffffffffffff1681526020019081526020016000206002018190555080915050919050565b6000600160008373ffffffffffffffffffffffffffffffffffffffff1673ffffffffffffffffffffffffffffffffffffffff16815260200190815260200160002060000160009054906101000a900460ff169050919050565b7f000000000000000000000000000000000000000000000000000000000000000073ffffffffffffffffffffffffffffffffffffffff163373ffffffffffffffffffffffffffffffffffffffff1614610a8b576040517f08c379a0000000000000000000000000000000000000000000000000000000008152600401610a8290612590565b60405180910390fd5b806000806101000a81548160ff02191690831515021790555050565b6000806000600160008573ffffffffffffffffffffffffffffffffffffffff1673ffffffffffffffffffffffffffffffffffffffff16815260200190815260200160002060000160009054906101000a900460ff1690506000678ac7230489e80000600160008773ffffffffffffffffffffffffffffffffffffffff1673ffffffffffffffffffffffffffffffffffffffff1681526020019081526020016000206001015410159050818015610b5a5750805b9250829350505050919050565b60008060009054906101000a900460ff16610bb7576040517f08c379a0000000000000000000000000000000000000000000000000000000008152600401610bae906123da565b60405180910390fd5b670de0b6b3a7640000821015610c02576040517f08c379a0000000000000000000000000000000000000000000000000000000008152600401610bf990612648565b60405180910390fd5b3073ffffffffffffffffffffffffffffffffffffffff166108fc349081150290604051600060405180830381858888f19350505050158015610c48573d6000803e3d6000fd5b5082600360008573ffffffffffffffffffffffffffffffffffffffff1673ffffffffffffffffffffffffffffffffffffffff16815260200190815260200160002060000160006101000a81548173ffffffffffffffffffffffffffffffffffffffff021916908373ffffffffffffffffffffffffffffffffffffffff16021790555083600360008573ffffffffffffffffffffffffffffffffffffffff1673ffffffffffffffffffffffffffffffffffffffff1681526020019081526020016000206001019080519060200190610d20929190611bbe565b5060008386604051602001610d369291906126b0565b604051602081830303815290604052805190602001209050600086604051602001610d619190612244565b604051602081830303815290604052805190602001209050846004600084815260200190815260200160002060000160006101000a81548173ffffffffffffffffffffffffffffffffffffffff021916908373ffffffffffffffffffffffffffffffffffffffff1602179055508060046000848152602001908152602001600020600201819055508360046000848152602001908152602001600020600101819055506000805b600280549050811015610e56578360028281548110610e2a57610e2961225b565b5b906000526020600020015403610e435760019150610e56565b8080610e4e9061230f565b915050610e08565b506000151581151503610e8d5760028390806001815401808255809150506001900390600052602060002001600090919091909150555b60019350505050949350505050565b600160008273ffffffffffffffffffffffffffffffffffffffff1673ffffffffffffffffffffffffffffffffffffffff16815260200190815260200160002060000160009054906101000a900460ff16610f2b576040517f08c379a0000000000000000000000000000000000000000000000000000000008152600401610f2290612770565b60405180910390fd5b6000600160008373ffffffffffffffffffffffffffffffffffffffff1673ffffffffffffffffffffffffffffffffffffffff1681526020019081526020016000206001015414610fb0576040517f08c379a0000000000000000000000000000000000000000000000000000000008152600401610fa790612802565b60405180910390fd5b678ac7230489e80000341015610ffb576040517f08c379a0000000000000000000000000000000000000000000000000000000008152600401610ff2906128ba565b60405180910390fd5b3073ffffffffffffffffffffffffffffffffffffffff166108fc349081150290604051600060405180830381858888f19350505050158015611041573d6000803e3d6000fd5b5061109734600160008473ffffffffffffffffffffffffffffffffffffffff1673ffffffffffffffffffffffffffffffffffffffff1681526020019081526020016000206001015461180990919063ffffffff16565b600160008373ffffffffffffffffffffffffffffffffffffffff1673ffffffffffffffffffffffffffffffffffffffff168152602001908152602001600020600101819055507f7282685da06d9c48b8e68d171e7ccc1827b780effe4b7f235048a8ef963f1cb434600160008473ffffffffffffffffffffffffffffffffffffffff1673ffffffffffffffffffffffffffffffffffffffff16815260200190815260200160002060030183604051611151939291906129cf565b60405180910390a150565b600760009054906101000a900473ffffffffffffffffffffffffffffffffffffffff1681565b6000600560008373ffffffffffffffffffffffffffffffffffffffff1673ffffffffffffffffffffffffffffffffffffffff16815260200190815260200160002060009054906101000a900460ff169050919050565b7f000000000000000000000000000000000000000000000000000000000000000073ffffffffffffffffffffffffffffffffffffffff163373ffffffffffffffffffffffffffffffffffffffff1614611266576040517f08c379a000000000000000000000000000000000000000000000000000000000815260040161125d90612590565b60405180910390fd5b6001600560008373ffffffffffffffffffffffffffffffffffffffff1673ffffffffffffffffffffffffffffffffffffffff16815260200190815260200160002060006101000a81548160ff02191690831515021790555050565b7f000000000000000000000000000000000000000000000000000000000000000073ffffffffffffffffffffffffffffffffffffffff163373ffffffffffffffffffffffffffffffffffffffff161461134f576040517f08c379a000000000000000000000000000000000000000000000000000000000815260040161134690612590565b60405180910390fd5b600560008273ffffffffffffffffffffffffffffffffffffffff1673ffffffffffffffffffffffffffffffffffffffff16815260200190815260200160002060006101000a81549060ff021916905550565b6000600360008373ffffffffffffffffffffffffffffffffffffffff1673ffffffffffffffffffffffffffffffffffffffff1681526020019081526020016000206002018190555050565b670de0b6b3a764000081565b60008060009054906101000a900460ff16905090565b60008061142760026006546117f390919063ffffffff16565b905080600160008573ffffffffffffffffffffffffffffffffffffffff1673ffffffffffffffffffffffffffffffffffffffff168152602001908152602001600020600201541015915050919050565b678ac7230489e8000081565b6002818154811061149357600080fd5b906000526020600020016000915090505481565b6000806114b3846109a4565b156114f3576040517f08c379a00000000000000000000000000000000000000000000000000000000081526004016114ea90612a7f565b60405180910390fd5b60046006541061155c5760006115083361181f565b9050801561154b576040517f08c379a000000000000000000000000000000000000000000000000000000000815260040161154290612b11565b60405180910390fd5b6115568585336118d3565b5061177b565b60018060008673ffffffffffffffffffffffffffffffffffffffff1673ffffffffffffffffffffffffffffffffffffffff16815260200190815260200160002060000160006101000a81548160ff02191690831515021790555082600160008673ffffffffffffffffffffffffffffffffffffffff1673ffffffffffffffffffffffffffffffffffffffff168152602001908152602001600020600301908051906020019061160c929190611bbe565b5083600160008673ffffffffffffffffffffffffffffffffffffffff1673ffffffffffffffffffffffffffffffffffffffff16815260200190815260200160002060040160006101000a81548173ffffffffffffffffffffffffffffffffffffffff021916908373ffffffffffffffffffffffffffffffffffffffff1602179055506116e360018060008773ffffffffffffffffffffffffffffffffffffffff1673ffffffffffffffffffffffffffffffffffffffff1681526020019081526020016000206002015461180990919063ffffffff16565b600160008673ffffffffffffffffffffffffffffffffffffffff1673ffffffffffffffffffffffffffffffffffffffff168152602001908152602001600020600201819055506006600081548092919061173c9061230f565b91905055507f234fea0fa5d0d6371abc6364829e96136d182d801277bb7a58f860410b3a7eae8484604051611772929190612b6a565b60405180910390a15b816000915091509250929050565b60065481565b600080600160008473ffffffffffffffffffffffffffffffffffffffff1673ffffffffffffffffffffffffffffffffffffffff16815260200190815260200160002060010154119050919050565b600081836117eb9190612b9a565b905092915050565b600081836118019190612c23565b905092915050565b6000818361181791906122b9565b905092915050565b6000806000905060005b6008805490508110156118c8578373ffffffffffffffffffffffffffffffffffffffff16600882815481106118615761186061225b565b5b9060005260206000200160009054906101000a900473ffffffffffffffffffffffffffffffffffffffff1673ffffffffffffffffffffffffffffffffffffffff16036118b5576001915081925050506118ce565b80806118c09061230f565b915050611829565b50809150505b919050565b61192860018060008673ffffffffffffffffffffffffffffffffffffffff1673ffffffffffffffffffffffffffffffffffffffff1681526020019081526020016000206002015461180990919063ffffffff16565b600160008573ffffffffffffffffffffffffffffffffffffffff1673ffffffffffffffffffffffffffffffffffffffff16815260200190815260200160002060020181905550600061198660026006546117f390919063ffffffff16565b90506000600160008673ffffffffffffffffffffffffffffffffffffffff1673ffffffffffffffffffffffffffffffffffffffff168152602001908152602001600020600201549050818103611b395760018060008773ffffffffffffffffffffffffffffffffffffffff1673ffffffffffffffffffffffffffffffffffffffff16815260200190815260200160002060000160006101000a81548160ff02191690831515021790555083600160008773ffffffffffffffffffffffffffffffffffffffff1673ffffffffffffffffffffffffffffffffffffffff1681526020019081526020016000206003019080519060200190611a86929190611bbe565b5060066000815480929190611a9a9061230f565b9190505550600067ffffffffffffffff811115611aba57611ab9611ddb565b5b604051908082528060200260200182016040528015611ae85781602001602082028036833780820191505090505b5060089080519060200190611afe929190611c44565b507f234fea0fa5d0d6371abc6364829e96136d182d801277bb7a58f860410b3a7eae8585604051611b30929190612b6a565b60405180910390a15b7fa35fba70b0ffe23a8a27fe549e3dca48c0a9f342c242dc2fc7e235b795b9730183600160008673ffffffffffffffffffffffffffffffffffffffff1673ffffffffffffffffffffffffffffffffffffffff1681526020019081526020016000206003018787604051611baf9493929190612c54565b60405180910390a15050505050565b828054611bca90612909565b90600052602060002090601f016020900481019282611bec5760008555611c33565b82601f10611c0557805160ff1916838001178555611c33565b82800160010185558215611c33579182015b82811115611c32578251825591602001919060010190611c17565b5b509050611c409190611cce565b5090565b828054828255906000526020600020908101928215611cbd579160200282015b82811115611cbc5782518260006101000a81548173ffffffffffffffffffffffffffffffffffffffff021916908373ffffffffffffffffffffffffffffffffffffffff16021790555091602001919060010190611c64565b5b509050611cca9190611cce565b5090565b5b80821115611ce7576000816000905550600101611ccf565b5090565b6000604051905090565b600080fd5b600080fd5b600073ffffffffffffffffffffffffffffffffffffffff82169050919050565b6000611d2a82611cff565b9050919050565b611d3a81611d1f565b8114611d4557600080fd5b50565b600081359050611d5781611d31565b92915050565b600060208284031215611d7357611d72611cf5565b5b6000611d8184828501611d48565b91505092915050565b60008115159050919050565b611d9f81611d8a565b82525050565b6000602082019050611dba6000830184611d96565b92915050565b600080fd5b600080fd5b6000601f19601f8301169050919050565b7f4e487b7100000000000000000000000000000000000000000000000000000000600052604160045260246000fd5b611e1382611dca565b810181811067ffffffffffffffff82111715611e3257611e31611ddb565b5b80604052505050565b6000611e45611ceb565b9050611e518282611e0a565b919050565b600067ffffffffffffffff821115611e7157611e70611ddb565b5b611e7a82611dca565b9050602081019050919050565b82818337600083830152505050565b6000611ea9611ea484611e56565b611e3b565b905082815260208101848484011115611ec557611ec4611dc5565b5b611ed0848285611e87565b509392505050565b600082601f830112611eed57611eec611dc0565b5b8135611efd848260208601611e96565b91505092915050565b6000819050919050565b611f1981611f06565b8114611f2457600080fd5b50565b600081359050611f3681611f10565b92915050565b60008060408385031215611f5357611f52611cf5565b5b600083013567ffffffffffffffff811115611f7157611f70611cfa565b5b611f7d85828601611ed8565b9250506020611f8e85828601611f27565b9150509250929050565b611fa181611f06565b82525050565b6000602082019050611fbc6000830184611f98565b92915050565b611fcb81611d8a565b8114611fd657600080fd5b50565b600081359050611fe881611fc2565b92915050565b60006020828403121561200457612003611cf5565b5b600061201284828501611fd9565b91505092915050565b6000806000806080858703121561203557612034611cf5565b5b600085013567ffffffffffffffff81111561205357612052611cfa565b5b61205f87828801611ed8565b945050602085013567ffffffffffffffff8111156120805761207f611cfa565b5b61208c87828801611ed8565b935050604061209d87828801611d48565b92505060606120ae87828801611f27565b91505092959194509250565b6120c381611d1f565b82525050565b60006020820190506120de60008301846120ba565b92915050565b6000602082840312156120fa576120f9611cf5565b5b600061210884828501611f27565b91505092915050565b6000819050919050565b61212481612111565b82525050565b600060208201905061213f600083018461211b565b92915050565b6000806040838503121561215c5761215b611cf5565b5b600061216a85828601611d48565b925050602083013567ffffffffffffffff81111561218b5761218a611cfa565b5b61219785828601611ed8565b9150509250929050565b60006040820190506121b66000830185611d96565b6121c36020830184611f98565b9392505050565b600081519050919050565b600081905092915050565b60005b838110156121fe5780820151818401526020810190506121e3565b8381111561220d576000848401525b50505050565b600061221e826121ca565b61222881856121d5565b93506122388185602086016121e0565b80840191505092915050565b60006122508284612213565b915081905092915050565b7f4e487b7100000000000000000000000000000000000000000000000000000000600052603260045260246000fd5b7f4e487b7100000000000000000000000000000000000000000000000000000000600052601160045260246000fd5b60006122c482611f06565b91506122cf83611f06565b9250827fffffffffffffffffffffffffffffffffffffffffffffffffffffffffffffffff038211156123045761230361228a565b5b828201905092915050565b600061231a82611f06565b91507fffffffffffffffffffffffffffffffffffffffffffffffffffffffffffffffff820361234c5761234b61228a565b5b600182019050919050565b600082825260208201905092915050565b7f436f6e74726163742069732063757272656e746c79206e6f74206f706572617460008201527f696f6e616c000000000000000000000000000000000000000000000000000000602082015250565b60006123c4602583612357565b91506123cf82612368565b604082019050919050565b600060208201905081810360008301526123f3816123b7565b9050919050565b7f43616c6c6572206973206e6f7420617574686f72697a656420746f2063616c6c60008201527f2074686973206d6574686f640000000000000000000000000000000000000000602082015250565b6000612456602c83612357565b9150612461826123fa565b604082019050919050565b6000602082019050818103600083015261248581612449565b9050919050565b7f494e53554646494349454e542043524544495420414d4f554e543a20596f752060008201527f646f6e7420686176652073756666696365696e742063726564697420746f207760208201527f6974686472617700000000000000000000000000000000000000000000000000604082015250565b600061250e604783612357565b91506125198261248c565b606082019050919050565b6000602082019050818103600083015261253d81612501565b9050919050565b7f43616c6c6572206973206e6f7420636f6e7472616374206f776e657200000000600082015250565b600061257a601c83612357565b915061258582612544565b602082019050919050565b600060208201905081810360008301526125a98161256d565b9050919050565b7f494e53554646494349454e5420414d4f554e543a204d696e696d756d2070726960008201527f636520666f7220666c6967687420696e737572616e636520697320312065746860208201527f6572000000000000000000000000000000000000000000000000000000000000604082015250565b6000612632604283612357565b915061263d826125b0565b606082019050919050565b6000602082019050818103600083015261266181612625565b9050919050565b60008160601b9050919050565b600061268082612668565b9050919050565b600061269282612675565b9050919050565b6126aa6126a582611d1f565b612687565b82525050565b60006126bc8285612699565b6014820191506126cc8284612213565b91508190509392505050565b7f46554e44494e47204245464f524520524547495354524154494f4e3a20506c6560008201527f61736520656e73757265206169726c696e65206973207265676973746572656460208201527f206265666f726520706179696e6720736565642066756e640000000000000000604082015250565b600061275a605883612357565b9150612765826126d8565b606082019050919050565b600060208201905081810360008301526127898161274d565b9050919050565b7f444f55424c45205041594d454e5420415454454d50543a205468616e6b20796f60008201527f752c2062757420796f752063616e206f6e6c7920706179206f6e63652e000000602082015250565b60006127ec603d83612357565b91506127f782612790565b604082019050919050565b6000602082019050818103600083015261281b816127df565b9050919050565b7f494e53554646494349454e5420414d4f554e543a20506c6561736520656e737560008201527f726520746f206d65657420746865206d696e696d756d20616d6f756e74206f6660208201527f20313020657468657220666f722074686520736565642066756e640000000000604082015250565b60006128a4605b83612357565b91506128af82612822565b606082019050919050565b600060208201905081810360008301526128d381612897565b9050919050565b7f4e487b7100000000000000000000000000000000000000000000000000000000600052602260045260246000fd5b6000600282049050600182168061292157607f821691505b602082108103612934576129336128da565b5b50919050565b60008190508160005260206000209050919050565b6000815461295c81612909565b6129668186612357565b945060018216600081146129815760018114612993576129c6565b60ff19831686526020860193506129c6565b61299c8561293a565b60005b838110156129be5781548189015260018201915060208101905061299f565b808801955050505b50505092915050565b60006060820190506129e46000830186611f98565b81810360208301526129f6818561294f565b9050612a0560408301846120ba565b949350505050565b7f4149524c494e4520414c52454144592045584953543a20506c6561736520726560008201527f6769737465722061206e6577206169726c696e65000000000000000000000000602082015250565b6000612a69603483612357565b9150612a7482612a0d565b604082019050919050565b60006020820190508181036000830152612a9881612a5c565b9050919050565b7f444f55424c4520564f54494e473a20566f746572206973206f6e6c7920616c6c60008201527f6f77656420746f2063617374203120766f74652e000000000000000000000000602082015250565b6000612afb603483612357565b9150612b0682612a9f565b604082019050919050565b60006020820190508181036000830152612b2a81612aee565b9050919050565b6000612b3c826121ca565b612b468185612357565b9350612b568185602086016121e0565b612b5f81611dca565b840191505092915050565b6000604082019050612b7f60008301856120ba565b8181036020830152612b918184612b31565b90509392505050565b6000612ba582611f06565b9150612bb083611f06565b9250817fffffffffffffffffffffffffffffffffffffffffffffffffffffffffffffffff0483118215151615612be957612be861228a565b5b828202905092915050565b7f4e487b7100000000000000000000000000000000000000000000000000000000600052601260045260246000fd5b6000612c2e82611f06565b9150612c3983611f06565b925082612c4957612c48612bf4565b5b828204905092915050565b6000608082019050612c6960008301876120ba565b8181036020830152612c7b818661294f565b9050612c8a60408301856120ba565b8181036060830152612c9c8184612b31565b90509594505050505056fea2646970667358221220b136bd200320ae8b934c261ed7303aaca3a0550aad8095ac86413da171786b5b64736f6c634300080e0033",
  "immutableReferences": {
    "319": [
      {
        "length": 32,
        "start": 2559
      },
      {
        "length": 32,
        "start": 4570
      },
      {
        "length": 32,
        "start": 4803
      }
    ]
  },
  "source": "// SPDX-License-Identifier: MIT\npragma solidity ^0.8.9;\n\nimport \"@openzeppelin/contracts/utils/math/SafeMath.sol\";\n\ncontract FlightSuretyData {\n    using SafeMath for uint256;\n\n    // TODO: prefix all storage variables with s_\n    // TODO: replace require statements with revert statement\n    // TODO: create custom error messages\n    // TODO: reduce reading frequency from global variables\n    // TODO: make variables constant wherever possible.\n    // TODO: capitalize struct names\n    // TODO: implement re-entrancy guard\n    // TODO: implement rate-limiting guard\n    // TODO: go over security best practices.\n\n\n    /********************************************************************************************/\n    /*                                       DATA VARIABLES                                     */\n    /********************************************************************************************/\n    // address private firstAirline;                                       // Account of first airline deployed with contract\n    address private immutable i_contractOwner;                                      // Account used to deploy contract\n    bool private operational = true;                                    // Blocks all state changes throughout the contract if false\n    \n    struct airlineInfo{\n        bool isRegistered;\n        uint256 seedFund;\n        uint256 votes;\n        string name;\n        address airlineAddress;\n    }\n    mapping (address => airlineInfo) airlines;\n\n\n    // Track Passengers Insurance \n    struct Passenger {\n        address passengersAddress;\n        string name;\n        uint256 credit;\n    }\n\n    // Track Insured Flights\n    struct FlightInsurance {\n        address passenger;\n        uint256 insuranceAmount;\n        bytes32 flightKey; \n    }\n\n    // Used to Map Flights to Passengers with Insurance \n    bytes32[] public flightToPassengersKeys;\n\n    mapping (address => Passenger) private s_passengers;\n    mapping (bytes32 => FlightInsurance) private s_flightInsurances;\n\n    uint public constant MINIMUM_SEED_FUND = 10 ether; // Reduce to 0.05 ether in order for test to pass\n    uint public constant MIN_FLIGHT_INSURANCE_PRICE = 1 ether;\n    mapping(address => bool) private authorizedContracts;\n    uint256 public registeredAirlinesCount;\n    address public firstAirlineAddress;\n\n\n    address[] private _voters = new address[](0);\n    uint constant MULTIPARTY_THRESHOLD = 4;\n\n    /********************************************************************************************/\n    /*                                       EVENT DEFINITIONS                                  */\n    /********************************************************************************************/\n\n    event HasPayedSeedFund(uint amount, string airlineName, address airlineAddress);\n    event RegisteredNewAirline(address newAirline, string name);\n    event CastVote(address voterAddress, string voterName, address voteeAddress, string voteeName );\n    event FlightInsured(string flight, uint256 insuranceAmount);\n \n\n\n    /**\n    * @dev Constructor\n    *      The deploying account becomes contractOwner\n    */\n    constructor ( address firstAirline) \n    {\n        i_contractOwner = msg.sender;\n\n\n        // Initialize first airline\n        airlines[firstAirline].isRegistered = true;\n        airlines[firstAirline].seedFund = 10 ether; // Change to 0 in order for test cases to pass\n        airlines[firstAirline].name = 'Arik Airways';\n        airlines[firstAirline].airlineAddress = firstAirline;\n\n        firstAirlineAddress = firstAirline;\n\n        registeredAirlinesCount++;\n\n    }\n\n    /********************************************************************************************/\n    /*                                       FUNCTION MODIFIERS                                 */\n    /********************************************************************************************/\n\n    // Modifiers help avoid duplication of code. They are typically used to validate something\n    // before a function is allowed to be executed.\n\n    /**\n    * @dev Modifier that requires the \"operational\" boolean variable to be \"true\"\n    *      This is used on all state changing functions to pause the contract in \n    *      the event there is an issue that needs to be fixed\n    */\n    modifier requireIsOperational() \n    {\n        require(operational, \"Contract is currently not operational\");\n        _;  // All modifiers require an \"_\" which indicates where the function body will be added\n    }\n\n    /**\n    * @dev Modifier that requires the \"ContractOwner\" account to be the function caller\n    */\n    modifier requireContractOwner()\n    {\n        require(msg.sender == i_contractOwner, \"Caller is not contract owner\");\n        _;\n    }\n    modifier requireIsAuthorizedCaller()\n    {\n        require(authorizedContracts[msg.sender], \"Caller is not authorized to call this method\");\n        _;\n    }\n\n    \n\n    /********************************************************************************************/\n    /*                                       UTILITY FUNCTIONS                                  */\n    /********************************************************************************************/\n\n    /**\n    * @dev Get operating status of contract\n    *\n    * @return A bool that is the current operating status\n    */      \n    function isOperational() \n                            external \n                            view \n                            returns(bool) \n    {\n        return operational;\n    }\n\n    function isAirline(address airline) public view  returns (bool){\n        return airlines[airline].isRegistered;\n    }\n\n    function isAirlineFunded(address airline) external view returns(bool){\n        return airlines[airline].seedFund > 0;\n    }\n\n\n    /**\n    * @dev Check if airline has paid seed fund\n    *\n    * @return A bool if seedFund amount is greater than initial value of 0\n    */  \n    function hasPaidSeedFund ( address airline) public view returns (bool){\n        return airlines[airline].seedFund >= MINIMUM_SEED_FUND; \n    }\n\n    /**\n    * @dev Sets contract operations on/off\n    *\n    * When operational mode is disabled, all write transactions except for this one will fail\n    */    \n    function setOperatingStatus\n                            (\n                                bool mode\n                            ) \n                            external\n                            requireContractOwner \n    {\n        operational = mode;\n    }\n\n    \n\n    function deauthorizeContract (address contractAddress) external requireContractOwner {\n        delete authorizedContracts[contractAddress];\n    }\n\n    function authorizeContract (address contractAddress) public requireContractOwner {\n         authorizedContracts[contractAddress] = true;\n    }\n\n    function isAuthorizedCaller ( address contractAddress) public view returns(bool){\n        return authorizedContracts[contractAddress];\n    }\n\n\n\n    function checkDuplicateVotes(address voter) internal view returns (bool){\n        bool isDuplicate = false;\n        for(uint c=0; c<_voters.length; c++) {\n            if (_voters[c] == voter) {\n                isDuplicate = true;\n                return isDuplicate;\n            }\n        }\n        return isDuplicate;\n    }\n\n    function voteForAirline(address newAirline, string memory _name, address voter) internal {\n\n\n        // Increment votes field for airline about to be registered.\n        airlines[newAirline].votes = airlines[newAirline].votes.add(1);\n\n         // Get minimum voters for consensus (50% of registered airlines)\n        uint minimumVotersRequired = registeredAirlinesCount.div(2);\n        uint votesReceived = airlines[newAirline].votes;\n\n        if ( votesReceived == minimumVotersRequired) {\n            airlines[newAirline].isRegistered = true;\n            airlines[newAirline].name = _name;\n\n            registeredAirlinesCount++;\n\n            // Reset voters after successfully registering a new airline;\n            _voters = new address[](0);   \n\n            // Emit event when new airline is registered\n            emit RegisteredNewAirline(newAirline, _name);   \n        }\n\n        // Emit event after every vote showing which airline voted.\n        emit CastVote(voter,airlines[voter].name,newAirline, _name);\n\n    }\n\n    function airlineHasReachedConsensus(address airline) external view returns(bool) {\n        uint256 numberOfRequiredVotes = registeredAirlinesCount.div(2); \n        return airlines[airline].votes >= numberOfRequiredVotes;\n    }\n\n\n    function isAirlineActive(address airline) external view returns (bool){\n        bool state;\n\n        bool isRegistered = airlines[airline].isRegistered;\n        bool isFunded = airlines[airline].seedFund >= MINIMUM_SEED_FUND;\n\n        state = isRegistered && isFunded;\n\n        return state;\n    }\n\n    function getFlightKey (\n         address airline, \n        string memory flight, \n        uint256 timestamp\n        ) pure internal returns(bytes32) {\n             return keccak256(abi.encodePacked(airline, flight, timestamp));\n    }\n\n    function getPassengerCredit(address passengerAddress) external view returns(uint256){\n        return s_passengers[passengerAddress].credit;\n    }\n\n    function clearPassengerCredit(address passengerAddress) external {\n        s_passengers[passengerAddress].credit = 0;\n    }\n\n\n    /********************************************************************************************/\n    /*                                     SMART CONTRACT FUNCTIONS                             */\n    /********************************************************************************************/\n\n   /**\n    * @dev Add an airline to the registration queue\n    *      Can only be called from FlightSuretyApp contract\n    *\n    */   \n    // Function writes to the state hence, remains in the data contract.\n    function registerAirline ( address newAirline, string memory _name ) external  returns (bool success, uint256 votes) {\n\n        // Confirm msg.sender is not trying to register an airline more than once\n        require(!isAirline(newAirline), \"AIRLINE ALREADY EXIST: Please register a new airline\");\n\n\n        // Use multiparty consensus if registered airlines reaches 4: 50% vote is required from registered user to approve registering new airline. \n        if(registeredAirlinesCount >= MULTIPARTY_THRESHOLD){\n            \n        // Check for duplicate vote by an airline (msg.sender).\n        bool isDuplicate = checkDuplicateVotes(msg.sender);\n        \n        require(!isDuplicate, \"DOUBLE VOTING: Voter is only allowed to cast 1 vote.\");\n\n        // Emit event to tell front-end the airline that recently voted\n\n        // Atleast 50% of registered airlines should vote to register airline\n        voteForAirline(newAirline, _name,msg.sender);\n\n       \n        }else{\n        \n        // Register airline\n        airlines[newAirline].isRegistered = true;\n        airlines[newAirline].name = _name;\n        airlines[newAirline].airlineAddress = newAirline;\n        airlines[newAirline].votes = airlines[newAirline].votes.add(1);\n\n        // Keep track of registered airlines by incrementing on each successful registration\n        registeredAirlinesCount++;\n\n        emit RegisteredNewAirline(newAirline, _name);\n\n        }\n\n\n        return (success, 0);\n    }\n\n\n\n   /**\n    * @dev Buy insurance for a flight\n    *\n    */   \n    // \n    function buyInsurance ( string memory _flight, string memory passengerName, address passengerAddress, uint256 _insuranceAmount ) external requireIsOperational payable returns(bool) {\n\n        // Passenger cannot buy insurance for the same flight more than once.\n\n        // Passengers may pay up to 1 ether for purchasing flight insurance\n        require(_insuranceAmount >= MIN_FLIGHT_INSURANCE_PRICE,\"INSUFFICIENT AMOUNT: Minimum price for flight insurance is 1 ether\");\n\n        // Transfer payment to DAO\n        payable(address(this)).transfer(msg.value);\n\n\n        // Setup Passenger - Use Later to credit them\n        s_passengers[passengerAddress].passengersAddress = passengerAddress;\n        s_passengers[passengerAddress].name = passengerName;\n\n        // Setup Flight Insurance Mapping to Passenger\n        bytes32 key = keccak256(abi.encodePacked(passengerAddress, _flight));\n        bytes32 flightKey = keccak256(abi.encodePacked(_flight));\n\n        s_flightInsurances[key].passenger = passengerAddress;\n        s_flightInsurances[key].flightKey = flightKey;\n        s_flightInsurances[key].insuranceAmount = _insuranceAmount;\n\n        // Checks array to see if hashed value of passengerAddress and flight exist.\n        bool keyFound = false;\n        for (uint i; i < flightToPassengersKeys.length; i++) {\n            if (flightToPassengersKeys[i] == key) {\n                keyFound = true;\n                break;\n            }\n        }\n\n        // If the key is not found, then it must be a new key, hence, pushed into the array.\n        if (keyFound == false) {\n            flightToPassengersKeys.push(key);\n        }\n\n        return(true);\n    }\n\n    /**\n     *  @dev Credits payouts to insurees\n    */\n    function creditInsuree ( string memory _flight, uint256 creditAmount) external {\n\n\n        // has the flight\n        bytes32 flightKey = keccak256(abi.encodePacked(_flight));\n\n        // var for storing array items of flightToPassengersKeys (hashed values of passengerAddress and flight)\n        bytes32 key;\n\n        for (uint i; i < flightToPassengersKeys.length; i++) {\n\n            key = flightToPassengersKeys[i];\n\n\n            if (s_flightInsurances[key].flightKey == flightKey) {\n                address passengerAddress = s_flightInsurances[key].passenger;\n                uint256 insuranceAmount = s_flightInsurances[key].insuranceAmount;\n\n                // Credit passenger with insurance payout \n                uint256 insuranceAmountBenefit =insuranceAmount.mul(creditAmount).div(100);\n                uint256 currentCredit = s_passengers[passengerAddress].credit;\n                s_passengers[passengerAddress].credit = currentCredit + insuranceAmountBenefit;\n            }\n        }\n    }\n    \n\n    /**\n     *  @dev Transfers eligible payout funds to insuree\n        This function transfers the funds accumulated for the passenger\n     *\n    */\n    function pay(address passengerAddress) external requireIsOperational requireIsAuthorizedCaller returns(uint256){\n\n        // fetch payout amount - passengers.credit\n        uint256 currentCredit = s_passengers[passengerAddress].credit;\n\n        // require that credit amount is greater than 0\n        require(currentCredit > 0, 'INSUFFICIENT CREDIT AMOUNT: You dont have sufficeint credit to withdraw');\n\n        // deduct amount to be payed out from the credit balance first\n        s_passengers[passengerAddress].credit = 0;\n\n        return currentCredit;\n    }\n\n   /**\n    * @dev Initial funding for the insurance. Unless there are too many delayed flights\n    *      resulting in insurance payouts, the contract should be self-sustaining\n    *\n    */   \n    function fund(address sender) external payable {\n\n        // Require that an airline needs to be registered before paying seed fund.\n        require(airlines[sender].isRegistered,\"FUNDING BEFORE REGISTRATION: Please ensure airline is registered before paying seed fund\");\n\n        // Require that an airline doesn't pay for seed funds more than once.\n        require(airlines[sender].seedFund == 0,\"DOUBLE PAYMENT ATTEMPT: Thank you, but you can only pay once.\");\n\n        require(msg.value >= MINIMUM_SEED_FUND,\"INSUFFICIENT AMOUNT: Please ensure to meet the minimum amount of 10 ether for the seed fund\");\n\n        // Transfer value to contract balance\n        \n        // Transfer payment to contract balance\n        payable(address(this)).transfer(msg.value);\n\n        // (bool success,) = address(this).call{value: value, gas:4000}(\"\");\n        // require(success, \"Pay to account was not successful\");\n\n\n        // Set amount paid by airline.\n        airlines[sender].seedFund = airlines[sender].seedFund.add(msg.value);\n\n        // emit event for successful payment\n        emit HasPayedSeedFund(msg.value,airlines[sender].name, sender);\n    }\n\n\n    /**\n    * @dev Fallback function for funding smart contract.\n    *\n    */\n    // fallback() external payable {\n    //     // fund();\n    // }\n\n    receive() external payable { \n        // custom function code\n    }\n\n\n}\n\n",
  "sourcePath": "/Users/apple/Documents/personal/tutorials/ethereum/flightSuretyDApp/contracts/flightSuretyData.sol",
  "compiler": {
    "name": "solc",
    "version": "0.8.14+commit.80d49f37.Emscripten.clang"
  },
  "schemaVersion": "3.4.7",
  "updatedAt": "2022-05-29T12:04:17.650Z",
  "networkType": "ethereum",
  "devdoc": {
    "kind": "dev",
    "methods": {
      "buyInsurance(string,string,address,uint256)": {
        "details": "Buy insurance for a flight"
      },
      "constructor": {
        "details": "Constructor      The deploying account becomes contractOwner"
      },
      "creditInsuree(string,uint256)": {
        "details": "Credits payouts to insurees"
      },
      "fund(address)": {
        "details": "Initial funding for the insurance. Unless there are too many delayed flights      resulting in insurance payouts, the contract should be self-sustaining"
      },
      "hasPaidSeedFund(address)": {
        "details": "Check if airline has paid seed fund",
        "returns": {
          "_0": "A bool if seedFund amount is greater than initial value of 0"
        }
      },
      "isOperational()": {
        "details": "Get operating status of contract",
        "returns": {
          "_0": "A bool that is the current operating status"
        }
      },
      "pay(address)": {
        "details": "Transfers eligible payout funds to insuree This function transfers the funds accumulated for the passenger"
      },
      "registerAirline(address,string)": {
        "details": "Add an airline to the registration queue      Can only be called from FlightSuretyApp contract"
      },
      "setOperatingStatus(bool)": {
        "details": "Sets contract operations on/off When operational mode is disabled, all write transactions except for this one will fail"
      }
    },
    "version": 1
  },
  "userdoc": {
    "kind": "user",
    "methods": {},
    "version": 1
  }
}