{
  "contractName": "FlightSuretyData",
  "abi": [
    {
      "inputs": [
        {
          "internalType": "address",
          "name": "firstAirline",
          "type": "address"
        }
      ],
      "stateMutability": "nonpayable",
      "type": "constructor"
    },
    {
      "anonymous": false,
      "inputs": [
        {
          "indexed": false,
          "internalType": "address",
          "name": "voterAddress",
          "type": "address"
        },
        {
          "indexed": false,
          "internalType": "string",
          "name": "voterName",
          "type": "string"
        },
        {
          "indexed": false,
          "internalType": "address",
          "name": "voteeAddress",
          "type": "address"
        },
        {
          "indexed": false,
          "internalType": "string",
          "name": "voteeName",
          "type": "string"
        }
      ],
      "name": "CastVote",
      "type": "event"
    },
    {
      "anonymous": false,
      "inputs": [
        {
          "indexed": false,
          "internalType": "string",
          "name": "flight",
          "type": "string"
        },
        {
          "indexed": false,
          "internalType": "uint256",
          "name": "insuranceAmount",
          "type": "uint256"
        }
      ],
      "name": "FlightInsured",
      "type": "event"
    },
    {
      "anonymous": false,
      "inputs": [
        {
          "indexed": false,
          "internalType": "uint256",
          "name": "amount",
          "type": "uint256"
        },
        {
          "indexed": false,
          "internalType": "string",
          "name": "airlineName",
          "type": "string"
        },
        {
          "indexed": false,
          "internalType": "address",
          "name": "airlineAddress",
          "type": "address"
        }
      ],
      "name": "HasPayedSeedFund",
      "type": "event"
    },
    {
      "anonymous": false,
      "inputs": [
        {
          "indexed": false,
          "internalType": "address",
          "name": "newAirline",
          "type": "address"
        },
        {
          "indexed": false,
          "internalType": "string",
          "name": "name",
          "type": "string"
        }
      ],
      "name": "RegisteredNewAirline",
      "type": "event"
    },
    {
      "stateMutability": "payable",
      "type": "fallback",
      "payable": true
    },
    {
      "inputs": [],
      "name": "MINIMUM_SEED_FUND",
      "outputs": [
        {
          "internalType": "uint256",
          "name": "",
          "type": "uint256"
        }
      ],
      "stateMutability": "view",
      "type": "function",
      "constant": true
    },
    {
      "inputs": [],
      "name": "MIN_FLIGHT_INSURANCE_PRICE",
      "outputs": [
        {
          "internalType": "uint256",
          "name": "",
          "type": "uint256"
        }
      ],
      "stateMutability": "view",
      "type": "function",
      "constant": true
    },
    {
      "inputs": [
        {
          "internalType": "uint256",
          "name": "",
          "type": "uint256"
        }
      ],
      "name": "flightToPassengersKeys",
      "outputs": [
        {
          "internalType": "bytes32",
          "name": "",
          "type": "bytes32"
        }
      ],
      "stateMutability": "view",
      "type": "function",
      "constant": true
    },
    {
      "inputs": [],
      "name": "registeredAirlinesCount",
      "outputs": [
        {
          "internalType": "uint256",
          "name": "",
          "type": "uint256"
        }
      ],
      "stateMutability": "view",
      "type": "function",
      "constant": true
    },
    {
      "stateMutability": "payable",
      "type": "receive",
      "payable": true
    },
    {
      "inputs": [],
      "name": "isOperational",
      "outputs": [
        {
          "internalType": "bool",
          "name": "",
          "type": "bool"
        }
      ],
      "stateMutability": "view",
      "type": "function",
      "constant": true
    },
    {
      "inputs": [
        {
          "internalType": "address",
          "name": "airline",
          "type": "address"
        }
      ],
      "name": "isAirline",
      "outputs": [
        {
          "internalType": "bool",
          "name": "",
          "type": "bool"
        }
      ],
      "stateMutability": "view",
      "type": "function",
      "constant": true
    },
    {
      "inputs": [
        {
          "internalType": "address",
          "name": "airline",
          "type": "address"
        }
      ],
      "name": "hasPaidSeedFund",
      "outputs": [
        {
          "internalType": "bool",
          "name": "",
          "type": "bool"
        }
      ],
      "stateMutability": "view",
      "type": "function",
      "constant": true
    },
    {
      "inputs": [
        {
          "internalType": "bool",
          "name": "mode",
          "type": "bool"
        }
      ],
      "name": "setOperatingStatus",
      "outputs": [],
      "stateMutability": "nonpayable",
      "type": "function"
    },
    {
      "inputs": [
        {
          "internalType": "address",
          "name": "contractAddress",
          "type": "address"
        }
      ],
      "name": "authorizeContract",
      "outputs": [],
      "stateMutability": "nonpayable",
      "type": "function"
    },
    {
      "inputs": [
        {
          "internalType": "address",
          "name": "contractAddress",
          "type": "address"
        }
      ],
      "name": "deauthorizeContract",
      "outputs": [],
      "stateMutability": "nonpayable",
      "type": "function"
    },
    {
      "inputs": [
        {
          "internalType": "address",
          "name": "airline",
          "type": "address"
        }
      ],
      "name": "airlineHasReachedConsensus",
      "outputs": [
        {
          "internalType": "bool",
          "name": "",
          "type": "bool"
        }
      ],
      "stateMutability": "view",
      "type": "function",
      "constant": true
    },
    {
      "inputs": [
        {
          "internalType": "address",
          "name": "airline",
          "type": "address"
        }
      ],
      "name": "isAirlineActive",
      "outputs": [
        {
          "internalType": "bool",
          "name": "",
          "type": "bool"
        }
      ],
      "stateMutability": "view",
      "type": "function",
      "constant": true
    },
    {
      "inputs": [
        {
          "internalType": "address",
          "name": "passengerAddress",
          "type": "address"
        }
      ],
      "name": "getPassengerCredit",
      "outputs": [
        {
          "internalType": "uint256",
          "name": "",
          "type": "uint256"
        }
      ],
      "stateMutability": "view",
      "type": "function",
      "constant": true
    },
    {
      "inputs": [
        {
          "internalType": "address",
          "name": "passengerAddress",
          "type": "address"
        }
      ],
      "name": "clearPassengerCredit",
      "outputs": [],
      "stateMutability": "nonpayable",
      "type": "function"
    },
    {
      "inputs": [
        {
          "internalType": "address",
          "name": "newAirline",
          "type": "address"
        },
        {
          "internalType": "string",
          "name": "_name",
          "type": "string"
        }
      ],
      "name": "registerAirline",
      "outputs": [
        {
          "internalType": "bool",
          "name": "success",
          "type": "bool"
        },
        {
          "internalType": "uint256",
          "name": "votes",
          "type": "uint256"
        }
      ],
      "stateMutability": "nonpayable",
      "type": "function"
    },
    {
      "inputs": [
        {
          "internalType": "string",
          "name": "_flight",
          "type": "string"
        },
        {
          "internalType": "string",
          "name": "passengerName",
          "type": "string"
        },
        {
          "internalType": "address",
          "name": "passengerAddress",
          "type": "address"
        },
        {
          "internalType": "uint256",
          "name": "_insuranceAmount",
          "type": "uint256"
        }
      ],
      "name": "buyInsurance",
      "outputs": [
        {
          "internalType": "bool",
          "name": "",
          "type": "bool"
        }
      ],
      "stateMutability": "payable",
      "type": "function",
      "payable": true
    },
    {
      "inputs": [
        {
          "internalType": "string",
          "name": "_flight",
          "type": "string"
        },
        {
          "internalType": "uint256",
          "name": "creditAmount",
          "type": "uint256"
        }
      ],
      "name": "creditInsuree",
      "outputs": [],
      "stateMutability": "nonpayable",
      "type": "function"
    },
    {
      "inputs": [
        {
          "internalType": "address",
          "name": "passengerAddress",
          "type": "address"
        }
      ],
      "name": "pay",
      "outputs": [
        {
          "internalType": "uint256",
          "name": "",
          "type": "uint256"
        }
      ],
      "stateMutability": "nonpayable",
      "type": "function"
    },
    {
      "inputs": [],
      "name": "fund",
      "outputs": [],
      "stateMutability": "payable",
      "type": "function",
      "payable": true
    }
  ],
  "bytecode": "0x60a060405260016000806101000a81548160ff021916908315150217905550600067ffffffffffffffff8111156200003c576200003b6200037b565b5b6040519080825280602002602001820160405280156200006b5781602001602082028036833780820191505090505b5060079080519060200190620000839291906200023c565b503480156200009157600080fd5b5060405162002ece38038062002ece8339818101604052810190620000b7919062000414565b3373ffffffffffffffffffffffffffffffffffffffff1660808173ffffffffffffffffffffffffffffffffffffffff168152505060018060008373ffffffffffffffffffffffffffffffffffffffff1673ffffffffffffffffffffffffffffffffffffffff16815260200190815260200160002060000160006101000a81548160ff0219169083151502179055506000600160008373ffffffffffffffffffffffffffffffffffffffff1673ffffffffffffffffffffffffffffffffffffffff168152602001908152602001600020600101819055506040518060400160405280600c81526020017f4172696b20416972776179730000000000000000000000000000000000000000815250600160008373ffffffffffffffffffffffffffffffffffffffff1673ffffffffffffffffffffffffffffffffffffffff16815260200190815260200160002060030190805190602001906200021a929190620002cb565b506006600081548092919062000230906200047f565b91905055505062000530565b828054828255906000526020600020908101928215620002b8579160200282015b82811115620002b75782518260006101000a81548173ffffffffffffffffffffffffffffffffffffffff021916908373ffffffffffffffffffffffffffffffffffffffff160217905550916020019190600101906200025d565b5b509050620002c791906200035c565b5090565b828054620002d990620004fb565b90600052602060002090601f016020900481019282620002fd576000855562000349565b82601f106200031857805160ff191683800117855562000349565b8280016001018555821562000349579182015b82811115620003485782518255916020019190600101906200032b565b5b5090506200035891906200035c565b5090565b5b80821115620003775760008160009055506001016200035d565b5090565b7f4e487b7100000000000000000000000000000000000000000000000000000000600052604160045260246000fd5b600080fd5b600073ffffffffffffffffffffffffffffffffffffffff82169050919050565b6000620003dc82620003af565b9050919050565b620003ee81620003cf565b8114620003fa57600080fd5b50565b6000815190506200040e81620003e3565b92915050565b6000602082840312156200042d576200042c620003aa565b5b60006200043d84828501620003fd565b91505092915050565b7f4e487b7100000000000000000000000000000000000000000000000000000000600052601160045260246000fd5b6000819050919050565b60006200048c8262000475565b91507fffffffffffffffffffffffffffffffffffffffffffffffffffffffffffffffff8203620004c157620004c062000446565b5b600182019050919050565b7f4e487b7100000000000000000000000000000000000000000000000000000000600052602260045260246000fd5b600060028204905060018216806200051457607f821691505b6020821081036200052a5762000529620004cc565b5b50919050565b60805161297b62000553600039600081816109240152610e1e015261297b6000f3fe6080604052600436106101185760003560e01c80636e861c0e116100a0578063d46c102011610064578063d46c1020146103af578063d6138774146103ec578063dcb2292014610417578063ee38a74914610454578063f53aa2e2146104925761011f565b80636e861c0e146102fd578063b60d428814610326578063c18a451314610330578063cd76c7f114610359578063cd905dff146103845761011f565b80630e248a11116100e75780630e248a1114610201578063110466ed1461023e57806313b0633c1461026757806317768682146102a457806367561d93146102d45761011f565b806301566ea01461012157806303ee4e561461015e57806305b64e98146101875780630c11dedd146101c45761011f565b3661011f57005b005b34801561012d57600080fd5b5061014860048036038101906101439190611aa8565b6104bd565b6040516101559190611af0565b60405180910390f35b34801561016a57600080fd5b5061018560048036038101906101809190611c87565b610514565b005b34801561019357600080fd5b506101ae60048036038101906101a99190611aa8565b6106c6565b6040516101bb9190611cf2565b60405180910390f35b3480156101d057600080fd5b506101eb60048036038101906101e69190611aa8565b610712565b6040516101f89190611cf2565b60405180910390f35b34801561020d57600080fd5b5061022860048036038101906102239190611aa8565b6108c9565b6040516102359190611af0565b60405180910390f35b34801561024a57600080fd5b5061026560048036038101906102609190611d39565b610922565b005b34801561027357600080fd5b5061028e60048036038101906102899190611aa8565b6109cc565b60405161029b9190611af0565b60405180910390f35b6102be60048036038101906102b99190611d66565b610a8c565b6040516102cb9190611af0565b60405180910390f35b3480156102e057600080fd5b506102fb60048036038101906102f69190611aa8565b610dc1565b005b34801561030957600080fd5b50610324600480360381019061031f9190611aa8565b610e1c565b005b61032e610efc565b005b34801561033c57600080fd5b5061035760048036038101906103529190611aa8565b6111bb565b005b34801561036557600080fd5b5061036e611206565b60405161037b9190611cf2565b60405180910390f35b34801561039057600080fd5b50610399611212565b6040516103a69190611af0565b60405180910390f35b3480156103bb57600080fd5b506103d660048036038101906103d19190611aa8565b611228565b6040516103e39190611af0565b60405180910390f35b3480156103f857600080fd5b50610401611291565b60405161040e9190611cf2565b60405180910390f35b34801561042357600080fd5b5061043e60048036038101906104399190611e05565b61129d565b60405161044b9190611e4b565b60405180910390f35b34801561046057600080fd5b5061047b60048036038101906104769190611e66565b6112c1565b604051610489929190611ec2565b60405180910390f35b34801561049e57600080fd5b506104a7611522565b6040516104b49190611cf2565b60405180910390f35b6000678ac7230489e80000600160008473ffffffffffffffffffffffffffffffffffffffff1673ffffffffffffffffffffffffffffffffffffffff1681526020019081526020016000206001015410159050919050565b6000826040516020016105279190611f65565b6040516020818303038152906040528051906020012090506000805b6002805490508110156106bf576002818154811061056457610563611f7c565b5b90600052602060002001549150826004600084815260200190815260200160002060020154036106ac5760006004600084815260200190815260200160002060000160009054906101000a900473ffffffffffffffffffffffffffffffffffffffff169050600060046000858152602001908152602001600020600101549050600061060c60646105fe898561152890919063ffffffff16565b61153e90919063ffffffff16565b90506000600360008573ffffffffffffffffffffffffffffffffffffffff1673ffffffffffffffffffffffffffffffffffffffff16815260200190815260200160002060020154905081816106619190611fda565b600360008673ffffffffffffffffffffffffffffffffffffffff1673ffffffffffffffffffffffffffffffffffffffff16815260200190815260200160002060020181905550505050505b80806106b790612030565b915050610543565b5050505050565b6000600360008373ffffffffffffffffffffffffffffffffffffffff1673ffffffffffffffffffffffffffffffffffffffff168152602001908152602001600020600201549050919050565b60008060009054906101000a900460ff16610762576040517f08c379a0000000000000000000000000000000000000000000000000000000008152600401610759906120fb565b60405180910390fd5b600560003373ffffffffffffffffffffffffffffffffffffffff1673ffffffffffffffffffffffffffffffffffffffff16815260200190815260200160002060009054906101000a900460ff166107ee576040517f08c379a00000000000000000000000000000000000000000000000000000000081526004016107e590612167565b60405180910390fd5b6000600360008473ffffffffffffffffffffffffffffffffffffffff1673ffffffffffffffffffffffffffffffffffffffff16815260200190815260200160002060020154905060008111610878576040517f08c379a000000000000000000000000000000000000000000000000000000000815260040161086f9061221f565b60405180910390fd5b6000600360008573ffffffffffffffffffffffffffffffffffffffff1673ffffffffffffffffffffffffffffffffffffffff1681526020019081526020016000206002018190555080915050919050565b6000600160008373ffffffffffffffffffffffffffffffffffffffff1673ffffffffffffffffffffffffffffffffffffffff16815260200190815260200160002060000160009054906101000a900460ff169050919050565b7f000000000000000000000000000000000000000000000000000000000000000073ffffffffffffffffffffffffffffffffffffffff163373ffffffffffffffffffffffffffffffffffffffff16146109b0576040517f08c379a00000000000000000000000000000000000000000000000000000000081526004016109a790612167565b60405180910390fd5b806000806101000a81548160ff02191690831515021790555050565b6000806000600160008573ffffffffffffffffffffffffffffffffffffffff1673ffffffffffffffffffffffffffffffffffffffff16815260200190815260200160002060000160009054906101000a900460ff1690506000678ac7230489e80000600160008773ffffffffffffffffffffffffffffffffffffffff1673ffffffffffffffffffffffffffffffffffffffff1681526020019081526020016000206001015410159050818015610a7f5750805b9250829350505050919050565b60008060009054906101000a900460ff16610adc576040517f08c379a0000000000000000000000000000000000000000000000000000000008152600401610ad3906120fb565b60405180910390fd5b670de0b6b3a7640000821015610b27576040517f08c379a0000000000000000000000000000000000000000000000000000000008152600401610b1e906122d7565b60405180910390fd5b3073ffffffffffffffffffffffffffffffffffffffff166108fc349081150290604051600060405180830381858888f19350505050158015610b6d573d6000803e3d6000fd5b5082600360008573ffffffffffffffffffffffffffffffffffffffff1673ffffffffffffffffffffffffffffffffffffffff16815260200190815260200160002060000160006101000a81548173ffffffffffffffffffffffffffffffffffffffff021916908373ffffffffffffffffffffffffffffffffffffffff16021790555083600360008573ffffffffffffffffffffffffffffffffffffffff1673ffffffffffffffffffffffffffffffffffffffff1681526020019081526020016000206001019080519060200190610c45929190611909565b5060008386604051602001610c5b92919061233f565b604051602081830303815290604052805190602001209050600086604051602001610c869190611f65565b604051602081830303815290604052805190602001209050846004600084815260200190815260200160002060000160006101000a81548173ffffffffffffffffffffffffffffffffffffffff021916908373ffffffffffffffffffffffffffffffffffffffff1602179055508060046000848152602001908152602001600020600201819055508360046000848152602001908152602001600020600101819055506000805b600280549050811015610d7b578360028281548110610d4f57610d4e611f7c565b5b906000526020600020015403610d685760019150610d7b565b8080610d7390612030565b915050610d2d565b506000151581151503610db25760028390806001815401808255809150506001900390600052602060002001600090919091909150555b60019350505050949350505050565b6001600560008373ffffffffffffffffffffffffffffffffffffffff1673ffffffffffffffffffffffffffffffffffffffff16815260200190815260200160002060006101000a81548160ff02191690831515021790555050565b7f000000000000000000000000000000000000000000000000000000000000000073ffffffffffffffffffffffffffffffffffffffff163373ffffffffffffffffffffffffffffffffffffffff1614610eaa576040517f08c379a0000000000000000000000000000000000000000000000000000000008152600401610ea190612167565b60405180910390fd5b600560008273ffffffffffffffffffffffffffffffffffffffff1673ffffffffffffffffffffffffffffffffffffffff16815260200190815260200160002060006101000a81549060ff021916905550565b600160003373ffffffffffffffffffffffffffffffffffffffff1673ffffffffffffffffffffffffffffffffffffffff16815260200190815260200160002060000160009054906101000a900460ff16610f8b576040517f08c379a0000000000000000000000000000000000000000000000000000000008152600401610f82906123ff565b60405180910390fd5b6000600160003373ffffffffffffffffffffffffffffffffffffffff1673ffffffffffffffffffffffffffffffffffffffff1681526020019081526020016000206001015414611010576040517f08c379a000000000000000000000000000000000000000000000000000000000815260040161100790612491565b60405180910390fd5b678ac7230489e8000034101561105b576040517f08c379a000000000000000000000000000000000000000000000000000000000815260040161105290612549565b60405180910390fd5b3073ffffffffffffffffffffffffffffffffffffffff166108fc349081150290604051600060405180830381858888f193505050501580156110a1573d6000803e3d6000fd5b506110f734600160003373ffffffffffffffffffffffffffffffffffffffff1673ffffffffffffffffffffffffffffffffffffffff1681526020019081526020016000206001015461155490919063ffffffff16565b600160003373ffffffffffffffffffffffffffffffffffffffff1673ffffffffffffffffffffffffffffffffffffffff168152602001908152602001600020600101819055507f7282685da06d9c48b8e68d171e7ccc1827b780effe4b7f235048a8ef963f1cb434600160003373ffffffffffffffffffffffffffffffffffffffff1673ffffffffffffffffffffffffffffffffffffffff168152602001908152602001600020600301336040516111b19392919061266d565b60405180910390a1565b6000600360008373ffffffffffffffffffffffffffffffffffffffff1673ffffffffffffffffffffffffffffffffffffffff1681526020019081526020016000206002018190555050565b670de0b6b3a764000081565b60008060009054906101000a900460ff16905090565b600080611241600260065461153e90919063ffffffff16565b905080600160008573ffffffffffffffffffffffffffffffffffffffff1673ffffffffffffffffffffffffffffffffffffffff168152602001908152602001600020600201541015915050919050565b678ac7230489e8000081565b600281815481106112ad57600080fd5b906000526020600020016000915090505481565b6000806112cd846108c9565b1561130d576040517f08c379a00000000000000000000000000000000000000000000000000000000081526004016113049061271d565b60405180910390fd5b6004600654106113765760006113223361156a565b90508015611365576040517f08c379a000000000000000000000000000000000000000000000000000000000815260040161135c906127af565b60405180910390fd5b61137085853361161e565b50611514565b60018060008673ffffffffffffffffffffffffffffffffffffffff1673ffffffffffffffffffffffffffffffffffffffff16815260200190815260200160002060000160006101000a81548160ff02191690831515021790555082600160008673ffffffffffffffffffffffffffffffffffffffff1673ffffffffffffffffffffffffffffffffffffffff1681526020019081526020016000206003019080519060200190611426929190611909565b5061147c60018060008773ffffffffffffffffffffffffffffffffffffffff1673ffffffffffffffffffffffffffffffffffffffff1681526020019081526020016000206002015461155490919063ffffffff16565b600160008673ffffffffffffffffffffffffffffffffffffffff1673ffffffffffffffffffffffffffffffffffffffff16815260200190815260200160002060020181905550600660008154809291906114d590612030565b91905055507f234fea0fa5d0d6371abc6364829e96136d182d801277bb7a58f860410b3a7eae848460405161150b929190612808565b60405180910390a15b816000915091509250929050565b60065481565b600081836115369190612838565b905092915050565b6000818361154c91906128c1565b905092915050565b600081836115629190611fda565b905092915050565b6000806000905060005b600780549050811015611613578373ffffffffffffffffffffffffffffffffffffffff16600782815481106115ac576115ab611f7c565b5b9060005260206000200160009054906101000a900473ffffffffffffffffffffffffffffffffffffffff1673ffffffffffffffffffffffffffffffffffffffff160361160057600191508192505050611619565b808061160b90612030565b915050611574565b50809150505b919050565b61167360018060008673ffffffffffffffffffffffffffffffffffffffff1673ffffffffffffffffffffffffffffffffffffffff1681526020019081526020016000206002015461155490919063ffffffff16565b600160008573ffffffffffffffffffffffffffffffffffffffff1673ffffffffffffffffffffffffffffffffffffffff1681526020019081526020016000206002018190555060006116d1600260065461153e90919063ffffffff16565b90506000600160008673ffffffffffffffffffffffffffffffffffffffff1673ffffffffffffffffffffffffffffffffffffffff1681526020019081526020016000206002015490508181036118845760018060008773ffffffffffffffffffffffffffffffffffffffff1673ffffffffffffffffffffffffffffffffffffffff16815260200190815260200160002060000160006101000a81548160ff02191690831515021790555083600160008773ffffffffffffffffffffffffffffffffffffffff1673ffffffffffffffffffffffffffffffffffffffff16815260200190815260200160002060030190805190602001906117d1929190611909565b50600660008154809291906117e590612030565b9190505550600067ffffffffffffffff81111561180557611804611b26565b5b6040519080825280602002602001820160405280156118335781602001602082028036833780820191505090505b506007908051906020019061184992919061198f565b507f234fea0fa5d0d6371abc6364829e96136d182d801277bb7a58f860410b3a7eae858560405161187b929190612808565b60405180910390a15b7fa35fba70b0ffe23a8a27fe549e3dca48c0a9f342c242dc2fc7e235b795b9730183600160008673ffffffffffffffffffffffffffffffffffffffff1673ffffffffffffffffffffffffffffffffffffffff16815260200190815260200160002060030187876040516118fa94939291906128f2565b60405180910390a15050505050565b82805461191590612598565b90600052602060002090601f016020900481019282611937576000855561197e565b82601f1061195057805160ff191683800117855561197e565b8280016001018555821561197e579182015b8281111561197d578251825591602001919060010190611962565b5b50905061198b9190611a19565b5090565b828054828255906000526020600020908101928215611a08579160200282015b82811115611a075782518260006101000a81548173ffffffffffffffffffffffffffffffffffffffff021916908373ffffffffffffffffffffffffffffffffffffffff160217905550916020019190600101906119af565b5b509050611a159190611a19565b5090565b5b80821115611a32576000816000905550600101611a1a565b5090565b6000604051905090565b600080fd5b600080fd5b600073ffffffffffffffffffffffffffffffffffffffff82169050919050565b6000611a7582611a4a565b9050919050565b611a8581611a6a565b8114611a9057600080fd5b50565b600081359050611aa281611a7c565b92915050565b600060208284031215611abe57611abd611a40565b5b6000611acc84828501611a93565b91505092915050565b60008115159050919050565b611aea81611ad5565b82525050565b6000602082019050611b056000830184611ae1565b92915050565b600080fd5b600080fd5b6000601f19601f8301169050919050565b7f4e487b7100000000000000000000000000000000000000000000000000000000600052604160045260246000fd5b611b5e82611b15565b810181811067ffffffffffffffff82111715611b7d57611b7c611b26565b5b80604052505050565b6000611b90611a36565b9050611b9c8282611b55565b919050565b600067ffffffffffffffff821115611bbc57611bbb611b26565b5b611bc582611b15565b9050602081019050919050565b82818337600083830152505050565b6000611bf4611bef84611ba1565b611b86565b905082815260208101848484011115611c1057611c0f611b10565b5b611c1b848285611bd2565b509392505050565b600082601f830112611c3857611c37611b0b565b5b8135611c48848260208601611be1565b91505092915050565b6000819050919050565b611c6481611c51565b8114611c6f57600080fd5b50565b600081359050611c8181611c5b565b92915050565b60008060408385031215611c9e57611c9d611a40565b5b600083013567ffffffffffffffff811115611cbc57611cbb611a45565b5b611cc885828601611c23565b9250506020611cd985828601611c72565b9150509250929050565b611cec81611c51565b82525050565b6000602082019050611d076000830184611ce3565b92915050565b611d1681611ad5565b8114611d2157600080fd5b50565b600081359050611d3381611d0d565b92915050565b600060208284031215611d4f57611d4e611a40565b5b6000611d5d84828501611d24565b91505092915050565b60008060008060808587031215611d8057611d7f611a40565b5b600085013567ffffffffffffffff811115611d9e57611d9d611a45565b5b611daa87828801611c23565b945050602085013567ffffffffffffffff811115611dcb57611dca611a45565b5b611dd787828801611c23565b9350506040611de887828801611a93565b9250506060611df987828801611c72565b91505092959194509250565b600060208284031215611e1b57611e1a611a40565b5b6000611e2984828501611c72565b91505092915050565b6000819050919050565b611e4581611e32565b82525050565b6000602082019050611e606000830184611e3c565b92915050565b60008060408385031215611e7d57611e7c611a40565b5b6000611e8b85828601611a93565b925050602083013567ffffffffffffffff811115611eac57611eab611a45565b5b611eb885828601611c23565b9150509250929050565b6000604082019050611ed76000830185611ae1565b611ee46020830184611ce3565b9392505050565b600081519050919050565b600081905092915050565b60005b83811015611f1f578082015181840152602081019050611f04565b83811115611f2e576000848401525b50505050565b6000611f3f82611eeb565b611f498185611ef6565b9350611f59818560208601611f01565b80840191505092915050565b6000611f718284611f34565b915081905092915050565b7f4e487b7100000000000000000000000000000000000000000000000000000000600052603260045260246000fd5b7f4e487b7100000000000000000000000000000000000000000000000000000000600052601160045260246000fd5b6000611fe582611c51565b9150611ff083611c51565b9250827fffffffffffffffffffffffffffffffffffffffffffffffffffffffffffffffff0382111561202557612024611fab565b5b828201905092915050565b600061203b82611c51565b91507fffffffffffffffffffffffffffffffffffffffffffffffffffffffffffffffff820361206d5761206c611fab565b5b600182019050919050565b600082825260208201905092915050565b7f436f6e74726163742069732063757272656e746c79206e6f74206f706572617460008201527f696f6e616c000000000000000000000000000000000000000000000000000000602082015250565b60006120e5602583612078565b91506120f082612089565b604082019050919050565b60006020820190508181036000830152612114816120d8565b9050919050565b7f43616c6c6572206973206e6f7420636f6e7472616374206f776e657200000000600082015250565b6000612151601c83612078565b915061215c8261211b565b602082019050919050565b6000602082019050818103600083015261218081612144565b9050919050565b7f494e53554646494349454e542043524544495420414d4f554e543a20596f752060008201527f646f6e7420686176652073756666696365696e742063726564697420746f207760208201527f6974686472617700000000000000000000000000000000000000000000000000604082015250565b6000612209604783612078565b915061221482612187565b606082019050919050565b60006020820190508181036000830152612238816121fc565b9050919050565b7f494e53554646494349454e5420414d4f554e543a204d696e696d756d2070726960008201527f636520666f7220666c6967687420696e737572616e636520697320312065746860208201527f6572000000000000000000000000000000000000000000000000000000000000604082015250565b60006122c1604283612078565b91506122cc8261223f565b606082019050919050565b600060208201905081810360008301526122f0816122b4565b9050919050565b60008160601b9050919050565b600061230f826122f7565b9050919050565b600061232182612304565b9050919050565b61233961233482611a6a565b612316565b82525050565b600061234b8285612328565b60148201915061235b8284611f34565b91508190509392505050565b7f46554e44494e47204245464f524520524547495354524154494f4e3a20506c6560008201527f61736520656e73757265206169726c696e65206973207265676973746572656460208201527f206265666f726520706179696e6720736565642066756e640000000000000000604082015250565b60006123e9605883612078565b91506123f482612367565b606082019050919050565b60006020820190508181036000830152612418816123dc565b9050919050565b7f444f55424c45205041594d454e5420415454454d50543a205468616e6b20796f60008201527f752c2062757420796f752063616e206f6e6c7920706179206f6e63652e000000602082015250565b600061247b603d83612078565b91506124868261241f565b604082019050919050565b600060208201905081810360008301526124aa8161246e565b9050919050565b7f494e53554646494349454e5420414d4f554e543a20506c6561736520656e737560008201527f726520746f206d65657420746865206d696e696d756d20616d6f756e74206f6660208201527f20313020657468657220666f722074686520736565642066756e640000000000604082015250565b6000612533605b83612078565b915061253e826124b1565b606082019050919050565b6000602082019050818103600083015261256281612526565b9050919050565b7f4e487b7100000000000000000000000000000000000000000000000000000000600052602260045260246000fd5b600060028204905060018216806125b057607f821691505b6020821081036125c3576125c2612569565b5b50919050565b60008190508160005260206000209050919050565b600081546125eb81612598565b6125f58186612078565b94506001821660008114612610576001811461262257612655565b60ff1983168652602086019350612655565b61262b856125c9565b60005b8381101561264d5781548189015260018201915060208101905061262e565b808801955050505b50505092915050565b61266781611a6a565b82525050565b60006060820190506126826000830186611ce3565b818103602083015261269481856125de565b90506126a3604083018461265e565b949350505050565b7f4149524c494e4520414c52454144592045584953543a20506c6561736520726560008201527f6769737465722061206e6577206169726c696e65000000000000000000000000602082015250565b6000612707603483612078565b9150612712826126ab565b604082019050919050565b60006020820190508181036000830152612736816126fa565b9050919050565b7f444f55424c4520564f54494e473a20566f746572206973206f6e6c7920616c6c60008201527f6f77656420746f2063617374203120766f74652e000000000000000000000000602082015250565b6000612799603483612078565b91506127a48261273d565b604082019050919050565b600060208201905081810360008301526127c88161278c565b9050919050565b60006127da82611eeb565b6127e48185612078565b93506127f4818560208601611f01565b6127fd81611b15565b840191505092915050565b600060408201905061281d600083018561265e565b818103602083015261282f81846127cf565b90509392505050565b600061284382611c51565b915061284e83611c51565b9250817fffffffffffffffffffffffffffffffffffffffffffffffffffffffffffffffff048311821515161561288757612886611fab565b5b828202905092915050565b7f4e487b7100000000000000000000000000000000000000000000000000000000600052601260045260246000fd5b60006128cc82611c51565b91506128d783611c51565b9250826128e7576128e6612892565b5b828204905092915050565b6000608082019050612907600083018761265e565b818103602083015261291981866125de565b9050612928604083018561265e565b818103606083015261293a81846127cf565b90509594505050505056fea264697066735822122086490db2d7ed79c87e502733fba6b2122808bc37dcc41aaf179451c5cbc8927264736f6c634300080d0033",
  "immutableReferences": {
    "1235": [
      {
        "length": 32,
        "start": 2340
      },
      {
        "length": 32,
        "start": 3614
      }
    ]
  },
  "source": "// SPDX-License-Identifier: MIT\npragma solidity ^0.8.9;\n\nimport \"@openzeppelin/contracts/utils/math/SafeMath.sol\";\n\ncontract FlightSuretyData {\n    using SafeMath for uint256;\n\n    // TODO: prefix all storage variables with s_\n    // TODO: replace require statements with revert statement\n    // TODO: create custom error messages\n    // TODO: reduce reading frequency from global variables\n    // TODO: make variables constant wherever possible.\n    // TODO: capitalize struct names\n    // TODO: implement re-entrancy guard\n    // TODO: implement rate-limiting guard\n    // TODO: go over security best practices.\n\n\n    /********************************************************************************************/\n    /*                                       DATA VARIABLES                                     */\n    /********************************************************************************************/\n    // address private firstAirline;                                       // Account of first airline deployed with contract\n    address private immutable i_contractOwner;                                      // Account used to deploy contract\n    bool private operational = true;                                    // Blocks all state changes throughout the contract if false\n    \n    struct airlineInfo{\n        bool isRegistered;\n        uint256 seedFund;\n        uint256 votes;\n        string name;\n        \n    }\n    mapping (address => airlineInfo) airlines;\n\n    // variable to store insurancePayouts address => uint256;\n\n\n    // Track Passengers Insurance \n    struct Passenger {\n        address passengersAddress;\n        string name;\n        uint256 credit;\n    }\n\n    // Track Insured Flights\n    struct FlightInsurance {\n        address passenger;\n        uint256 insuranceAmount;\n        bytes32 flightKey; \n    }\n\n    // Used to Map Flights to Passengers with Insurance \n    bytes32[] public flightToPassengersKeys;\n\n    mapping (address => Passenger) private s_passengers;\n    mapping (bytes32 => FlightInsurance) private s_flightInsurances;\n\n    uint public constant MINIMUM_SEED_FUND = 10 ether;\n    uint public constant MIN_FLIGHT_INSURANCE_PRICE = 1 ether;\n    mapping(address => bool) private authorizedContracts;\n    uint256 public registeredAirlinesCount;\n\n\n    address[] private _voters = new address[](0);\n    uint constant MULTIPARTY_THRESHOLD = 4;\n\n    /********************************************************************************************/\n    /*                                       EVENT DEFINITIONS                                  */\n    /********************************************************************************************/\n\n    event HasPayedSeedFund(uint amount, string airlineName, address airlineAddress);\n    event RegisteredNewAirline(address newAirline, string name);\n    event CastVote(address voterAddress, string voterName, address voteeAddress, string voteeName );\n    event FlightInsured(string flight, uint256 insuranceAmount);\n \n\n    /**\n    * @dev Constructor\n    *      The deploying account becomes contractOwner\n    */\n    constructor ( address firstAirline) \n    {\n        i_contractOwner = msg.sender;\n\n        // Initialize first airline\n        airlines[firstAirline].isRegistered = true;\n        airlines[firstAirline].seedFund = 0; // Don't fund in order to make test pass\n        airlines[firstAirline].name = 'Arik Airways';\n\n        registeredAirlinesCount++;\n    }\n\n    /********************************************************************************************/\n    /*                                       FUNCTION MODIFIERS                                 */\n    /********************************************************************************************/\n\n    // Modifiers help avoid duplication of code. They are typically used to validate something\n    // before a function is allowed to be executed.\n\n    /**\n    * @dev Modifier that requires the \"operational\" boolean variable to be \"true\"\n    *      This is used on all state changing functions to pause the contract in \n    *      the event there is an issue that needs to be fixed\n    */\n    modifier requireIsOperational() \n    {\n        require(operational, \"Contract is currently not operational\");\n        _;  // All modifiers require an \"_\" which indicates where the function body will be added\n    }\n\n    /**\n    * @dev Modifier that requires the \"ContractOwner\" account to be the function caller\n    */\n    modifier requireContractOwner()\n    {\n        require(msg.sender == i_contractOwner, \"Caller is not contract owner\");\n        _;\n    }\n    modifier requireIsAuthorizedCaller()\n    {\n        require(authorizedContracts[msg.sender], \"Caller is not contract owner\");\n        _;\n    }\n\n    \n\n    /********************************************************************************************/\n    /*                                       UTILITY FUNCTIONS                                  */\n    /********************************************************************************************/\n\n    /**\n    * @dev Get operating status of contract\n    *\n    * @return A bool that is the current operating status\n    */      \n    function isOperational() \n                            external \n                            view \n                            returns(bool) \n    {\n        return operational;\n    }\n\n    function isAirline(address airline) public view  returns (bool){\n        return airlines[airline].isRegistered;\n    }\n\n\n    /**\n    * @dev Check if airline has paid seed fund\n    *\n    * @return A bool if seedFund amount is greater than initial value of 0\n    */  \n    function hasPaidSeedFund ( address airline) public view returns (bool){\n        return airlines[airline].seedFund >= MINIMUM_SEED_FUND; \n    }\n\n    /**\n    * @dev Sets contract operations on/off\n    *\n    * When operational mode is disabled, all write transactions except for this one will fail\n    */    \n    function setOperatingStatus\n                            (\n                                bool mode\n                            ) \n                            external\n                            requireContractOwner \n    {\n        operational = mode;\n    }\n\n    function authorizeContract (address contractAddress) external {\n        authorizedContracts[contractAddress] = true;\n    }\n\n    function deauthorizeContract (address contractAddress) external requireContractOwner {\n        delete authorizedContracts[contractAddress];\n    }\n\n\n    function checkDuplicateVotes(address voter) internal view returns (bool){\n        bool isDuplicate = false;\n        for(uint c=0; c<_voters.length; c++) {\n            if (_voters[c] == voter) {\n                isDuplicate = true;\n                return isDuplicate;\n            }\n        }\n        return isDuplicate;\n    }\n\n    function voteForAirline(address newAirline, string memory _name, address voter) internal {\n\n\n        // Increment votes field for airline about to be registered.\n        airlines[newAirline].votes = airlines[newAirline].votes.add(1);\n\n         // Get minimum voters for consensus (50% of registered airlines)\n        uint minimumVotersRequired = registeredAirlinesCount.div(2);\n        uint votesReceived = airlines[newAirline].votes;\n\n        if ( votesReceived == minimumVotersRequired) {\n            airlines[newAirline].isRegistered = true;\n            airlines[newAirline].name = _name;\n\n            registeredAirlinesCount++;\n\n            // Reset voters after successfully registering a new airline;\n            _voters = new address[](0);   \n\n            // Emit event when new airline is registered\n            emit RegisteredNewAirline(newAirline, _name);   \n        }\n\n        // Emit event after every vote showing which airline voted.\n        emit CastVote(voter,airlines[voter].name,newAirline, _name);\n\n    }\n\n    function airlineHasReachedConsensus(address airline) external view returns(bool) {\n        uint256 numberOfRequiredVotes = registeredAirlinesCount.div(2); \n        return airlines[airline].votes >= numberOfRequiredVotes;\n    }\n\n\n    function isAirlineActive(address airline) external view returns (bool){\n        bool state;\n\n        bool isRegistered = airlines[airline].isRegistered;\n        bool isFunded = airlines[airline].seedFund >= MINIMUM_SEED_FUND;\n\n        state = isRegistered && isFunded;\n\n        return state;\n    }\n\n    function getFlightKey (\n         address airline, \n        string memory flight, \n        uint256 timestamp\n        ) pure internal returns(bytes32) {\n             return keccak256(abi.encodePacked(airline, flight, timestamp));\n    }\n\n    function getPassengerCredit(address passengerAddress) external view returns(uint256){\n        return s_passengers[passengerAddress].credit;\n    }\n\n    function clearPassengerCredit(address passengerAddress) external {\n        s_passengers[passengerAddress].credit = 0;\n    }\n\n    /********************************************************************************************/\n    /*                                     SMART CONTRACT FUNCTIONS                             */\n    /********************************************************************************************/\n\n   /**\n    * @dev Add an airline to the registration queue\n    *      Can only be called from FlightSuretyApp contract\n    *\n    */   \n    // Function writes to the state hence, remains in the data contract.\n    function registerAirline ( address newAirline, string memory _name ) external  returns (bool success, uint256 votes) {\n\n        // Confirm msg.sender is not trying to register an airline more than once\n        require(!isAirline(newAirline), \"AIRLINE ALREADY EXIST: Please register a new airline\");\n\n\n        // Use multiparty consensus if registered airlines reaches 4: 50% vote is required from registered user to approve registering new airline. \n        if(registeredAirlinesCount >= MULTIPARTY_THRESHOLD){\n            \n        // Check for duplicate vote by an airline (msg.sender).\n        bool isDuplicate = checkDuplicateVotes(msg.sender);\n        \n        require(!isDuplicate, \"DOUBLE VOTING: Voter is only allowed to cast 1 vote.\");\n\n        // Emit event to tell front-end the airline that recently voted\n\n\n        // Atleast 50% of registered airlines should vote to register airline\n        voteForAirline(newAirline, _name,msg.sender);\n\n       \n        }else{\n        \n        // Register airline\n        airlines[newAirline].isRegistered = true;\n        airlines[newAirline].name = _name;\n        airlines[newAirline].votes = airlines[newAirline].votes.add(1);\n\n        // Keep track of registered airlines by incrementing on each successful registration\n        registeredAirlinesCount++;\n\n        emit RegisteredNewAirline(newAirline, _name);\n        }\n\n\n        return (success, 0);\n    }\n\n\n\n   /**\n    * @dev Buy insurance for a flight\n    *\n    */   \n    // \n    function buyInsurance ( string memory _flight, string memory passengerName, address passengerAddress, uint256 _insuranceAmount ) external requireIsOperational payable returns(bool) {\n\n        // Passenger cannot buy insurance for the same flight more than once.\n\n\n        // Passengers may pay up to 1 ether for purchasing flight insurance\n        require(_insuranceAmount >= MIN_FLIGHT_INSURANCE_PRICE,\"INSUFFICIENT AMOUNT: Minimum price for flight insurance is 1 ether\");\n\n        // Transfer payment to DAO\n        payable(address(this)).transfer(msg.value);\n\n\n        // Setup Passenger - Use Later to credit them\n        s_passengers[passengerAddress].passengersAddress = passengerAddress;\n        s_passengers[passengerAddress].name = passengerName;\n\n        // Setup Flight Insurance Mapping to Passenger\n        bytes32 key = keccak256(abi.encodePacked(passengerAddress, _flight));\n        bytes32 flightKey = keccak256(abi.encodePacked(_flight));\n\n        s_flightInsurances[key].passenger = passengerAddress;\n        s_flightInsurances[key].flightKey = flightKey;\n        s_flightInsurances[key].insuranceAmount = _insuranceAmount;\n\n        // Checks array to see if hashed value of passengerAddress and flight exist.\n        bool keyFound = false;\n        for (uint i; i < flightToPassengersKeys.length; i++) {\n            if (flightToPassengersKeys[i] == key) {\n                keyFound = true;\n                break;\n            }\n        }\n\n        // If the key is not found, then it must be a new key, hence, pushed into the array.\n        if (keyFound == false) {\n            flightToPassengersKeys.push(key);\n        }\n\n        return(true);\n    }\n\n    /**\n     *  @dev Credits payouts to insurees\n    */\n    function creditInsuree ( string memory _flight, uint256 creditAmount) external {\n\n\n        // has the flight\n        bytes32 flightKey = keccak256(abi.encodePacked(_flight));\n\n        // var for storing array items of flightToPassengersKeys (hashed values of passengerAddress and flight)\n        bytes32 key;\n\n        for (uint i; i < flightToPassengersKeys.length; i++) {\n\n            key = flightToPassengersKeys[i];\n\n\n            if (s_flightInsurances[key].flightKey == flightKey) {\n                address passengerAddress = s_flightInsurances[key].passenger;\n                uint256 insuranceAmount = s_flightInsurances[key].insuranceAmount;\n\n                // Credit passenger with insurance payout \n                uint256 insuranceAmountBenefit =insuranceAmount.mul(creditAmount).div(100);\n                uint256 currentCredit = s_passengers[passengerAddress].credit;\n                s_passengers[passengerAddress].credit = currentCredit + insuranceAmountBenefit;\n            }\n        }\n    }\n    \n\n    /**\n     *  @dev Transfers eligible payout funds to insuree\n        This function transfers the funds accumulated for the passenger\n     *\n    */\n    function pay(address passengerAddress) external requireIsOperational requireIsAuthorizedCaller returns(uint256){\n\n        // fetch payout amount - passengers.credit\n        uint256 currentCredit = s_passengers[passengerAddress].credit;\n\n        // require that credit amount is greater than 0\n        require(currentCredit > 0, 'INSUFFICIENT CREDIT AMOUNT: You dont have sufficeint credit to withdraw');\n\n        // deduct amount to be payed out from the credit balance first\n        s_passengers[passengerAddress].credit = 0;\n\n        return currentCredit;\n    }\n\n   /**\n    * @dev Initial funding for the insurance. Unless there are too many delayed flights\n    *      resulting in insurance payouts, the contract should be self-sustaining\n    *\n    */   \n    function fund () external payable {\n\n        // Require that an airline needs to be registered before paying seed fund.\n        require(airlines[msg.sender].isRegistered,\"FUNDING BEFORE REGISTRATION: Please ensure airline is registered before paying seed fund\");\n\n        // Require that an airline doesn't pay for seed funds more than once.\n        require(airlines[msg.sender].seedFund == 0,\"DOUBLE PAYMENT ATTEMPT: Thank you, but you can only pay once.\");\n\n        require(msg.value >= MINIMUM_SEED_FUND,\"INSUFFICIENT AMOUNT: Please ensure to meet the minimum amount of 10 ether for the seed fund\");\n\n        // Transfer value to contract balance\n        payable(address(this)).transfer(msg.value);\n\n        // Set amount paid by airline.\n        airlines[msg.sender].seedFund = airlines[msg.sender].seedFund.add(msg.value);\n\n        // emit event for successful payment\n        emit HasPayedSeedFund(msg.value,airlines[msg.sender].name,msg.sender);\n    }\n\n\n    /**\n    * @dev Fallback function for funding smart contract.\n    *\n    */\n    fallback() external payable {\n        // fund();\n    }\n\n    receive() external payable { \n        // custom function code\n        // fund();\n    }\n\n\n}\n\n",
  "sourcePath": "/Users/apple/Documents/personal/tutorials/ethereum/flightSuretyDApp/contracts/flightSuretyData.sol",
  "compiler": {
    "name": "solc",
    "version": "0.8.13+commit.abaa5c0e.Emscripten.clang"
  },
  "schemaVersion": "3.4.7",
  "updatedAt": "2022-05-14T14:40:34.099Z",
  "networkType": "ethereum",
  "devdoc": {
    "kind": "dev",
    "methods": {
      "buyInsurance(string,string,address,uint256)": {
        "details": "Buy insurance for a flight"
      },
      "constructor": {
        "details": "Constructor      The deploying account becomes contractOwner"
      },
      "creditInsuree(string,uint256)": {
        "details": "Credits payouts to insurees"
      },
      "fund()": {
        "details": "Initial funding for the insurance. Unless there are too many delayed flights      resulting in insurance payouts, the contract should be self-sustaining"
      },
      "hasPaidSeedFund(address)": {
        "details": "Check if airline has paid seed fund",
        "returns": {
          "_0": "A bool if seedFund amount is greater than initial value of 0"
        }
      },
      "isOperational()": {
        "details": "Get operating status of contract",
        "returns": {
          "_0": "A bool that is the current operating status"
        }
      },
      "pay(address)": {
        "details": "Transfers eligible payout funds to insuree This function transfers the funds accumulated for the passenger"
      },
      "registerAirline(address,string)": {
        "details": "Add an airline to the registration queue      Can only be called from FlightSuretyApp contract"
      },
      "setOperatingStatus(bool)": {
        "details": "Sets contract operations on/off When operational mode is disabled, all write transactions except for this one will fail"
      }
    },
    "version": 1
  },
  "userdoc": {
    "kind": "user",
    "methods": {},
    "version": 1
  }
}