{
  "contractName": "FlightSuretyApp",
  "abi": [
    {
      "inputs": [
        {
          "internalType": "address",
          "name": "dataContract",
          "type": "address"
        }
      ],
      "stateMutability": "nonpayable",
      "type": "constructor"
    },
    {
      "anonymous": false,
      "inputs": [
        {
          "indexed": false,
          "internalType": "bytes32",
          "name": "flightKey",
          "type": "bytes32"
        },
        {
          "indexed": false,
          "internalType": "address",
          "name": "airline",
          "type": "address"
        }
      ],
      "name": "FlightRegistered",
      "type": "event"
    },
    {
      "anonymous": false,
      "inputs": [
        {
          "indexed": false,
          "internalType": "address",
          "name": "airline",
          "type": "address"
        },
        {
          "indexed": false,
          "internalType": "string",
          "name": "flight",
          "type": "string"
        },
        {
          "indexed": false,
          "internalType": "uint256",
          "name": "timestamp",
          "type": "uint256"
        },
        {
          "indexed": false,
          "internalType": "uint8",
          "name": "status",
          "type": "uint8"
        }
      ],
      "name": "FlightStatusInfo",
      "type": "event"
    },
    {
      "anonymous": false,
      "inputs": [
        {
          "indexed": false,
          "internalType": "address",
          "name": "airline",
          "type": "address"
        },
        {
          "indexed": false,
          "internalType": "string",
          "name": "flight",
          "type": "string"
        },
        {
          "indexed": false,
          "internalType": "uint256",
          "name": "timestamp",
          "type": "uint256"
        },
        {
          "indexed": false,
          "internalType": "uint8",
          "name": "status",
          "type": "uint8"
        }
      ],
      "name": "OracleReport",
      "type": "event"
    },
    {
      "anonymous": false,
      "inputs": [
        {
          "indexed": false,
          "internalType": "uint8",
          "name": "index",
          "type": "uint8"
        },
        {
          "indexed": false,
          "internalType": "address",
          "name": "airline",
          "type": "address"
        },
        {
          "indexed": false,
          "internalType": "string",
          "name": "flight",
          "type": "string"
        },
        {
          "indexed": false,
          "internalType": "uint256",
          "name": "timestamp",
          "type": "uint256"
        }
      ],
      "name": "OracleRequest",
      "type": "event"
    },
    {
      "inputs": [],
      "name": "REGISTRATION_FEE",
      "outputs": [
        {
          "internalType": "uint256",
          "name": "",
          "type": "uint256"
        }
      ],
      "stateMutability": "view",
      "type": "function",
      "constant": true
    },
    {
      "inputs": [],
      "name": "isOperational",
      "outputs": [
        {
          "internalType": "bool",
          "name": "",
          "type": "bool"
        }
      ],
      "stateMutability": "pure",
      "type": "function",
      "constant": true
    },
    {
      "inputs": [
        {
          "internalType": "address",
          "name": "airline",
          "type": "address"
        },
        {
          "internalType": "uint256",
          "name": "timestamp",
          "type": "uint256"
        },
        {
          "internalType": "string",
          "name": "flight",
          "type": "string"
        }
      ],
      "name": "isFlightRegistered",
      "outputs": [
        {
          "internalType": "bool",
          "name": "",
          "type": "bool"
        }
      ],
      "stateMutability": "view",
      "type": "function",
      "constant": true
    },
    {
      "inputs": [
        {
          "internalType": "address",
          "name": "airline",
          "type": "address"
        }
      ],
      "name": "isAirlineFunded",
      "outputs": [
        {
          "internalType": "bool",
          "name": "",
          "type": "bool"
        }
      ],
      "stateMutability": "view",
      "type": "function",
      "constant": true
    },
    {
      "inputs": [
        {
          "internalType": "address",
          "name": "newAirline",
          "type": "address"
        },
        {
          "internalType": "string",
          "name": "_name",
          "type": "string"
        }
      ],
      "name": "registerAirline",
      "outputs": [],
      "stateMutability": "nonpayable",
      "type": "function"
    },
    {
      "inputs": [
        {
          "internalType": "uint256",
          "name": "_timestamp",
          "type": "uint256"
        },
        {
          "internalType": "string",
          "name": "_flight",
          "type": "string"
        }
      ],
      "name": "registerFlight",
      "outputs": [],
      "stateMutability": "nonpayable",
      "type": "function"
    },
    {
      "inputs": [],
      "name": "fundAirline",
      "outputs": [],
      "stateMutability": "payable",
      "type": "function",
      "payable": true
    },
    {
      "inputs": [
        {
          "internalType": "string",
          "name": "_flight",
          "type": "string"
        },
        {
          "internalType": "string",
          "name": "passengerName",
          "type": "string"
        },
        {
          "internalType": "address",
          "name": "passengerAddress",
          "type": "address"
        },
        {
          "internalType": "uint256",
          "name": "_timestamp",
          "type": "uint256"
        },
        {
          "internalType": "address",
          "name": "airline",
          "type": "address"
        }
      ],
      "name": "buyFlightInsurance",
      "outputs": [],
      "stateMutability": "payable",
      "type": "function",
      "payable": true
    },
    {
      "inputs": [
        {
          "internalType": "address",
          "name": "airline",
          "type": "address"
        },
        {
          "internalType": "string",
          "name": "flight",
          "type": "string"
        },
        {
          "internalType": "uint256",
          "name": "timestamp",
          "type": "uint256"
        }
      ],
      "name": "getFlightStatus",
      "outputs": [
        {
          "internalType": "uint8",
          "name": "",
          "type": "uint8"
        }
      ],
      "stateMutability": "view",
      "type": "function",
      "constant": true
    },
    {
      "inputs": [],
      "name": "withdrawCredit",
      "outputs": [],
      "stateMutability": "nonpayable",
      "type": "function"
    },
    {
      "inputs": [],
      "name": "registerOracle",
      "outputs": [],
      "stateMutability": "payable",
      "type": "function",
      "payable": true
    },
    {
      "inputs": [
        {
          "internalType": "address",
          "name": "airline",
          "type": "address"
        },
        {
          "internalType": "string",
          "name": "flight",
          "type": "string"
        },
        {
          "internalType": "uint256",
          "name": "timestamp",
          "type": "uint256"
        }
      ],
      "name": "fetchFlightStatus",
      "outputs": [],
      "stateMutability": "nonpayable",
      "type": "function"
    },
    {
      "inputs": [],
      "name": "getMyIndexes",
      "outputs": [
        {
          "internalType": "uint8[3]",
          "name": "",
          "type": "uint8[3]"
        }
      ],
      "stateMutability": "view",
      "type": "function",
      "constant": true
    },
    {
      "inputs": [
        {
          "internalType": "uint8",
          "name": "index",
          "type": "uint8"
        },
        {
          "internalType": "address",
          "name": "airline",
          "type": "address"
        },
        {
          "internalType": "string",
          "name": "flight",
          "type": "string"
        },
        {
          "internalType": "uint256",
          "name": "timestamp",
          "type": "uint256"
        },
        {
          "internalType": "uint8",
          "name": "statusCode",
          "type": "uint8"
        }
      ],
      "name": "submitOracleResponse",
      "outputs": [],
      "stateMutability": "nonpayable",
      "type": "function"
    }
  ],
  "bytecode": "0x608060405260006004553480156200001657600080fd5b5060405162002f1d38038062002f1d83398181016040528101906200003c91906200012e565b33600160006101000a81548173ffffffffffffffffffffffffffffffffffffffff021916908373ffffffffffffffffffffffffffffffffffffffff160217905550806000806101000a81548173ffffffffffffffffffffffffffffffffffffffff021916908373ffffffffffffffffffffffffffffffffffffffff1602179055505062000160565b600080fd5b600073ffffffffffffffffffffffffffffffffffffffff82169050919050565b6000620000f682620000c9565b9050919050565b6200010881620000e9565b81146200011457600080fd5b50565b6000815190506200012881620000fd565b92915050565b600060208284031215620001475762000146620000c4565b5b6000620001578482850162000117565b91505092915050565b612dad80620001706000396000f3fe6080604052600436106100dd5760003560e01c8063c10f27001161007f578063ee38a74911610059578063ee38a7491461024d578063f057375214610276578063f53b6d651461029f578063f83f11c0146102dc576100dd565b8063c10f2700146101e2578063c36f38741461020b578063cd905dff14610222576100dd565b80635f1cc0e6116100bb5780635f1cc0e61461014557806364b4f751146101705780639de5f9571461019b5780639ed18927146101d8576100dd565b8063148d9872146100e2578063339d2590146100fe57806340face3a14610108575b600080fd5b6100fc60048036038101906100f79190611c31565b610305565b005b6101066104b5565b005b34801561011457600080fd5b5061012f600480360381019061012a9190611ce4565b6105a2565b60405161013c9190611d6e565b60405180910390f35b34801561015157600080fd5b5061015a6105e0565b6040516101679190611e41565b60405180910390f35b34801561017c57600080fd5b50610185610720565b6040516101929190611e6b565b60405180910390f35b3480156101a757600080fd5b506101c260048036038101906101bd9190611e86565b61072c565b6040516101cf9190611f04565b60405180910390f35b6101e061076a565b005b3480156101ee57600080fd5b5061020960048036038101906102049190611f4b565b6107f7565b005b34801561021757600080fd5b50610220610b86565b005b34801561022e57600080fd5b50610237610dad565b6040516102449190611d6e565b60405180910390f35b34801561025957600080fd5b50610274600480360381019061026f9190611fe2565b610db6565b005b34801561028257600080fd5b5061029d6004803603810190610298919061203e565b610fee565b005b3480156102ab57600080fd5b506102c660048036038101906102c1919061209a565b611386565b6040516102d39190611d6e565b60405180910390f35b3480156102e857600080fd5b5061030360048036038101906102fe9190611e86565b61142a565b005b60008054906101000a900473ffffffffffffffffffffffffffffffffffffffff1673ffffffffffffffffffffffffffffffffffffffff1663cd905dff6040518163ffffffff1660e01b8152600401602060405180830381865afa158015610370573d6000803e3d6000fd5b505050506040513d601f19601f8201168201806040525081019061039491906120f3565b6103d3576040517f08c379a00000000000000000000000000000000000000000000000000000000081526004016103ca906121a3565b60405180910390fd5b6103de8183876105a2565b61041d576040517f08c379a00000000000000000000000000000000000000000000000000000000081526004016104149061225b565b60405180910390fd5b60008054906101000a900473ffffffffffffffffffffffffffffffffffffffff1673ffffffffffffffffffffffffffffffffffffffff166317768682868686346040518563ffffffff1660e01b815260040161047c9493929190612301565b600060405180830381600087803b15801561049657600080fd5b505af11580156104aa573d6000803e3d6000fd5b505050505050505050565b670de0b6b3a7640000341015610500576040517f08c379a00000000000000000000000000000000000000000000000000000000081526004016104f7906123a0565b60405180910390fd5b600061050b33611524565b9050604051806040016040528060011515815260200182815250600560003373ffffffffffffffffffffffffffffffffffffffff1673ffffffffffffffffffffffffffffffffffffffff16815260200190815260200160002060008201518160000160006101000a81548160ff02191690831515021790555060208201518160010190600361059b9291906118e4565b5090505050565b6000806105b085848661170a565b90506003600082815260200190815260200160002060000160009054906101000a900460ff169150509392505050565b6105e861197e565b600560003373ffffffffffffffffffffffffffffffffffffffff1673ffffffffffffffffffffffffffffffffffffffff16815260200190815260200160002060000160009054906101000a900460ff16610677576040517f08c379a000000000000000000000000000000000000000000000000000000000815260040161066e9061240c565b60405180910390fd5b600560003373ffffffffffffffffffffffffffffffffffffffff1673ffffffffffffffffffffffffffffffffffffffff168152602001908152602001600020600101600380602002604051908101604052809291908260038015610716576020028201916000905b82829054906101000a900460ff1660ff16815260200190600101906020826000010492830192600103820291508084116106df5790505b5050505050905090565b670de0b6b3a764000081565b60008061073a85858561170a565b90506003600082815260200190815260200160002060000160019054906101000a900460ff169150509392505050565b60008054906101000a900473ffffffffffffffffffffffffffffffffffffffff1673ffffffffffffffffffffffffffffffffffffffff1663ca1d209d346040518263ffffffff1660e01b81526004016107c39190611e6b565b600060405180830381600087803b1580156107dd57600080fd5b505af11580156107f1573d6000803e3d6000fd5b50505050565b8460ff16600560003373ffffffffffffffffffffffffffffffffffffffff1673ffffffffffffffffffffffffffffffffffffffff1681526020019081526020016000206001016000600381106108505761084f61242c565b5b602091828204019190069054906101000a900460ff1660ff1614806108e457508460ff16600560003373ffffffffffffffffffffffffffffffffffffffff1673ffffffffffffffffffffffffffffffffffffffff1681526020019081526020016000206001016001600381106108c9576108c861242c565b5b602091828204019190069054906101000a900460ff1660ff16145b8061095e57508460ff16600560003373ffffffffffffffffffffffffffffffffffffffff1673ffffffffffffffffffffffffffffffffffffffff1681526020019081526020016000206001016002600381106109435761094261242c565b5b602091828204019190069054906101000a900460ff1660ff16145b61099d576040517f08c379a0000000000000000000000000000000000000000000000000000000008152600401610994906124cd565b60405180910390fd5b6000858585856040516020016109b694939291906125c8565b6040516020818303038152906040528051906020012090506006600082815260200190815260200160002060000160149054906101000a900460ff16610a31576040517f08c379a0000000000000000000000000000000000000000000000000000000008152600401610a2890612684565b60405180910390fd5b6006600082815260200190815260200160002060010160008360ff1660ff168152602001908152602001600020339080600181540180825580915050600190039060005260206000200160009091909190916101000a81548173ffffffffffffffffffffffffffffffffffffffff021916908373ffffffffffffffffffffffffffffffffffffffff1602179055507f43c853095c2752648493c88b4baac4d580d2594ffb00c6f1d4242d844514f78385858585604051610af494939291906126a4565b60405180910390a160036006600083815260200190815260200160002060010160008460ff1660ff1681526020019081526020016000208054905010610b7e577fe23f5229de535c091e3b7bec2665f5d698192d3b31393066e8987b7a05076b6c85858585604051610b6994939291906126a4565b60405180910390a1610b7d85858585611740565b5b505050505050565b60008054906101000a900473ffffffffffffffffffffffffffffffffffffffff1673ffffffffffffffffffffffffffffffffffffffff1663cd905dff6040518163ffffffff1660e01b8152600401602060405180830381865afa158015610bf1573d6000803e3d6000fd5b505050506040513d601f19601f82011682018060405250810190610c1591906120f3565b610c54576040517f08c379a0000000000000000000000000000000000000000000000000000000008152600401610c4b906121a3565b60405180910390fd5b3273ffffffffffffffffffffffffffffffffffffffff163373ffffffffffffffffffffffffffffffffffffffff1614610cc2576040517f08c379a0000000000000000000000000000000000000000000000000000000008152600401610cb990612762565b60405180910390fd5b60008060009054906101000a900473ffffffffffffffffffffffffffffffffffffffff1673ffffffffffffffffffffffffffffffffffffffff16630c11dedd336040518263ffffffff1660e01b8152600401610d1e9190612782565b6020604051808303816000875af1158015610d3d573d6000803e3d6000fd5b505050506040513d601f19601f82011682018060405250810190610d6191906127b2565b90503373ffffffffffffffffffffffffffffffffffffffff166108fc829081150290604051600060405180830381858888f19350505050158015610da9573d6000803e3d6000fd5b5050565b60006001905090565b60008054906101000a900473ffffffffffffffffffffffffffffffffffffffff1673ffffffffffffffffffffffffffffffffffffffff1663cd905dff6040518163ffffffff1660e01b8152600401602060405180830381865afa158015610e21573d6000803e3d6000fd5b505050506040513d601f19601f82011682018060405250810190610e4591906120f3565b610e84576040517f08c379a0000000000000000000000000000000000000000000000000000000008152600401610e7b906121a3565b60405180910390fd5b60008054906101000a900473ffffffffffffffffffffffffffffffffffffffff1673ffffffffffffffffffffffffffffffffffffffff166313b0633c336040518263ffffffff1660e01b8152600401610edd9190612782565b602060405180830381865afa158015610efa573d6000803e3d6000fd5b505050506040513d601f19601f82011682018060405250810190610f1e91906120f3565b610f5d576040517f08c379a0000000000000000000000000000000000000000000000000000000008152600401610f54906128c3565b60405180910390fd5b60008054906101000a900473ffffffffffffffffffffffffffffffffffffffff1673ffffffffffffffffffffffffffffffffffffffff1663ee38a74983836040518363ffffffff1660e01b8152600401610fb89291906128e3565b600060405180830381600087803b158015610fd257600080fd5b505af1158015610fe6573d6000803e3d6000fd5b505050505050565b60008054906101000a900473ffffffffffffffffffffffffffffffffffffffff1673ffffffffffffffffffffffffffffffffffffffff1663cd905dff6040518163ffffffff1660e01b8152600401602060405180830381865afa158015611059573d6000803e3d6000fd5b505050506040513d601f19601f8201168201806040525081019061107d91906120f3565b6110bc576040517f08c379a00000000000000000000000000000000000000000000000000000000081526004016110b3906121a3565b60405180910390fd5b60008054906101000a900473ffffffffffffffffffffffffffffffffffffffff1673ffffffffffffffffffffffffffffffffffffffff166313b0633c336040518263ffffffff1660e01b81526004016111159190612782565b602060405180830381865afa158015611132573d6000803e3d6000fd5b505050506040513d601f19601f8201168201806040525081019061115691906120f3565b611195576040517f08c379a000000000000000000000000000000000000000000000000000000000815260040161118c906128c3565b60405180910390fd5b60006111a233838561170a565b90506000826040516020016111b79190612913565b60405160208183030381529060405280519060200120600360008481526020019081526020016000206003016040516020016111f39190612a1e565b60405160208183030381529060405280519060200120149050801561124d576040517f08c379a000000000000000000000000000000000000000000000000000000000815260040161124490612acd565b60405180910390fd5b826003600084815260200190815260200160002060030190805190602001906112779291906119a0565b50336003600084815260200190815260200160002060020160006101000a81548173ffffffffffffffffffffffffffffffffffffffff021916908373ffffffffffffffffffffffffffffffffffffffff16021790555060006003600084815260200190815260200160002060000160016101000a81548160ff021916908360ff16021790555083600360008481526020019081526020016000206001018190555060016003600084815260200190815260200160002060000160006101000a81548160ff0219169083151502179055507ff36888bfb476ff598f8870d1a63a133e2181fbd122a802be9bf6aeef4e730f8d8233604051611378929190612b06565b60405180910390a150505050565b60008060009054906101000a900473ffffffffffffffffffffffffffffffffffffffff1673ffffffffffffffffffffffffffffffffffffffff1663f53b6d65836040518263ffffffff1660e01b81526004016113e29190612782565b602060405180830381865afa1580156113ff573d6000803e3d6000fd5b505050506040513d601f19601f8201168201806040525081019061142391906120f3565b9050919050565b60006114353361185f565b905060008185858560405160200161145094939291906125c8565b6040516020818303038152906040528051906020012090506000600660008381526020019081526020016000209050338160000160006101000a81548173ffffffffffffffffffffffffffffffffffffffff021916908373ffffffffffffffffffffffffffffffffffffffff16021790555060018160000160146101000a81548160ff0219169083151502179055507f3ed01f2c3fc24c6b329d931e35b03e390d23497d22b3f90e15b600343e93df11838787876040516115149493929190612b2f565b60405180910390a1505050505050565b61152c61197e565b61153461197e565b61153d8361185f565b816000600381106115515761155061242c565b5b602002019060ff16908160ff1681525050806000600381106115765761157561242c565b5b60200201518160016003811061158f5761158e61242c565b5b602002019060ff16908160ff16815250505b806000600381106115b5576115b461242c565b5b602002015160ff16816001600381106115d1576115d061242c565b5b602002015160ff1603611611576115e78361185f565b816001600381106115fb576115fa61242c565b5b602002019060ff16908160ff16815250506115a1565b806001600381106116255761162461242c565b5b60200201518160026003811061163e5761163d61242c565b5b602002019060ff16908160ff16815250505b806000600381106116645761166361242c565b5b602002015160ff16816002600381106116805761167f61242c565b5b602002015160ff1614806116c95750806001600381106116a3576116a261242c565b5b602002015160ff16816002600381106116bf576116be61242c565b5b602002015160ff16145b15611701576116d78361185f565b816002600381106116eb576116ea61242c565b5b602002019060ff16908160ff1681525050611650565b80915050919050565b600083838360405160200161172193929190612b7b565b6040516020818303038152906040528051906020012090509392505050565b600061174d85858561170a565b9050816003600083815260200190815260200160002060000160016101000a81548160ff021916908360ff160217905550601460ff168260ff160361181b5760008054906101000a900473ffffffffffffffffffffffffffffffffffffffff1673ffffffffffffffffffffffffffffffffffffffff166303ee4e568560966040518363ffffffff1660e01b81526004016117e8929190612bef565b600060405180830381600087803b15801561180257600080fd5b505af1158015611816573d6000803e3d6000fd5b505050505b7fe23f5229de535c091e3b7bec2665f5d698192d3b31393066e8987b7a05076b6c8585858560405161185094939291906126a4565b60405180910390a15050505050565b600080600a905060008160ff166004600081548092919061187f90612c4e565b919050554361188e9190612c96565b40856040516020016118a1929190612ceb565b6040516020818303038152906040528051906020012060001c6118c49190612d46565b905060fa60045411156118da5760006004819055505b8092505050919050565b826003601f0160209004810192821561196d5791602002820160005b8382111561193e57835183826101000a81548160ff021916908360ff1602179055509260200192600101602081600001049283019260010302611900565b801561196b5782816101000a81549060ff021916905560010160208160000104928301926001030261193e565b505b50905061197a9190611a26565b5090565b6040518060600160405280600390602082028036833780820191505090505090565b8280546119ac90612959565b90600052602060002090601f0160209004810192826119ce5760008555611a15565b82601f106119e757805160ff1916838001178555611a15565b82800160010185558215611a15579182015b82811115611a145782518255916020019190600101906119f9565b5b509050611a229190611a26565b5090565b5b80821115611a3f576000816000905550600101611a27565b5090565b6000604051905090565b600080fd5b600080fd5b600080fd5b600080fd5b6000601f19601f8301169050919050565b7f4e487b7100000000000000000000000000000000000000000000000000000000600052604160045260246000fd5b611aaa82611a61565b810181811067ffffffffffffffff82111715611ac957611ac8611a72565b5b80604052505050565b6000611adc611a43565b9050611ae88282611aa1565b919050565b600067ffffffffffffffff821115611b0857611b07611a72565b5b611b1182611a61565b9050602081019050919050565b82818337600083830152505050565b6000611b40611b3b84611aed565b611ad2565b905082815260208101848484011115611b5c57611b5b611a5c565b5b611b67848285611b1e565b509392505050565b600082601f830112611b8457611b83611a57565b5b8135611b94848260208601611b2d565b91505092915050565b600073ffffffffffffffffffffffffffffffffffffffff82169050919050565b6000611bc882611b9d565b9050919050565b611bd881611bbd565b8114611be357600080fd5b50565b600081359050611bf581611bcf565b92915050565b6000819050919050565b611c0e81611bfb565b8114611c1957600080fd5b50565b600081359050611c2b81611c05565b92915050565b600080600080600060a08688031215611c4d57611c4c611a4d565b5b600086013567ffffffffffffffff811115611c6b57611c6a611a52565b5b611c7788828901611b6f565b955050602086013567ffffffffffffffff811115611c9857611c97611a52565b5b611ca488828901611b6f565b9450506040611cb588828901611be6565b9350506060611cc688828901611c1c565b9250506080611cd788828901611be6565b9150509295509295909350565b600080600060608486031215611cfd57611cfc611a4d565b5b6000611d0b86828701611be6565b9350506020611d1c86828701611c1c565b925050604084013567ffffffffffffffff811115611d3d57611d3c611a52565b5b611d4986828701611b6f565b9150509250925092565b60008115159050919050565b611d6881611d53565b82525050565b6000602082019050611d836000830184611d5f565b92915050565b600060039050919050565b600081905092915050565b6000819050919050565b600060ff82169050919050565b611dbf81611da9565b82525050565b6000611dd18383611db6565b60208301905092915050565b6000602082019050919050565b611df381611d89565b611dfd8184611d94565b9250611e0882611d9f565b8060005b83811015611e39578151611e208782611dc5565b9650611e2b83611ddd565b925050600181019050611e0c565b505050505050565b6000606082019050611e566000830184611dea565b92915050565b611e6581611bfb565b82525050565b6000602082019050611e806000830184611e5c565b92915050565b600080600060608486031215611e9f57611e9e611a4d565b5b6000611ead86828701611be6565b935050602084013567ffffffffffffffff811115611ece57611ecd611a52565b5b611eda86828701611b6f565b9250506040611eeb86828701611c1c565b9150509250925092565b611efe81611da9565b82525050565b6000602082019050611f196000830184611ef5565b92915050565b611f2881611da9565b8114611f3357600080fd5b50565b600081359050611f4581611f1f565b92915050565b600080600080600060a08688031215611f6757611f66611a4d565b5b6000611f7588828901611f36565b9550506020611f8688828901611be6565b945050604086013567ffffffffffffffff811115611fa757611fa6611a52565b5b611fb388828901611b6f565b9350506060611fc488828901611c1c565b9250506080611fd588828901611f36565b9150509295509295909350565b60008060408385031215611ff957611ff8611a4d565b5b600061200785828601611be6565b925050602083013567ffffffffffffffff81111561202857612027611a52565b5b61203485828601611b6f565b9150509250929050565b6000806040838503121561205557612054611a4d565b5b600061206385828601611c1c565b925050602083013567ffffffffffffffff81111561208457612083611a52565b5b61209085828601611b6f565b9150509250929050565b6000602082840312156120b0576120af611a4d565b5b60006120be84828501611be6565b91505092915050565b6120d081611d53565b81146120db57600080fd5b50565b6000815190506120ed816120c7565b92915050565b60006020828403121561210957612108611a4d565b5b6000612117848285016120de565b91505092915050565b600082825260208201905092915050565b7f436f6e74726163742069732063757272656e746c79206e6f74206f706572617460008201527f696f6e616c000000000000000000000000000000000000000000000000000000602082015250565b600061218d602583612120565b915061219882612131565b604082019050919050565b600060208201905081810360008301526121bc81612180565b9050919050565b7f464c49474854204e4f5420464f554e443a20596f752063616e206f6e6c79206260008201527f757920696e737572616e636520666f72207265676973746572656420666c696760208201527f6874730000000000000000000000000000000000000000000000000000000000604082015250565b6000612245604383612120565b9150612250826121c3565b606082019050919050565b6000602082019050818103600083015261227481612238565b9050919050565b600081519050919050565b60005b838110156122a4578082015181840152602081019050612289565b838111156122b3576000848401525b50505050565b60006122c48261227b565b6122ce8185612120565b93506122de818560208601612286565b6122e781611a61565b840191505092915050565b6122fb81611bbd565b82525050565b6000608082019050818103600083015261231b81876122b9565b9050818103602083015261232f81866122b9565b905061233e60408301856122f2565b61234b6060830184611e5c565b95945050505050565b7f526567697374726174696f6e2066656520697320726571756972656400000000600082015250565b600061238a601c83612120565b915061239582612354565b602082019050919050565b600060208201905081810360008301526123b98161237d565b9050919050565b7f4e6f74207265676973746572656420617320616e206f7261636c650000000000600082015250565b60006123f6601b83612120565b9150612401826123c0565b602082019050919050565b60006020820190508181036000830152612425816123e9565b9050919050565b7f4e487b7100000000000000000000000000000000000000000000000000000000600052603260045260246000fd5b7f496e64657820646f6573206e6f74206d61746368206f7261636c65207265717560008201527f6573740000000000000000000000000000000000000000000000000000000000602082015250565b60006124b7602383612120565b91506124c28261245b565b604082019050919050565b600060208201905081810360008301526124e6816124aa565b9050919050565b60008160f81b9050919050565b6000612505826124ed565b9050919050565b61251d61251882611da9565b6124fa565b82525050565b60008160601b9050919050565b600061253b82612523565b9050919050565b600061254d82612530565b9050919050565b61256561256082611bbd565b612542565b82525050565b600081905092915050565b60006125818261227b565b61258b818561256b565b935061259b818560208601612286565b80840191505092915050565b6000819050919050565b6125c26125bd82611bfb565b6125a7565b82525050565b60006125d4828761250c565b6001820191506125e48286612554565b6014820191506125f48285612576565b915061260082846125b1565b60208201915081905095945050505050565b7f466c69676874206f722074696d657374616d7020646f206e6f74206d6174636860008201527f206f7261636c6520726571756573740000000000000000000000000000000000602082015250565b600061266e602f83612120565b915061267982612612565b604082019050919050565b6000602082019050818103600083015261269d81612661565b9050919050565b60006080820190506126b960008301876122f2565b81810360208301526126cb81866122b9565b90506126da6040830185611e5c565b6126e76060830184611ef5565b95945050505050565b7f57524f4e472043414c4c45523a204f6e6c7920454f412063616e2063616c6c2060008201527f746869732066756e6374696f6e00000000000000000000000000000000000000602082015250565b600061274c602d83612120565b9150612757826126f0565b604082019050919050565b6000602082019050818103600083015261277b8161273f565b9050919050565b600060208201905061279760008301846122f2565b92915050565b6000815190506127ac81611c05565b92915050565b6000602082840312156127c8576127c7611a4d565b5b60006127d68482850161279d565b91505092915050565b7f20494e414354495645204149524c494e453a20436f6e6669726d20746861742060008201527f796f75206861766520626f7468206265656e207265676973746572656420616e60208201527f64206861766520706169642074686520736565642066756e64206265666f726560408201527f20617474656d7074696e67207265676973746572696e672061206e657720616960608201527f726c696e652e0000000000000000000000000000000000000000000000000000608082015250565b60006128ad608683612120565b91506128b8826127df565b60a082019050919050565b600060208201905081810360008301526128dc816128a0565b9050919050565b60006040820190506128f860008301856122f2565b818103602083015261290a81846122b9565b90509392505050565b600061291f8284612576565b915081905092915050565b7f4e487b7100000000000000000000000000000000000000000000000000000000600052602260045260246000fd5b6000600282049050600182168061297157607f821691505b6020821081036129845761298361292a565b5b50919050565b60008190508160005260206000209050919050565b600081546129ac81612959565b6129b6818661256b565b945060018216600081146129d157600181146129e257612a15565b60ff19831686528186019350612a15565b6129eb8561298a565b60005b83811015612a0d578154818901526001820191506020810190506129ee565b838801955050505b50505092915050565b6000612a2a828461299f565b915081905092915050565b7f444f55424c4520524547495354524154494f4e20415454454d50543a2054686560008201527f20676976656e20666c696768742068617320616c7265616479206265656e207260208201527f6567697374657265640000000000000000000000000000000000000000000000604082015250565b6000612ab7604983612120565b9150612ac282612a35565b606082019050919050565b60006020820190508181036000830152612ae681612aaa565b9050919050565b6000819050919050565b612b0081612aed565b82525050565b6000604082019050612b1b6000830185612af7565b612b2860208301846122f2565b9392505050565b6000608082019050612b446000830187611ef5565b612b5160208301866122f2565b8181036040830152612b6381856122b9565b9050612b726060830184611e5c565b95945050505050565b6000612b878286612554565b601482019150612b978285612576565b9150612ba382846125b1565b602082019150819050949350505050565b6000819050919050565b6000612bd9612bd4612bcf84611da9565b612bb4565b611bfb565b9050919050565b612be981612bbe565b82525050565b60006040820190508181036000830152612c0981856122b9565b9050612c186020830184612be0565b9392505050565b7f4e487b7100000000000000000000000000000000000000000000000000000000600052601160045260246000fd5b6000612c5982611bfb565b91507fffffffffffffffffffffffffffffffffffffffffffffffffffffffffffffffff8203612c8b57612c8a612c1f565b5b600182019050919050565b6000612ca182611bfb565b9150612cac83611bfb565b925082821015612cbf57612cbe612c1f565b5b828203905092915050565b6000819050919050565b612ce5612ce082612aed565b612cca565b82525050565b6000612cf78285612cd4565b602082019150612d078284612554565b6014820191508190509392505050565b7f4e487b7100000000000000000000000000000000000000000000000000000000600052601260045260246000fd5b6000612d5182611bfb565b9150612d5c83611bfb565b925082612d6c57612d6b612d17565b5b82820690509291505056fea26469706673582212209059c53b11ec6a48e83bdbe6c1ce39f8090d57c9135191959d0ec99e8994f12364736f6c634300080e0033",
  "immutableReferences": {},
  "source": "// SPDX-License-Identifier: MIT\npragma solidity ^0.8.13;\n\n// It's important to avoid vulnerabilities due to numeric overflow bugs\n// OpenZeppelin's SafeMath library, when used correctly, protects agains such bugs\n// More info: https://www.nccgroup.trust/us/about-us/newsroom-and-events/blog/2018/november/smart-contract-insecurity-bad-arithmetic/\n\nimport \"@openzeppelin/contracts/utils/math/SafeMath.sol\";\n\n/************************************************** */\n/* FlightSurety Smart Contract                      */\n/************************************************** */\ncontract FlightSuretyApp {\n    using SafeMath for uint256; // Allow SafeMath functions to be called for all uint256 types (similar to \"prototype\" in Javascript)\n\n\n    IFlightSuretyData flightSuretyData;\n\n    /********************************************************************************************/\n    /*                                       DATA VARIABLES                                     */\n    /********************************************************************************************/\n\n    // Flight status codees\n    uint8 private constant STATUS_CODE_UNKNOWN = 0;\n    uint8 private constant STATUS_CODE_ON_TIME = 10;\n    uint8 private constant STATUS_CODE_LATE_AIRLINE = 20;\n    uint8 private constant STATUS_CODE_LATE_WEATHER = 30;\n    uint8 private constant STATUS_CODE_LATE_TECHNICAL = 40;\n    uint8 private constant STATUS_CODE_LATE_OTHER = 50;\n\n\n    // Credit value\n    uint8 private constant PASSENGER_CREDIT_VALUE = 150;\n\n    address private contractOwner;          // Account used to deploy contract\n    address private firstAirline;\n\n    struct Flight {\n        bool isRegistered;\n        uint8 statusCode;\n        uint256 updatedTimestamp;        \n        address airline;\n        string flight;\n    }\n    mapping(bytes32 => Flight) private s_flights;\n\n\n\n    /********************************************************************************************/\n    /*                                       EVENT DEFINITIONS                                  */\n    /********************************************************************************************/\n \n    event FlightRegistered(bytes32 flightKey, address airline);\n\n    /********************************************************************************************/\n    /*                                       FUNCTION MODIFIERS                                 */\n    /********************************************************************************************/\n\n    // Modifiers help avoid duplication of code. They are typically used to validate something\n    // before a function is allowed to be executed.\n\n    /**\n    * @dev Modifier that requires the \"operational\" boolean variable to be \"true\"\n    *      This is used on all state changing functions to pause the contract in \n    *      the event there is an issue that needs to be fixed\n    */\n    modifier requireIsOperational() \n    {\n         // Modify to call data contract's status\n        require(flightSuretyData.isOperational(), \"Contract is currently not operational\");  \n        _;  // All modifiers require an \"_\" which indicates where the function body will be added\n    }\n\n    /**\n    * @dev Modifier that requires the caller of registerAirline to be a registeredAirline.\n    */\n    \n\n    /**\n    * @dev Modifier that requires the \"ContractOwner\" account to be the function caller\n    */\n    modifier requireContractOwner()\n    {\n        require(msg.sender == contractOwner, \"Caller is not contract owner\");\n        _;\n    }\n\n    modifier requireAirlineIsActive() \n    {\n        require(flightSuretyData.isAirlineActive(msg.sender), \" INACTIVE AIRLINE: Confirm that you have both been registered and have paid the seed fund before attempting registering a new airline.\");  \n        _;  \n    }\n\n    // Modifier to check if number of registered users have reached 4\n\n    /********************************************************************************************/\n    /*                                       CONSTRUCTOR                                        */\n    /********************************************************************************************/\n\n    /**\n    * @dev Contract constructor\n    *\n    */\n    constructor ( address dataContract){\n\n        contractOwner = msg.sender;\n\n        flightSuretyData = IFlightSuretyData(dataContract);\n\n    }\n\n    /********************************************************************************************/\n    /*                                       UTILITY FUNCTIONS                                  */\n    /********************************************************************************************/\n\n    function isOperational() \n                            public \n                            pure \n                            returns(bool) \n    {\n        return true;  // Modify to call data contract's status\n    }\n\n    function isFlightRegistered(address airline, uint timestamp, string memory flight) public view returns (bool){\n       \n       bytes32 flightKey = getFlightKey(airline, flight, timestamp);\n        return s_flights[flightKey].isRegistered;\n\n    }\n\n    function isAirlineFunded(address airline) public view returns(bool){\n        return flightSuretyData.isAirlineFunded(airline);\n    }\n\n\n    /********************************************************************************************/\n    /*                                     SMART CONTRACT FUNCTIONS                             */\n    /********************************************************************************************/\n\n  \n   /**\n    * @dev Add an airline to the registration queue\n    *\n    */   \n    function registerAirline ( address newAirline, string memory _name ) public requireIsOperational requireAirlineIsActive {\n        flightSuretyData.registerAirline(newAirline, _name);\n    }\n\n\n\n\n   /**\n    * @dev Register a future flight for insuring.\n    *\n    */  \n    function registerFlight (uint _timestamp, string memory _flight ) public requireIsOperational requireAirlineIsActive{\n        \n\n        bytes32 flightKey = getFlightKey(msg.sender, _flight, _timestamp);\n\n        bool isRegisteredTwice = keccak256(abi.encodePacked((s_flights[flightKey].flight))) == keccak256(abi.encodePacked((_flight)));\n        require(!isRegisteredTwice,'DOUBLE REGISTRATION ATTEMPT: The given flight has already been registered');\n\n        // TODO: WRITE TO FLIGHTS STORAGE ONLY ONCE\n\n        s_flights[flightKey].flight = _flight;\n        s_flights[flightKey].airline = msg.sender;\n        s_flights[flightKey].statusCode = STATUS_CODE_UNKNOWN;\n        s_flights[flightKey].updatedTimestamp = _timestamp;\n        s_flights[flightKey].isRegistered = true;\n\n        emit FlightRegistered(flightKey, msg.sender);\n\n    }\n\n    function fundAirline() public payable{\n        flightSuretyData.fund(msg.value);\n    }\n\n    function buyFlightInsurance ( \n        string memory _flight, \n        string memory passengerName,\n        address passengerAddress,\n        uint256 _timestamp, \n        address airline \n        ) public payable requireIsOperational{\n\n        // confirm that flight is registered.\n        require(isFlightRegistered(airline, _timestamp, _flight),'FLIGHT NOT FOUND: You can only buy insurance for registered flights');\n\n        flightSuretyData.buyInsurance(_flight, passengerName, passengerAddress, msg.value);\n    }\n    \n   /**\n    * @dev Called after oracle has updated flight status\n    *\n    */  \n    function processFlightStatus ( \n        address airline, \n        string memory flight, \n        uint256 timestamp, \n        uint8 statusCode ) internal {\n\n            //generate flightKey\n            bytes32 flightKey = getFlightKey(airline, flight, timestamp);\n\n            // update flight status code\n            s_flights[flightKey].statusCode = statusCode;\n\n            // When flight is delayed credit passengers with insurance \n          if (statusCode == STATUS_CODE_LATE_AIRLINE) {\n            flightSuretyData.creditInsuree(flight, PASSENGER_CREDIT_VALUE);\n          }\n\n            emit FlightStatusInfo(airline, flight, timestamp, statusCode);\n\n    }\n    \n\n    // Get the current flight status\n    function getFlightStatus (\n                                address airline,\n                                string memory flight,                        \n                                uint256 timestamp     \n                            )\n                            public\n                            view\n                            returns(uint8)\n    {\n        bytes32 flightKey = getFlightKey(airline, flight, timestamp);\n        return s_flights[flightKey].statusCode;\n    }\n\n    function withdrawCredit() public requireIsOperational{\n         // verify it's be en called from an externally owned account - msg.sender == tx.origin\n        require(msg.sender == tx.origin,'WRONG CALLER: Only EOA can call this function');\n\n        \n        // transfer funds to passenger account.\n        uint256 creditToPay = flightSuretyData.pay(msg.sender);\n\n        payable(msg.sender).transfer(creditToPay);\n \n    }\n\n   \n\n// region ORACLE MANAGEMENT\n\n    // Incremented to add pseudo-randomness at various points\n    uint256 private nonce = 0;    \n\n    // Fee to be paid when registering oracle\n    uint256 public constant REGISTRATION_FEE = 1 ether;\n\n    // Number of oracles that must respond for valid status\n    uint256 private constant MIN_RESPONSES = 3;\n\n\n    struct Oracle {\n        bool isRegistered;\n        uint8[3] indexes;        \n    }\n\n    // Track all registered oracles\n    mapping(address => Oracle) private oracles;\n\n    // Model for responses from oracles\n    struct ResponseInfo {\n        address requester;                              // Account that requested status\n        bool isOpen;                                    // If open, oracle responses are accepted\n        mapping(uint8 => address[]) responses;          // Mapping key is the status code reported\n                                                        // This lets us group responses and identify                                                 // the response that majority of the oracles\n    }\n\n    // Track all oracle responses\n    // Key = hash(index, flight, timestamp)\n    mapping(bytes32 => ResponseInfo) private oracleResponses;\n\n\n\n    // Event fired each time an oracle submits a response\n    event FlightStatusInfo(address airline, string flight, uint256 timestamp, uint8 status);\n\n    event OracleReport(address airline, string flight, uint256 timestamp, uint8 status);\n\n    // Event fired when flight status request is submitted\n    // Oracles track this and if they have a matching index\n    // they fetch data and submit a response\n    event OracleRequest(uint8 index, address airline, string flight, uint256 timestamp);\n\n\n\n\n    // Register an oracle with the contract\n    function registerOracle ( ) external payable{\n        // Require registration fee\n        require(msg.value >= REGISTRATION_FEE, \"Registration fee is required\");\n\n        // uint8[3] memory indexes = [5,6,8];\n        uint8[3] memory indexes = generateIndexes(msg.sender);\n\n        oracles[msg.sender] = Oracle({\n                                        isRegistered: true,\n                                        indexes: indexes\n                                    });\n    }\n\n     // Generate a request for oracles to fetch flight information\n    function fetchFlightStatus (\n                            address airline,\n                            string memory flight,\n                            uint256 timestamp                            \n                        )\n                        external\n    {\n        uint8 index = getRandomIndex(msg.sender);\n    \n\n        // Generate a unique key for storing the request\n        bytes32 key = keccak256(abi.encodePacked(index, airline, flight, timestamp));\n\n        ResponseInfo storage s_response = oracleResponses[key];\n\n        s_response.requester = msg.sender;\n        s_response.isOpen = true;\n\n        emit OracleRequest(index, airline, flight, timestamp);\n    } \n\n\n    function getMyIndexes ( ) view external returns(uint8[3] memory)\n    {\n        require(oracles[msg.sender].isRegistered, \"Not registered as an oracle\");\n\n        return oracles[msg.sender].indexes;\n    }\n\n\n\n\n    // Called by oracle when a response is available to an outstanding request\n    // For the response to be accepted, there must be a pending request that is open\n    // and matches one of the three Indexes randomly assigned to the oracle at the\n    // time of registration (i.e. uninvited oracles are not welcome)\n    function submitOracleResponse\n                        (\n                            uint8 index,\n                            address airline,\n                            string memory flight,\n                            uint256 timestamp,\n                            uint8 statusCode\n                        )\n                        external\n    {\n        require((oracles[msg.sender].indexes[0] == index) || (oracles[msg.sender].indexes[1] == index) || (oracles[msg.sender].indexes[2] == index), \"Index does not match oracle request\");\n\n\n        bytes32 key = keccak256(abi.encodePacked(index, airline, flight, timestamp)); \n        require(oracleResponses[key].isOpen, \"Flight or timestamp do not match oracle request\");\n\n        oracleResponses[key].responses[statusCode].push(msg.sender);\n\n        // Information isn't considered verified until at least MIN_RESPONSES\n        // oracles respond with the *** same *** information\n        emit OracleReport(airline, flight, timestamp, statusCode);\n        if (oracleResponses[key].responses[statusCode].length >= MIN_RESPONSES) {\n\n            emit FlightStatusInfo(airline, flight, timestamp, statusCode);\n\n            // TODO: CLOSE response acceptance for request\n\n            // Handle flight status as appropriate\n            processFlightStatus(airline, flight, timestamp, statusCode);\n        }\n    }\n\n\n    function getFlightKey (\n         address airline, \n        string memory flight, \n        uint256 timestamp\n        ) pure internal returns(bytes32) {\n             return keccak256(abi.encodePacked(airline, flight, timestamp));\n    }\n\n    // Returns array of three non-duplicating integers from 0-9\n    function generateIndexes (address account) internal returns(uint8[3] memory)\n    {\n        uint8[3] memory indexes;\n        indexes[0] = getRandomIndex(account);\n        \n        indexes[1] = indexes[0];\n        while(indexes[1] == indexes[0]) {\n            indexes[1] = getRandomIndex(account);\n        }\n\n        indexes[2] = indexes[1];\n        while((indexes[2] == indexes[0]) || (indexes[2] == indexes[1])) {\n            indexes[2] = getRandomIndex(account);\n        }\n\n        return indexes;\n    }\n\n    // Returns array of three non-duplicating integers from 0-9\n    function getRandomIndex\n                            (\n                                address account\n                            )\n                            internal\n                            returns (uint8)\n    {\n        uint8 maxValue = 10;\n\n        // Pseudo random number...the incrementing nonce adds variation\n        uint8 random = uint8(uint256(keccak256(abi.encodePacked(blockhash(block.number - nonce++), account))) % maxValue);\n        // uint8 random = uint8(uint256(keccak256(abi.encodePacked(blockhash(block.number.sub(nonce.add(1))), account))).mod(maxValue));\n\n        if (nonce > 250) {\n            nonce = 0;  // Can only fetch blockhashes for last 256 blocks so we adapt\n        }\n\n        return random;\n    }\n\n// endregion\n\n}   \n\ninterface IFlightSuretyData{\n    function registerAirline(address airline, string memory name) external;\n    function isOperational() external view returns (bool);\n    function isAirline(address airline) external view returns (bool);\n    function isAirlineActive(address airline) external view returns (bool);\n    function buyInsurance(string memory flight, string memory passengerName, address passengerAddress, uint256 insuranceAmount) external payable;\n    function creditInsuree(string memory flight, uint256 creditAmount) external;\n    function getPassengerCredit(address passengerAddress) external view returns(uint256);\n    function clearPassengerCredit(address passengerAddress) external;\n    function pay(address passengerAddress) external returns(uint256);\n    function isAirlineFunded(address airline) external view returns(bool);\n    function fund(uint value) external payable;\n}\n",
  "sourcePath": "/Users/apple/Documents/personal/tutorials/ethereum/flightSuretyDApp/contracts/flightSuretyApp.sol",
  "compiler": {
    "name": "solc",
    "version": "0.8.14+commit.80d49f37.Emscripten.clang"
  },
  "schemaVersion": "3.4.7",
  "updatedAt": "2022-05-24T09:53:11.647Z",
  "networkType": "ethereum",
  "devdoc": {
    "kind": "dev",
    "methods": {
      "constructor": {
        "details": "Contract constructor"
      },
      "registerAirline(address,string)": {
        "details": "Add an airline to the registration queue"
      },
      "registerFlight(uint256,string)": {
        "details": "Register a future flight for insuring."
      }
    },
    "version": 1
  },
  "userdoc": {
    "kind": "user",
    "methods": {},
    "version": 1
  }
}