{
  "contractName": "FlightSuretyApp",
  "abi": [
    {
      "inputs": [
        {
          "internalType": "address",
          "name": "dataContract",
          "type": "address"
        }
      ],
      "stateMutability": "nonpayable",
      "type": "constructor"
    },
    {
      "anonymous": false,
      "inputs": [
        {
          "indexed": false,
          "internalType": "bytes32",
          "name": "flightKey",
          "type": "bytes32"
        },
        {
          "indexed": false,
          "internalType": "address",
          "name": "airline",
          "type": "address"
        }
      ],
      "name": "FlightRegistered",
      "type": "event"
    },
    {
      "anonymous": false,
      "inputs": [
        {
          "indexed": false,
          "internalType": "address",
          "name": "airline",
          "type": "address"
        },
        {
          "indexed": false,
          "internalType": "string",
          "name": "flight",
          "type": "string"
        },
        {
          "indexed": false,
          "internalType": "uint256",
          "name": "timestamp",
          "type": "uint256"
        },
        {
          "indexed": false,
          "internalType": "uint8",
          "name": "status",
          "type": "uint8"
        }
      ],
      "name": "FlightStatusInfo",
      "type": "event"
    },
    {
      "anonymous": false,
      "inputs": [
        {
          "indexed": false,
          "internalType": "address",
          "name": "airline",
          "type": "address"
        },
        {
          "indexed": false,
          "internalType": "string",
          "name": "flight",
          "type": "string"
        },
        {
          "indexed": false,
          "internalType": "uint256",
          "name": "timestamp",
          "type": "uint256"
        },
        {
          "indexed": false,
          "internalType": "uint8",
          "name": "status",
          "type": "uint8"
        }
      ],
      "name": "OracleReport",
      "type": "event"
    },
    {
      "anonymous": false,
      "inputs": [
        {
          "indexed": false,
          "internalType": "uint8",
          "name": "index",
          "type": "uint8"
        },
        {
          "indexed": false,
          "internalType": "address",
          "name": "airline",
          "type": "address"
        },
        {
          "indexed": false,
          "internalType": "string",
          "name": "flight",
          "type": "string"
        },
        {
          "indexed": false,
          "internalType": "uint256",
          "name": "timestamp",
          "type": "uint256"
        }
      ],
      "name": "OracleRequest",
      "type": "event"
    },
    {
      "inputs": [],
      "name": "REGISTRATION_FEE",
      "outputs": [
        {
          "internalType": "uint256",
          "name": "",
          "type": "uint256"
        }
      ],
      "stateMutability": "view",
      "type": "function",
      "constant": true
    },
    {
      "inputs": [],
      "name": "isOperational",
      "outputs": [
        {
          "internalType": "bool",
          "name": "",
          "type": "bool"
        }
      ],
      "stateMutability": "pure",
      "type": "function",
      "constant": true
    },
    {
      "inputs": [
        {
          "internalType": "address",
          "name": "airline",
          "type": "address"
        },
        {
          "internalType": "uint256",
          "name": "timestamp",
          "type": "uint256"
        },
        {
          "internalType": "string",
          "name": "flight",
          "type": "string"
        }
      ],
      "name": "isFlightRegistered",
      "outputs": [
        {
          "internalType": "bool",
          "name": "",
          "type": "bool"
        }
      ],
      "stateMutability": "view",
      "type": "function",
      "constant": true
    },
    {
      "inputs": [
        {
          "internalType": "address",
          "name": "newAirline",
          "type": "address"
        },
        {
          "internalType": "string",
          "name": "_name",
          "type": "string"
        }
      ],
      "name": "registerAirline",
      "outputs": [],
      "stateMutability": "nonpayable",
      "type": "function"
    },
    {
      "inputs": [
        {
          "internalType": "uint256",
          "name": "_timestamp",
          "type": "uint256"
        },
        {
          "internalType": "string",
          "name": "_flight",
          "type": "string"
        }
      ],
      "name": "registerFlight",
      "outputs": [],
      "stateMutability": "nonpayable",
      "type": "function"
    },
    {
      "inputs": [
        {
          "internalType": "string",
          "name": "_flight",
          "type": "string"
        },
        {
          "internalType": "string",
          "name": "passengerName",
          "type": "string"
        },
        {
          "internalType": "address",
          "name": "passengerAddress",
          "type": "address"
        },
        {
          "internalType": "uint256",
          "name": "_timestamp",
          "type": "uint256"
        },
        {
          "internalType": "address",
          "name": "airline",
          "type": "address"
        }
      ],
      "name": "buyFlightInsurance",
      "outputs": [],
      "stateMutability": "payable",
      "type": "function",
      "payable": true
    },
    {
      "inputs": [
        {
          "internalType": "address",
          "name": "airline",
          "type": "address"
        },
        {
          "internalType": "string",
          "name": "flight",
          "type": "string"
        },
        {
          "internalType": "uint256",
          "name": "timestamp",
          "type": "uint256"
        }
      ],
      "name": "getFlightStatus",
      "outputs": [
        {
          "internalType": "uint8",
          "name": "",
          "type": "uint8"
        }
      ],
      "stateMutability": "view",
      "type": "function",
      "constant": true
    },
    {
      "inputs": [],
      "name": "withdrawCredit",
      "outputs": [],
      "stateMutability": "nonpayable",
      "type": "function"
    },
    {
      "inputs": [],
      "name": "registerOracle",
      "outputs": [],
      "stateMutability": "payable",
      "type": "function",
      "payable": true
    },
    {
      "inputs": [
        {
          "internalType": "address",
          "name": "airline",
          "type": "address"
        },
        {
          "internalType": "string",
          "name": "flight",
          "type": "string"
        },
        {
          "internalType": "uint256",
          "name": "timestamp",
          "type": "uint256"
        }
      ],
      "name": "fetchFlightStatus",
      "outputs": [],
      "stateMutability": "nonpayable",
      "type": "function"
    },
    {
      "inputs": [],
      "name": "getMyIndexes",
      "outputs": [
        {
          "internalType": "uint8[3]",
          "name": "",
          "type": "uint8[3]"
        }
      ],
      "stateMutability": "view",
      "type": "function",
      "constant": true
    },
    {
      "inputs": [
        {
          "internalType": "uint8",
          "name": "index",
          "type": "uint8"
        },
        {
          "internalType": "address",
          "name": "airline",
          "type": "address"
        },
        {
          "internalType": "string",
          "name": "flight",
          "type": "string"
        },
        {
          "internalType": "uint256",
          "name": "timestamp",
          "type": "uint256"
        },
        {
          "internalType": "uint8",
          "name": "statusCode",
          "type": "uint8"
        }
      ],
      "name": "submitOracleResponse",
      "outputs": [],
      "stateMutability": "nonpayable",
      "type": "function"
    }
  ],
  "bytecode": "0x608060405260006004553480156200001657600080fd5b5060405162002b1e38038062002b1e83398181016040528101906200003c91906200012e565b33600160006101000a81548173ffffffffffffffffffffffffffffffffffffffff021916908373ffffffffffffffffffffffffffffffffffffffff160217905550806000806101000a81548173ffffffffffffffffffffffffffffffffffffffff021916908373ffffffffffffffffffffffffffffffffffffffff1602179055505062000160565b600080fd5b600073ffffffffffffffffffffffffffffffffffffffff82169050919050565b6000620000f682620000c9565b9050919050565b6200010881620000e9565b81146200011457600080fd5b50565b6000815190506200012881620000fd565b92915050565b600060208284031215620001475762000146620000c4565b5b6000620001578482850162000117565b91505092915050565b6129ae80620001706000396000f3fe6080604052600436106100a75760003560e01c8063c10f270011610064578063c10f2700146101a2578063c36f3874146101cb578063cd905dff146101e2578063ee38a7491461020d578063f057375214610236578063f83f11c01461025f576100a7565b8063148d9872146100ac578063339d2590146100c857806340face3a146100d25780635f1cc0e61461010f57806364b4f7511461013a5780639de5f95714610165575b600080fd5b6100c660048036038101906100c191906119d9565b610288565b005b6100d0610438565b005b3480156100de57600080fd5b506100f960048036038101906100f49190611a8c565b610525565b6040516101069190611b16565b60405180910390f35b34801561011b57600080fd5b50610124610563565b6040516101319190611be9565b60405180910390f35b34801561014657600080fd5b5061014f6106a3565b60405161015c9190611c13565b60405180910390f35b34801561017157600080fd5b5061018c60048036038101906101879190611c2e565b6106af565b6040516101999190611cac565b60405180910390f35b3480156101ae57600080fd5b506101c960048036038101906101c49190611cf3565b6106ed565b005b3480156101d757600080fd5b506101e0610a7c565b005b3480156101ee57600080fd5b506101f7610ca3565b6040516102049190611b16565b60405180910390f35b34801561021957600080fd5b50610234600480360381019061022f9190611d8a565b610cac565b005b34801561024257600080fd5b5061025d60048036038101906102589190611de6565b610ee4565b005b34801561026b57600080fd5b5061028660048036038101906102819190611c2e565b6111d2565b005b60008054906101000a900473ffffffffffffffffffffffffffffffffffffffff1673ffffffffffffffffffffffffffffffffffffffff1663cd905dff6040518163ffffffff1660e01b8152600401602060405180830381865afa1580156102f3573d6000803e3d6000fd5b505050506040513d601f19601f820116820180604052508101906103179190611e6e565b610356576040517f08c379a000000000000000000000000000000000000000000000000000000000815260040161034d90611f1e565b60405180910390fd5b610361818387610525565b6103a0576040517f08c379a000000000000000000000000000000000000000000000000000000000815260040161039790611fd6565b60405180910390fd5b60008054906101000a900473ffffffffffffffffffffffffffffffffffffffff1673ffffffffffffffffffffffffffffffffffffffff166317768682868686346040518563ffffffff1660e01b81526004016103ff949392919061207c565b600060405180830381600087803b15801561041957600080fd5b505af115801561042d573d6000803e3d6000fd5b505050505050505050565b670de0b6b3a7640000341015610483576040517f08c379a000000000000000000000000000000000000000000000000000000000815260040161047a9061211b565b60405180910390fd5b600061048e336112cc565b9050604051806040016040528060011515815260200182815250600560003373ffffffffffffffffffffffffffffffffffffffff1673ffffffffffffffffffffffffffffffffffffffff16815260200190815260200160002060008201518160000160006101000a81548160ff02191690831515021790555060208201518160010190600361051e92919061168c565b5090505050565b6000806105338584866114b2565b90506003600082815260200190815260200160002060000160009054906101000a900460ff169150509392505050565b61056b611726565b600560003373ffffffffffffffffffffffffffffffffffffffff1673ffffffffffffffffffffffffffffffffffffffff16815260200190815260200160002060000160009054906101000a900460ff166105fa576040517f08c379a00000000000000000000000000000000000000000000000000000000081526004016105f190612187565b60405180910390fd5b600560003373ffffffffffffffffffffffffffffffffffffffff1673ffffffffffffffffffffffffffffffffffffffff168152602001908152602001600020600101600380602002604051908101604052809291908260038015610699576020028201916000905b82829054906101000a900460ff1660ff16815260200190600101906020826000010492830192600103820291508084116106625790505b5050505050905090565b670de0b6b3a764000081565b6000806106bd8585856114b2565b90506003600082815260200190815260200160002060000160019054906101000a900460ff169150509392505050565b8460ff16600560003373ffffffffffffffffffffffffffffffffffffffff1673ffffffffffffffffffffffffffffffffffffffff168152602001908152602001600020600101600060038110610746576107456121a7565b5b602091828204019190069054906101000a900460ff1660ff1614806107da57508460ff16600560003373ffffffffffffffffffffffffffffffffffffffff1673ffffffffffffffffffffffffffffffffffffffff1681526020019081526020016000206001016001600381106107bf576107be6121a7565b5b602091828204019190069054906101000a900460ff1660ff16145b8061085457508460ff16600560003373ffffffffffffffffffffffffffffffffffffffff1673ffffffffffffffffffffffffffffffffffffffff168152602001908152602001600020600101600260038110610839576108386121a7565b5b602091828204019190069054906101000a900460ff1660ff16145b610893576040517f08c379a000000000000000000000000000000000000000000000000000000000815260040161088a90612248565b60405180910390fd5b6000858585856040516020016108ac9493929190612343565b6040516020818303038152906040528051906020012090506006600082815260200190815260200160002060000160149054906101000a900460ff16610927576040517f08c379a000000000000000000000000000000000000000000000000000000000815260040161091e906123ff565b60405180910390fd5b6006600082815260200190815260200160002060010160008360ff1660ff168152602001908152602001600020339080600181540180825580915050600190039060005260206000200160009091909190916101000a81548173ffffffffffffffffffffffffffffffffffffffff021916908373ffffffffffffffffffffffffffffffffffffffff1602179055507f43c853095c2752648493c88b4baac4d580d2594ffb00c6f1d4242d844514f783858585856040516109ea949392919061241f565b60405180910390a160036006600083815260200190815260200160002060010160008460ff1660ff1681526020019081526020016000208054905010610a74577fe23f5229de535c091e3b7bec2665f5d698192d3b31393066e8987b7a05076b6c85858585604051610a5f949392919061241f565b60405180910390a1610a73858585856114e8565b5b505050505050565b60008054906101000a900473ffffffffffffffffffffffffffffffffffffffff1673ffffffffffffffffffffffffffffffffffffffff1663cd905dff6040518163ffffffff1660e01b8152600401602060405180830381865afa158015610ae7573d6000803e3d6000fd5b505050506040513d601f19601f82011682018060405250810190610b0b9190611e6e565b610b4a576040517f08c379a0000000000000000000000000000000000000000000000000000000008152600401610b4190611f1e565b60405180910390fd5b3273ffffffffffffffffffffffffffffffffffffffff163373ffffffffffffffffffffffffffffffffffffffff1614610bb8576040517f08c379a0000000000000000000000000000000000000000000000000000000008152600401610baf906124dd565b60405180910390fd5b60008060009054906101000a900473ffffffffffffffffffffffffffffffffffffffff1673ffffffffffffffffffffffffffffffffffffffff16630c11dedd336040518263ffffffff1660e01b8152600401610c1491906124fd565b6020604051808303816000875af1158015610c33573d6000803e3d6000fd5b505050506040513d601f19601f82011682018060405250810190610c57919061252d565b90503373ffffffffffffffffffffffffffffffffffffffff166108fc829081150290604051600060405180830381858888f19350505050158015610c9f573d6000803e3d6000fd5b5050565b60006001905090565b60008054906101000a900473ffffffffffffffffffffffffffffffffffffffff1673ffffffffffffffffffffffffffffffffffffffff1663cd905dff6040518163ffffffff1660e01b8152600401602060405180830381865afa158015610d17573d6000803e3d6000fd5b505050506040513d601f19601f82011682018060405250810190610d3b9190611e6e565b610d7a576040517f08c379a0000000000000000000000000000000000000000000000000000000008152600401610d7190611f1e565b60405180910390fd5b60008054906101000a900473ffffffffffffffffffffffffffffffffffffffff1673ffffffffffffffffffffffffffffffffffffffff166313b0633c336040518263ffffffff1660e01b8152600401610dd391906124fd565b602060405180830381865afa158015610df0573d6000803e3d6000fd5b505050506040513d601f19601f82011682018060405250810190610e149190611e6e565b610e53576040517f08c379a0000000000000000000000000000000000000000000000000000000008152600401610e4a9061263e565b60405180910390fd5b60008054906101000a900473ffffffffffffffffffffffffffffffffffffffff1673ffffffffffffffffffffffffffffffffffffffff1663ee38a74983836040518363ffffffff1660e01b8152600401610eae92919061265e565b600060405180830381600087803b158015610ec857600080fd5b505af1158015610edc573d6000803e3d6000fd5b505050505050565b60008054906101000a900473ffffffffffffffffffffffffffffffffffffffff1673ffffffffffffffffffffffffffffffffffffffff1663cd905dff6040518163ffffffff1660e01b8152600401602060405180830381865afa158015610f4f573d6000803e3d6000fd5b505050506040513d601f19601f82011682018060405250810190610f739190611e6e565b610fb2576040517f08c379a0000000000000000000000000000000000000000000000000000000008152600401610fa990611f1e565b60405180910390fd5b60008054906101000a900473ffffffffffffffffffffffffffffffffffffffff1673ffffffffffffffffffffffffffffffffffffffff166313b0633c336040518263ffffffff1660e01b815260040161100b91906124fd565b602060405180830381865afa158015611028573d6000803e3d6000fd5b505050506040513d601f19601f8201168201806040525081019061104c9190611e6e565b61108b576040517f08c379a00000000000000000000000000000000000000000000000000000000081526004016110829061263e565b60405180910390fd5b60006110983383856114b2565b9050816003600083815260200190815260200160002060030190805190602001906110c4929190611748565b50336003600083815260200190815260200160002060020160006101000a81548173ffffffffffffffffffffffffffffffffffffffff021916908373ffffffffffffffffffffffffffffffffffffffff16021790555060006003600083815260200190815260200160002060000160016101000a81548160ff021916908360ff16021790555082600360008381526020019081526020016000206001018190555060016003600083815260200190815260200160002060000160006101000a81548160ff0219169083151502179055507ff36888bfb476ff598f8870d1a63a133e2181fbd122a802be9bf6aeef4e730f8d81336040516111c59291906126a7565b60405180910390a1505050565b60006111dd33611607565b90506000818585856040516020016111f89493929190612343565b6040516020818303038152906040528051906020012090506000600660008381526020019081526020016000209050338160000160006101000a81548173ffffffffffffffffffffffffffffffffffffffff021916908373ffffffffffffffffffffffffffffffffffffffff16021790555060018160000160146101000a81548160ff0219169083151502179055507f3ed01f2c3fc24c6b329d931e35b03e390d23497d22b3f90e15b600343e93df11838787876040516112bc94939291906126d0565b60405180910390a1505050505050565b6112d4611726565b6112dc611726565b6112e583611607565b816000600381106112f9576112f86121a7565b5b602002019060ff16908160ff16815250508060006003811061131e5761131d6121a7565b5b602002015181600160038110611337576113366121a7565b5b602002019060ff16908160ff16815250505b8060006003811061135d5761135c6121a7565b5b602002015160ff1681600160038110611379576113786121a7565b5b602002015160ff16036113b95761138f83611607565b816001600381106113a3576113a26121a7565b5b602002019060ff16908160ff1681525050611349565b806001600381106113cd576113cc6121a7565b5b6020020151816002600381106113e6576113e56121a7565b5b602002019060ff16908160ff16815250505b8060006003811061140c5761140b6121a7565b5b602002015160ff1681600260038110611428576114276121a7565b5b602002015160ff16148061147157508060016003811061144b5761144a6121a7565b5b602002015160ff1681600260038110611467576114666121a7565b5b602002015160ff16145b156114a95761147f83611607565b81600260038110611493576114926121a7565b5b602002019060ff16908160ff16815250506113f8565b80915050919050565b60008383836040516020016114c99392919061271c565b6040516020818303038152906040528051906020012090509392505050565b60006114f58585856114b2565b9050816003600083815260200190815260200160002060000160016101000a81548160ff021916908360ff160217905550601460ff168260ff16036115c35760008054906101000a900473ffffffffffffffffffffffffffffffffffffffff1673ffffffffffffffffffffffffffffffffffffffff166303ee4e568560966040518363ffffffff1660e01b8152600401611590929190612790565b600060405180830381600087803b1580156115aa57600080fd5b505af11580156115be573d6000803e3d6000fd5b505050505b7fe23f5229de535c091e3b7bec2665f5d698192d3b31393066e8987b7a05076b6c858585856040516115f8949392919061241f565b60405180910390a15050505050565b600080600a905060008160ff1660046000815480929190611627906127ef565b91905055436116369190612837565b408560405160200161164992919061288c565b6040516020818303038152906040528051906020012060001c61166c91906128e7565b905060fa60045411156116825760006004819055505b8092505050919050565b826003601f016020900481019282156117155791602002820160005b838211156116e657835183826101000a81548160ff021916908360ff16021790555092602001926001016020816000010492830192600103026116a8565b80156117135782816101000a81549060ff02191690556001016020816000010492830192600103026116e6565b505b50905061172291906117ce565b5090565b6040518060600160405280600390602082028036833780820191505090505090565b82805461175490612947565b90600052602060002090601f01602090048101928261177657600085556117bd565b82601f1061178f57805160ff19168380011785556117bd565b828001600101855582156117bd579182015b828111156117bc5782518255916020019190600101906117a1565b5b5090506117ca91906117ce565b5090565b5b808211156117e75760008160009055506001016117cf565b5090565b6000604051905090565b600080fd5b600080fd5b600080fd5b600080fd5b6000601f19601f8301169050919050565b7f4e487b7100000000000000000000000000000000000000000000000000000000600052604160045260246000fd5b61185282611809565b810181811067ffffffffffffffff821117156118715761187061181a565b5b80604052505050565b60006118846117eb565b90506118908282611849565b919050565b600067ffffffffffffffff8211156118b0576118af61181a565b5b6118b982611809565b9050602081019050919050565b82818337600083830152505050565b60006118e86118e384611895565b61187a565b90508281526020810184848401111561190457611903611804565b5b61190f8482856118c6565b509392505050565b600082601f83011261192c5761192b6117ff565b5b813561193c8482602086016118d5565b91505092915050565b600073ffffffffffffffffffffffffffffffffffffffff82169050919050565b600061197082611945565b9050919050565b61198081611965565b811461198b57600080fd5b50565b60008135905061199d81611977565b92915050565b6000819050919050565b6119b6816119a3565b81146119c157600080fd5b50565b6000813590506119d3816119ad565b92915050565b600080600080600060a086880312156119f5576119f46117f5565b5b600086013567ffffffffffffffff811115611a1357611a126117fa565b5b611a1f88828901611917565b955050602086013567ffffffffffffffff811115611a4057611a3f6117fa565b5b611a4c88828901611917565b9450506040611a5d8882890161198e565b9350506060611a6e888289016119c4565b9250506080611a7f8882890161198e565b9150509295509295909350565b600080600060608486031215611aa557611aa46117f5565b5b6000611ab38682870161198e565b9350506020611ac4868287016119c4565b925050604084013567ffffffffffffffff811115611ae557611ae46117fa565b5b611af186828701611917565b9150509250925092565b60008115159050919050565b611b1081611afb565b82525050565b6000602082019050611b2b6000830184611b07565b92915050565b600060039050919050565b600081905092915050565b6000819050919050565b600060ff82169050919050565b611b6781611b51565b82525050565b6000611b798383611b5e565b60208301905092915050565b6000602082019050919050565b611b9b81611b31565b611ba58184611b3c565b9250611bb082611b47565b8060005b83811015611be1578151611bc88782611b6d565b9650611bd383611b85565b925050600181019050611bb4565b505050505050565b6000606082019050611bfe6000830184611b92565b92915050565b611c0d816119a3565b82525050565b6000602082019050611c286000830184611c04565b92915050565b600080600060608486031215611c4757611c466117f5565b5b6000611c558682870161198e565b935050602084013567ffffffffffffffff811115611c7657611c756117fa565b5b611c8286828701611917565b9250506040611c93868287016119c4565b9150509250925092565b611ca681611b51565b82525050565b6000602082019050611cc16000830184611c9d565b92915050565b611cd081611b51565b8114611cdb57600080fd5b50565b600081359050611ced81611cc7565b92915050565b600080600080600060a08688031215611d0f57611d0e6117f5565b5b6000611d1d88828901611cde565b9550506020611d2e8882890161198e565b945050604086013567ffffffffffffffff811115611d4f57611d4e6117fa565b5b611d5b88828901611917565b9350506060611d6c888289016119c4565b9250506080611d7d88828901611cde565b9150509295509295909350565b60008060408385031215611da157611da06117f5565b5b6000611daf8582860161198e565b925050602083013567ffffffffffffffff811115611dd057611dcf6117fa565b5b611ddc85828601611917565b9150509250929050565b60008060408385031215611dfd57611dfc6117f5565b5b6000611e0b858286016119c4565b925050602083013567ffffffffffffffff811115611e2c57611e2b6117fa565b5b611e3885828601611917565b9150509250929050565b611e4b81611afb565b8114611e5657600080fd5b50565b600081519050611e6881611e42565b92915050565b600060208284031215611e8457611e836117f5565b5b6000611e9284828501611e59565b91505092915050565b600082825260208201905092915050565b7f436f6e74726163742069732063757272656e746c79206e6f74206f706572617460008201527f696f6e616c000000000000000000000000000000000000000000000000000000602082015250565b6000611f08602583611e9b565b9150611f1382611eac565b604082019050919050565b60006020820190508181036000830152611f3781611efb565b9050919050565b7f464c49474854204e4f5420464f554e443a20596f752063616e206f6e6c79206260008201527f757920696e737572616e636520666f72207265676973746572656420735f666c60208201527f6967687473000000000000000000000000000000000000000000000000000000604082015250565b6000611fc0604583611e9b565b9150611fcb82611f3e565b606082019050919050565b60006020820190508181036000830152611fef81611fb3565b9050919050565b600081519050919050565b60005b8381101561201f578082015181840152602081019050612004565b8381111561202e576000848401525b50505050565b600061203f82611ff6565b6120498185611e9b565b9350612059818560208601612001565b61206281611809565b840191505092915050565b61207681611965565b82525050565b600060808201905081810360008301526120968187612034565b905081810360208301526120aa8186612034565b90506120b9604083018561206d565b6120c66060830184611c04565b95945050505050565b7f526567697374726174696f6e2066656520697320726571756972656400000000600082015250565b6000612105601c83611e9b565b9150612110826120cf565b602082019050919050565b60006020820190508181036000830152612134816120f8565b9050919050565b7f4e6f74207265676973746572656420617320616e206f7261636c650000000000600082015250565b6000612171601b83611e9b565b915061217c8261213b565b602082019050919050565b600060208201905081810360008301526121a081612164565b9050919050565b7f4e487b7100000000000000000000000000000000000000000000000000000000600052603260045260246000fd5b7f496e64657820646f6573206e6f74206d61746368206f7261636c65207265717560008201527f6573740000000000000000000000000000000000000000000000000000000000602082015250565b6000612232602383611e9b565b915061223d826121d6565b604082019050919050565b6000602082019050818103600083015261226181612225565b9050919050565b60008160f81b9050919050565b600061228082612268565b9050919050565b61229861229382611b51565b612275565b82525050565b60008160601b9050919050565b60006122b68261229e565b9050919050565b60006122c8826122ab565b9050919050565b6122e06122db82611965565b6122bd565b82525050565b600081905092915050565b60006122fc82611ff6565b61230681856122e6565b9350612316818560208601612001565b80840191505092915050565b6000819050919050565b61233d612338826119a3565b612322565b82525050565b600061234f8287612287565b60018201915061235f82866122cf565b60148201915061236f82856122f1565b915061237b828461232c565b60208201915081905095945050505050565b7f466c69676874206f722074696d657374616d7020646f206e6f74206d6174636860008201527f206f7261636c6520726571756573740000000000000000000000000000000000602082015250565b60006123e9602f83611e9b565b91506123f48261238d565b604082019050919050565b60006020820190508181036000830152612418816123dc565b9050919050565b6000608082019050612434600083018761206d565b81810360208301526124468186612034565b90506124556040830185611c04565b6124626060830184611c9d565b95945050505050565b7f57524f4e472043414c4c45523a204f6e6c7920454f412063616e2063616c6c2060008201527f746869732066756e6374696f6e00000000000000000000000000000000000000602082015250565b60006124c7602d83611e9b565b91506124d28261246b565b604082019050919050565b600060208201905081810360008301526124f6816124ba565b9050919050565b6000602082019050612512600083018461206d565b92915050565b600081519050612527816119ad565b92915050565b600060208284031215612543576125426117f5565b5b600061255184828501612518565b91505092915050565b7f20494e414354495645204149524c494e453a20436f6e6669726d20746861742060008201527f796f75206861766520626f7468206265656e207265676973746572656420616e60208201527f64206861766520706169642074686520736565642066756e64206265666f726560408201527f20617474656d7074696e67207265676973746572696e672061206e657720616960608201527f726c696e652e0000000000000000000000000000000000000000000000000000608082015250565b6000612628608683611e9b565b91506126338261255a565b60a082019050919050565b600060208201905081810360008301526126578161261b565b9050919050565b6000604082019050612673600083018561206d565b81810360208301526126858184612034565b90509392505050565b6000819050919050565b6126a18161268e565b82525050565b60006040820190506126bc6000830185612698565b6126c9602083018461206d565b9392505050565b60006080820190506126e56000830187611c9d565b6126f2602083018661206d565b81810360408301526127048185612034565b90506127136060830184611c04565b95945050505050565b600061272882866122cf565b60148201915061273882856122f1565b9150612744828461232c565b602082019150819050949350505050565b6000819050919050565b600061277a61277561277084611b51565b612755565b6119a3565b9050919050565b61278a8161275f565b82525050565b600060408201905081810360008301526127aa8185612034565b90506127b96020830184612781565b9392505050565b7f4e487b7100000000000000000000000000000000000000000000000000000000600052601160045260246000fd5b60006127fa826119a3565b91507fffffffffffffffffffffffffffffffffffffffffffffffffffffffffffffffff820361282c5761282b6127c0565b5b600182019050919050565b6000612842826119a3565b915061284d836119a3565b9250828210156128605761285f6127c0565b5b828203905092915050565b6000819050919050565b6128866128818261268e565b61286b565b82525050565b60006128988285612875565b6020820191506128a882846122cf565b6014820191508190509392505050565b7f4e487b7100000000000000000000000000000000000000000000000000000000600052601260045260246000fd5b60006128f2826119a3565b91506128fd836119a3565b92508261290d5761290c6128b8565b5b828206905092915050565b7f4e487b7100000000000000000000000000000000000000000000000000000000600052602260045260246000fd5b6000600282049050600182168061295f57607f821691505b60208210810361297257612971612918565b5b5091905056fea2646970667358221220106b53ebdfc6f52c45bc36c23561f1e072eb91af54b15eff4b416c1f4d3ce6b664736f6c634300080e0033",
  "immutableReferences": {},
  "source": "// SPDX-License-Identifier: MIT\npragma solidity ^0.8.13;\n\n// It's important to avoid vulnerabilities due to numeric overflow bugs\n// OpenZeppelin's SafeMath library, when used correctly, protects agains such bugs\n// More info: https://www.nccgroup.trust/us/about-us/newsroom-and-events/blog/2018/november/smart-contract-insecurity-bad-arithmetic/\n\nimport \"@openzeppelin/contracts/utils/math/SafeMath.sol\";\n\n/************************************************** */\n/* FlightSurety Smart Contract                      */\n/************************************************** */\ncontract FlightSuretyApp {\n    using SafeMath for uint256; // Allow SafeMath functions to be called for all uint256 types (similar to \"prototype\" in Javascript)\n\n\n    IFlightSuretyData flightSuretyData;\n\n    /********************************************************************************************/\n    /*                                       DATA VARIABLES                                     */\n    /********************************************************************************************/\n\n    // Flight status codees\n    uint8 private constant STATUS_CODE_UNKNOWN = 0;\n    uint8 private constant STATUS_CODE_ON_TIME = 10;\n    uint8 private constant STATUS_CODE_LATE_AIRLINE = 20;\n    uint8 private constant STATUS_CODE_LATE_WEATHER = 30;\n    uint8 private constant STATUS_CODE_LATE_TECHNICAL = 40;\n    uint8 private constant STATUS_CODE_LATE_OTHER = 50;\n\n\n    // Credit value\n    uint8 private constant PASSENGER_CREDIT_VALUE = 150;\n\n    address private contractOwner;          // Account used to deploy contract\n    address private firstAirline;\n\n    struct Flight {\n        bool isRegistered;\n        uint8 statusCode;\n        uint256 updatedTimestamp;        \n        address airline;\n        string flight;\n    }\n    mapping(bytes32 => Flight) private s_flights;\n\n\n\n    /********************************************************************************************/\n    /*                                       EVENT DEFINITIONS                                  */\n    /********************************************************************************************/\n \n    event FlightRegistered(bytes32 flightKey, address airline);\n\n    /********************************************************************************************/\n    /*                                       FUNCTION MODIFIERS                                 */\n    /********************************************************************************************/\n\n    // Modifiers help avoid duplication of code. They are typically used to validate something\n    // before a function is allowed to be executed.\n\n    /**\n    * @dev Modifier that requires the \"operational\" boolean variable to be \"true\"\n    *      This is used on all state changing functions to pause the contract in \n    *      the event there is an issue that needs to be fixed\n    */\n    modifier requireIsOperational() \n    {\n         // Modify to call data contract's status\n        require(flightSuretyData.isOperational(), \"Contract is currently not operational\");  \n        _;  // All modifiers require an \"_\" which indicates where the function body will be added\n    }\n\n    /**\n    * @dev Modifier that requires the caller of registerAirline to be a registeredAirline.\n    */\n    \n\n    /**\n    * @dev Modifier that requires the \"ContractOwner\" account to be the function caller\n    */\n    modifier requireContractOwner()\n    {\n        require(msg.sender == contractOwner, \"Caller is not contract owner\");\n        _;\n    }\n\n    modifier requireAirlineIsActive() \n    {\n        require(flightSuretyData.isAirlineActive(msg.sender), \" INACTIVE AIRLINE: Confirm that you have both been registered and have paid the seed fund before attempting registering a new airline.\");  \n        _;  \n    }\n\n    // Modifier to check if number of registered users have reached 4\n\n    /********************************************************************************************/\n    /*                                       CONSTRUCTOR                                        */\n    /********************************************************************************************/\n\n    /**\n    * @dev Contract constructor\n    *\n    */\n    constructor ( address dataContract){\n\n        contractOwner = msg.sender;\n\n        flightSuretyData = IFlightSuretyData(dataContract);\n\n    }\n\n    /********************************************************************************************/\n    /*                                       UTILITY FUNCTIONS                                  */\n    /********************************************************************************************/\n\n    function isOperational() \n                            public \n                            pure \n                            returns(bool) \n    {\n        return true;  // Modify to call data contract's status\n    }\n\n    function isFlightRegistered(address airline, uint timestamp, string memory flight) public view returns (bool){\n       \n       bytes32 flightKey = getFlightKey(airline, flight, timestamp);\n        return s_flights[flightKey].isRegistered;\n\n    }\n\n\n    /********************************************************************************************/\n    /*                                     SMART CONTRACT FUNCTIONS                             */\n    /********************************************************************************************/\n\n  \n   /**\n    * @dev Add an airline to the registration queue\n    *\n    */   \n    function registerAirline ( address newAirline, string memory _name ) public requireIsOperational requireAirlineIsActive {\n        flightSuretyData.registerAirline(newAirline, _name);\n    }\n\n\n\n\n   /**\n    * @dev Register a future flight for insuring.\n    *\n    */  \n    function registerFlight (uint _timestamp, string memory _flight ) public requireIsOperational requireAirlineIsActive{\n        \n        bytes32 flightKey = getFlightKey(msg.sender, _flight, _timestamp);\n\n        // TODO: WRITE TO FLIGHTS STORAGE ONLY ONCE\n\n        s_flights[flightKey].flight = _flight;\n        s_flights[flightKey].airline = msg.sender;\n        s_flights[flightKey].statusCode = STATUS_CODE_UNKNOWN;\n        s_flights[flightKey].updatedTimestamp = _timestamp;\n        s_flights[flightKey].isRegistered = true;\n\n        emit FlightRegistered(flightKey, msg.sender);\n\n    }\n\n    function buyFlightInsurance ( \n        string memory _flight, \n        string memory passengerName,\n        address passengerAddress,\n        uint256 _timestamp, \n        address airline \n        ) public payable requireIsOperational{\n\n        // confirm that flight is registered.\n        require(isFlightRegistered(airline, _timestamp, _flight),'FLIGHT NOT FOUND: You can only buy insurance for registered s_flights');\n\n        flightSuretyData.buyInsurance(_flight, passengerName, passengerAddress, msg.value);\n    }\n    \n   /**\n    * @dev Called after oracle has updated flight status\n    *\n    */  \n    function processFlightStatus ( \n        address airline, \n        string memory flight, \n        uint256 timestamp, \n        uint8 statusCode ) internal {\n\n            //generate flightKey\n            bytes32 flightKey = getFlightKey(airline, flight, timestamp);\n\n            // update flight status code\n            s_flights[flightKey].statusCode = statusCode;\n\n            // When flight is delayed credit passengers with insurance \n          if (statusCode == STATUS_CODE_LATE_AIRLINE) {\n            flightSuretyData.creditInsuree(flight, PASSENGER_CREDIT_VALUE);\n          }\n\n            emit FlightStatusInfo(airline, flight, timestamp, statusCode);\n\n    }\n    \n\n    // Get the current flight status\n    function getFlightStatus (\n                                address airline,\n                                string memory flight,                        \n                                uint256 timestamp     \n                            )\n                            public\n                            view\n                            returns(uint8)\n    {\n        bytes32 flightKey = getFlightKey(airline, flight, timestamp);\n        return s_flights[flightKey].statusCode;\n    }\n\n    function withdrawCredit() public requireIsOperational{\n         // verify it's be en called from an externally owned account - msg.sender == tx.origin\n        require(msg.sender == tx.origin,'WRONG CALLER: Only EOA can call this function');\n\n        \n        // transfer funds to passenger account.\n        uint256 creditToPay = flightSuretyData.pay(msg.sender);\n\n        payable(msg.sender).transfer(creditToPay);\n \n    }\n\n   \n\n// region ORACLE MANAGEMENT\n\n    // Incremented to add pseudo-randomness at various points\n    uint256 private nonce = 0;    \n\n    // Fee to be paid when registering oracle\n    uint256 public constant REGISTRATION_FEE = 1 ether;\n\n    // Number of oracles that must respond for valid status\n    uint256 private constant MIN_RESPONSES = 3;\n\n\n    struct Oracle {\n        bool isRegistered;\n        uint8[3] indexes;        \n    }\n\n    // Track all registered oracles\n    mapping(address => Oracle) private oracles;\n\n    // Model for responses from oracles\n    struct ResponseInfo {\n        address requester;                              // Account that requested status\n        bool isOpen;                                    // If open, oracle responses are accepted\n        mapping(uint8 => address[]) responses;          // Mapping key is the status code reported\n                                                        // This lets us group responses and identify                                                 // the response that majority of the oracles\n    }\n\n    // Track all oracle responses\n    // Key = hash(index, flight, timestamp)\n    mapping(bytes32 => ResponseInfo) private oracleResponses;\n\n\n\n    // Event fired each time an oracle submits a response\n    event FlightStatusInfo(address airline, string flight, uint256 timestamp, uint8 status);\n\n    event OracleReport(address airline, string flight, uint256 timestamp, uint8 status);\n\n    // Event fired when flight status request is submitted\n    // Oracles track this and if they have a matching index\n    // they fetch data and submit a response\n    event OracleRequest(uint8 index, address airline, string flight, uint256 timestamp);\n\n\n\n\n    // Register an oracle with the contract\n    function registerOracle ( ) external payable{\n        // Require registration fee\n        require(msg.value >= REGISTRATION_FEE, \"Registration fee is required\");\n\n        // uint8[3] memory indexes = [5,6,8];\n        uint8[3] memory indexes = generateIndexes(msg.sender);\n\n        oracles[msg.sender] = Oracle({\n                                        isRegistered: true,\n                                        indexes: indexes\n                                    });\n    }\n\n     // Generate a request for oracles to fetch flight information\n    function fetchFlightStatus (\n                            address airline,\n                            string memory flight,\n                            uint256 timestamp                            \n                        )\n                        external\n    {\n        uint8 index = getRandomIndex(msg.sender);\n    \n\n        // Generate a unique key for storing the request\n        bytes32 key = keccak256(abi.encodePacked(index, airline, flight, timestamp));\n\n        ResponseInfo storage s_response = oracleResponses[key];\n\n        s_response.requester = msg.sender;\n        s_response.isOpen = true;\n\n        emit OracleRequest(index, airline, flight, timestamp);\n    } \n\n\n    function getMyIndexes ( ) view external returns(uint8[3] memory)\n    {\n        require(oracles[msg.sender].isRegistered, \"Not registered as an oracle\");\n\n        return oracles[msg.sender].indexes;\n    }\n\n\n\n\n    // Called by oracle when a response is available to an outstanding request\n    // For the response to be accepted, there must be a pending request that is open\n    // and matches one of the three Indexes randomly assigned to the oracle at the\n    // time of registration (i.e. uninvited oracles are not welcome)\n    function submitOracleResponse\n                        (\n                            uint8 index,\n                            address airline,\n                            string memory flight,\n                            uint256 timestamp,\n                            uint8 statusCode\n                        )\n                        external\n    {\n        require((oracles[msg.sender].indexes[0] == index) || (oracles[msg.sender].indexes[1] == index) || (oracles[msg.sender].indexes[2] == index), \"Index does not match oracle request\");\n\n\n        bytes32 key = keccak256(abi.encodePacked(index, airline, flight, timestamp)); \n        require(oracleResponses[key].isOpen, \"Flight or timestamp do not match oracle request\");\n\n        oracleResponses[key].responses[statusCode].push(msg.sender);\n\n        // Information isn't considered verified until at least MIN_RESPONSES\n        // oracles respond with the *** same *** information\n        emit OracleReport(airline, flight, timestamp, statusCode);\n        if (oracleResponses[key].responses[statusCode].length >= MIN_RESPONSES) {\n\n            emit FlightStatusInfo(airline, flight, timestamp, statusCode);\n\n            // TODO: CLOSE response acceptance for request\n\n            // Handle flight status as appropriate\n            processFlightStatus(airline, flight, timestamp, statusCode);\n        }\n    }\n\n\n    function getFlightKey (\n         address airline, \n        string memory flight, \n        uint256 timestamp\n        ) pure internal returns(bytes32) {\n             return keccak256(abi.encodePacked(airline, flight, timestamp));\n    }\n\n    // Returns array of three non-duplicating integers from 0-9\n    function generateIndexes (address account) internal returns(uint8[3] memory)\n    {\n        uint8[3] memory indexes;\n        indexes[0] = getRandomIndex(account);\n        \n        indexes[1] = indexes[0];\n        while(indexes[1] == indexes[0]) {\n            indexes[1] = getRandomIndex(account);\n        }\n\n        indexes[2] = indexes[1];\n        while((indexes[2] == indexes[0]) || (indexes[2] == indexes[1])) {\n            indexes[2] = getRandomIndex(account);\n        }\n\n        return indexes;\n    }\n\n    // Returns array of three non-duplicating integers from 0-9\n    function getRandomIndex\n                            (\n                                address account\n                            )\n                            internal\n                            returns (uint8)\n    {\n        uint8 maxValue = 10;\n\n        // Pseudo random number...the incrementing nonce adds variation\n        uint8 random = uint8(uint256(keccak256(abi.encodePacked(blockhash(block.number - nonce++), account))) % maxValue);\n        // uint8 random = uint8(uint256(keccak256(abi.encodePacked(blockhash(block.number.sub(nonce.add(1))), account))).mod(maxValue));\n\n        if (nonce > 250) {\n            nonce = 0;  // Can only fetch blockhashes for last 256 blocks so we adapt\n        }\n\n        return random;\n    }\n\n// endregion\n\n}   \n\ninterface IFlightSuretyData{\n    function registerAirline(address airline, string memory name) external;\n    function isOperational() external view returns (bool);\n    function isAirline(address airline) external view returns (bool);\n    function isAirlineActive(address airline) external view returns (bool);\n    function buyInsurance(string memory flight, string memory passengerName, address passengerAddress, uint256 insuranceAmount) external payable;\n    function creditInsuree(string memory flight, uint256 creditAmount) external;\n    function getPassengerCredit(address passengerAddress) external view returns(uint256);\n    function clearPassengerCredit(address passengerAddress) external;\n    function pay(address passengerAddress) external returns(uint256);\n}\n",
  "sourcePath": "/Users/apple/Documents/personal/tutorials/ethereum/flightSuretyDApp/contracts/flightSuretyApp.sol",
  "compiler": {
    "name": "solc",
    "version": "0.8.14+commit.80d49f37.Emscripten.clang"
  },
  "schemaVersion": "3.4.7",
  "updatedAt": "2022-05-21T10:54:39.190Z",
  "networkType": "ethereum",
  "devdoc": {
    "kind": "dev",
    "methods": {
      "constructor": {
        "details": "Contract constructor"
      },
      "registerAirline(address,string)": {
        "details": "Add an airline to the registration queue"
      },
      "registerFlight(uint256,string)": {
        "details": "Register a future flight for insuring."
      }
    },
    "version": 1
  },
  "userdoc": {
    "kind": "user",
    "methods": {},
    "version": 1
  }
}