{
  "contractName": "FlightSuretyApp",
  "abi": [
    {
      "inputs": [
        {
          "internalType": "address",
          "name": "dataContract",
          "type": "address"
        }
      ],
      "stateMutability": "nonpayable",
      "type": "constructor"
    },
    {
      "anonymous": false,
      "inputs": [
        {
          "indexed": false,
          "internalType": "bytes32",
          "name": "flightKey",
          "type": "bytes32"
        },
        {
          "indexed": false,
          "internalType": "address",
          "name": "airline",
          "type": "address"
        }
      ],
      "name": "FlightRegistered",
      "type": "event"
    },
    {
      "anonymous": false,
      "inputs": [
        {
          "indexed": false,
          "internalType": "address",
          "name": "airline",
          "type": "address"
        },
        {
          "indexed": false,
          "internalType": "string",
          "name": "flight",
          "type": "string"
        },
        {
          "indexed": false,
          "internalType": "uint256",
          "name": "timestamp",
          "type": "uint256"
        },
        {
          "indexed": false,
          "internalType": "uint8",
          "name": "status",
          "type": "uint8"
        }
      ],
      "name": "FlightStatusInfo",
      "type": "event"
    },
    {
      "anonymous": false,
      "inputs": [
        {
          "indexed": false,
          "internalType": "address",
          "name": "airline",
          "type": "address"
        },
        {
          "indexed": false,
          "internalType": "string",
          "name": "flight",
          "type": "string"
        },
        {
          "indexed": false,
          "internalType": "uint256",
          "name": "timestamp",
          "type": "uint256"
        },
        {
          "indexed": false,
          "internalType": "uint8",
          "name": "status",
          "type": "uint8"
        }
      ],
      "name": "OracleReport",
      "type": "event"
    },
    {
      "anonymous": false,
      "inputs": [
        {
          "indexed": false,
          "internalType": "uint8",
          "name": "index",
          "type": "uint8"
        },
        {
          "indexed": false,
          "internalType": "address",
          "name": "airline",
          "type": "address"
        },
        {
          "indexed": false,
          "internalType": "string",
          "name": "flight",
          "type": "string"
        },
        {
          "indexed": false,
          "internalType": "uint256",
          "name": "timestamp",
          "type": "uint256"
        }
      ],
      "name": "OracleRequest",
      "type": "event"
    },
    {
      "inputs": [],
      "name": "REGISTRATION_FEE",
      "outputs": [
        {
          "internalType": "uint256",
          "name": "",
          "type": "uint256"
        }
      ],
      "stateMutability": "view",
      "type": "function",
      "constant": true
    },
    {
      "inputs": [],
      "name": "isOperational",
      "outputs": [
        {
          "internalType": "bool",
          "name": "",
          "type": "bool"
        }
      ],
      "stateMutability": "pure",
      "type": "function",
      "constant": true
    },
    {
      "inputs": [
        {
          "internalType": "address",
          "name": "airline",
          "type": "address"
        },
        {
          "internalType": "uint256",
          "name": "timestamp",
          "type": "uint256"
        },
        {
          "internalType": "string",
          "name": "flight",
          "type": "string"
        }
      ],
      "name": "isFlightRegistered",
      "outputs": [
        {
          "internalType": "bool",
          "name": "",
          "type": "bool"
        }
      ],
      "stateMutability": "view",
      "type": "function",
      "constant": true
    },
    {
      "inputs": [
        {
          "internalType": "address",
          "name": "airline",
          "type": "address"
        }
      ],
      "name": "isAirlineFunded",
      "outputs": [
        {
          "internalType": "bool",
          "name": "",
          "type": "bool"
        }
      ],
      "stateMutability": "view",
      "type": "function",
      "constant": true
    },
    {
      "inputs": [
        {
          "internalType": "address",
          "name": "newAirline",
          "type": "address"
        },
        {
          "internalType": "string",
          "name": "_name",
          "type": "string"
        }
      ],
      "name": "registerAirline",
      "outputs": [],
      "stateMutability": "nonpayable",
      "type": "function"
    },
    {
      "inputs": [
        {
          "internalType": "uint256",
          "name": "_timestamp",
          "type": "uint256"
        },
        {
          "internalType": "string",
          "name": "_flight",
          "type": "string"
        }
      ],
      "name": "registerFlight",
      "outputs": [],
      "stateMutability": "nonpayable",
      "type": "function"
    },
    {
      "inputs": [],
      "name": "fundAirline",
      "outputs": [],
      "stateMutability": "payable",
      "type": "function",
      "payable": true
    },
    {
      "inputs": [
        {
          "internalType": "string",
          "name": "_flight",
          "type": "string"
        },
        {
          "internalType": "string",
          "name": "passengerName",
          "type": "string"
        },
        {
          "internalType": "address",
          "name": "passengerAddress",
          "type": "address"
        },
        {
          "internalType": "uint256",
          "name": "_timestamp",
          "type": "uint256"
        },
        {
          "internalType": "address",
          "name": "airline",
          "type": "address"
        }
      ],
      "name": "buyFlightInsurance",
      "outputs": [],
      "stateMutability": "payable",
      "type": "function",
      "payable": true
    },
    {
      "inputs": [
        {
          "internalType": "address",
          "name": "airline",
          "type": "address"
        },
        {
          "internalType": "string",
          "name": "flight",
          "type": "string"
        },
        {
          "internalType": "uint256",
          "name": "timestamp",
          "type": "uint256"
        }
      ],
      "name": "getFlightStatus",
      "outputs": [
        {
          "internalType": "uint8",
          "name": "",
          "type": "uint8"
        }
      ],
      "stateMutability": "view",
      "type": "function",
      "constant": true
    },
    {
      "inputs": [
        {
          "internalType": "address",
          "name": "passengerAddress",
          "type": "address"
        }
      ],
      "name": "withdrawCredit",
      "outputs": [],
      "stateMutability": "nonpayable",
      "type": "function"
    },
    {
      "inputs": [
        {
          "internalType": "address",
          "name": "passengerAddress",
          "type": "address"
        }
      ],
      "name": "getPassengerCredit",
      "outputs": [
        {
          "internalType": "uint256",
          "name": "",
          "type": "uint256"
        }
      ],
      "stateMutability": "view",
      "type": "function",
      "constant": true
    },
    {
      "inputs": [],
      "name": "registerOracle",
      "outputs": [],
      "stateMutability": "payable",
      "type": "function",
      "payable": true
    },
    {
      "inputs": [
        {
          "internalType": "address",
          "name": "airline",
          "type": "address"
        },
        {
          "internalType": "string",
          "name": "flight",
          "type": "string"
        },
        {
          "internalType": "uint256",
          "name": "timestamp",
          "type": "uint256"
        }
      ],
      "name": "fetchFlightStatus",
      "outputs": [],
      "stateMutability": "nonpayable",
      "type": "function"
    },
    {
      "inputs": [],
      "name": "getMyIndexes",
      "outputs": [
        {
          "internalType": "uint8[3]",
          "name": "",
          "type": "uint8[3]"
        }
      ],
      "stateMutability": "view",
      "type": "function",
      "constant": true
    },
    {
      "inputs": [
        {
          "internalType": "uint8",
          "name": "index",
          "type": "uint8"
        },
        {
          "internalType": "address",
          "name": "airline",
          "type": "address"
        },
        {
          "internalType": "string",
          "name": "flight",
          "type": "string"
        },
        {
          "internalType": "uint256",
          "name": "timestamp",
          "type": "uint256"
        },
        {
          "internalType": "uint8",
          "name": "statusCode",
          "type": "uint8"
        }
      ],
      "name": "submitOracleResponse",
      "outputs": [],
      "stateMutability": "nonpayable",
      "type": "function"
    }
  ],
  "bytecode": "0x608060405260006004553480156200001657600080fd5b50604051620031283803806200312883398181016040528101906200003c91906200012e565b33600160006101000a81548173ffffffffffffffffffffffffffffffffffffffff021916908373ffffffffffffffffffffffffffffffffffffffff160217905550806000806101000a81548173ffffffffffffffffffffffffffffffffffffffff021916908373ffffffffffffffffffffffffffffffffffffffff1602179055505062000160565b600080fd5b600073ffffffffffffffffffffffffffffffffffffffff82169050919050565b6000620000f682620000c9565b9050919050565b6200010881620000e9565b81146200011457600080fd5b50565b6000815190506200012881620000fd565b92915050565b600060208284031215620001475762000146620000c4565b5b6000620001578482850162000117565b91505092915050565b612fb880620001706000396000f3fe6080604052600436106100e85760003560e01c80639de5f9571161008a578063ee38a74911610059578063ee38a749146102a7578063f0573752146102d0578063f53b6d65146102f9578063f83f11c014610336576100e8565b80639de5f9571461020c5780639ed1892714610249578063c10f270014610253578063cd905dff1461027c576100e8565b806340face3a116100c657806340face3a146101505780635f1cc0e61461018d57806364b4f751146101b85780636c8cc9d9146101e3576100e8565b806305b64e98146100ed578063148d98721461012a578063339d259014610146575b600080fd5b3480156100f957600080fd5b50610114600480360381019061010f9190611cc0565b61035f565b6040516101219190611d06565b60405180910390f35b610144600480360381019061013f9190611e93565b6104d1565b005b61014e610681565b005b34801561015c57600080fd5b5061017760048036038101906101729190611f46565b61076e565b6040516101849190611fd0565b60405180910390f35b34801561019957600080fd5b506101a26107ac565b6040516101af91906120a3565b60405180910390f35b3480156101c457600080fd5b506101cd6108ec565b6040516101da9190611d06565b60405180910390f35b3480156101ef57600080fd5b5061020a60048036038101906102059190611cc0565b6108f8565b005b34801561021857600080fd5b50610233600480360381019061022e91906120be565b610b20565b604051610240919061213c565b60405180910390f35b610251610b5e565b005b34801561025f57600080fd5b5061027a60048036038101906102759190612183565b610bec565b005b34801561028857600080fd5b50610291610fb8565b60405161029e9190611fd0565b60405180910390f35b3480156102b357600080fd5b506102ce60048036038101906102c9919061221a565b610fc1565b005b3480156102dc57600080fd5b506102f760048036038101906102f29190612276565b6111f9565b005b34801561030557600080fd5b50610320600480360381019061031b9190611cc0565b611591565b60405161032d9190611fd0565b60405180910390f35b34801561034257600080fd5b5061035d600480360381019061035891906120be565b611635565b005b60008060009054906101000a900473ffffffffffffffffffffffffffffffffffffffff1673ffffffffffffffffffffffffffffffffffffffff1663cd905dff6040518163ffffffff1660e01b8152600401602060405180830381865afa1580156103cd573d6000803e3d6000fd5b505050506040513d601f19601f820116820180604052508101906103f191906122fe565b610430576040517f08c379a0000000000000000000000000000000000000000000000000000000008152600401610427906123ae565b60405180910390fd5b60008054906101000a900473ffffffffffffffffffffffffffffffffffffffff1673ffffffffffffffffffffffffffffffffffffffff166305b64e98836040518263ffffffff1660e01b815260040161048991906123dd565b602060405180830381865afa1580156104a6573d6000803e3d6000fd5b505050506040513d601f19601f820116820180604052508101906104ca919061240d565b9050919050565b60008054906101000a900473ffffffffffffffffffffffffffffffffffffffff1673ffffffffffffffffffffffffffffffffffffffff1663cd905dff6040518163ffffffff1660e01b8152600401602060405180830381865afa15801561053c573d6000803e3d6000fd5b505050506040513d601f19601f8201168201806040525081019061056091906122fe565b61059f576040517f08c379a0000000000000000000000000000000000000000000000000000000008152600401610596906123ae565b60405180910390fd5b6105aa81838761076e565b6105e9576040517f08c379a00000000000000000000000000000000000000000000000000000000081526004016105e0906124d2565b60405180910390fd5b60008054906101000a900473ffffffffffffffffffffffffffffffffffffffff1673ffffffffffffffffffffffffffffffffffffffff166317768682868686346040518563ffffffff1660e01b81526004016106489493929190612569565b600060405180830381600087803b15801561066257600080fd5b505af1158015610676573d6000803e3d6000fd5b505050505050505050565b670de0b6b3a76400003410156106cc576040517f08c379a00000000000000000000000000000000000000000000000000000000081526004016106c390612608565b60405180910390fd5b60006106d73361172f565b9050604051806040016040528060011515815260200182815250600560003373ffffffffffffffffffffffffffffffffffffffff1673ffffffffffffffffffffffffffffffffffffffff16815260200190815260200160002060008201518160000160006101000a81548160ff021916908315150217905550602082015181600101906003610767929190611aef565b5090505050565b60008061077c858486611915565b90506003600082815260200190815260200160002060000160009054906101000a900460ff169150509392505050565b6107b4611b89565b600560003373ffffffffffffffffffffffffffffffffffffffff1673ffffffffffffffffffffffffffffffffffffffff16815260200190815260200160002060000160009054906101000a900460ff16610843576040517f08c379a000000000000000000000000000000000000000000000000000000000815260040161083a90612674565b60405180910390fd5b600560003373ffffffffffffffffffffffffffffffffffffffff1673ffffffffffffffffffffffffffffffffffffffff1681526020019081526020016000206001016003806020026040519081016040528092919082600380156108e2576020028201916000905b82829054906101000a900460ff1660ff16815260200190600101906020826000010492830192600103820291508084116108ab5790505b5050505050905090565b670de0b6b3a764000081565b60008054906101000a900473ffffffffffffffffffffffffffffffffffffffff1673ffffffffffffffffffffffffffffffffffffffff1663cd905dff6040518163ffffffff1660e01b8152600401602060405180830381865afa158015610963573d6000803e3d6000fd5b505050506040513d601f19601f8201168201806040525081019061098791906122fe565b6109c6576040517f08c379a00000000000000000000000000000000000000000000000000000000081526004016109bd906123ae565b60405180910390fd5b3273ffffffffffffffffffffffffffffffffffffffff163373ffffffffffffffffffffffffffffffffffffffff1614610a34576040517f08c379a0000000000000000000000000000000000000000000000000000000008152600401610a2b90612706565b60405180910390fd5b60008060009054906101000a900473ffffffffffffffffffffffffffffffffffffffff1673ffffffffffffffffffffffffffffffffffffffff16630c11dedd836040518263ffffffff1660e01b8152600401610a9091906123dd565b6020604051808303816000875af1158015610aaf573d6000803e3d6000fd5b505050506040513d601f19601f82011682018060405250810190610ad3919061240d565b90508173ffffffffffffffffffffffffffffffffffffffff166108fc829081150290604051600060405180830381858888f19350505050158015610b1b573d6000803e3d6000fd5b505050565b600080610b2e858585611915565b90506003600082815260200190815260200160002060000160019054906101000a900460ff169150509392505050565b60008054906101000a900473ffffffffffffffffffffffffffffffffffffffff1673ffffffffffffffffffffffffffffffffffffffff16632302440834336040518363ffffffff1660e01b8152600401610bb891906123dd565b6000604051808303818588803b158015610bd157600080fd5b505af1158015610be5573d6000803e3d6000fd5b5050505050565b7f43c853095c2752648493c88b4baac4d580d2594ffb00c6f1d4242d844514f78384848484604051610c219493929190612726565b60405180910390a18460ff16600560003373ffffffffffffffffffffffffffffffffffffffff1673ffffffffffffffffffffffffffffffffffffffff168152602001908152602001600020600101600060038110610c8257610c81612772565b5b602091828204019190069054906101000a900460ff1660ff161480610d1657508460ff16600560003373ffffffffffffffffffffffffffffffffffffffff1673ffffffffffffffffffffffffffffffffffffffff168152602001908152602001600020600101600160038110610cfb57610cfa612772565b5b602091828204019190069054906101000a900460ff1660ff16145b80610d9057508460ff16600560003373ffffffffffffffffffffffffffffffffffffffff1673ffffffffffffffffffffffffffffffffffffffff168152602001908152602001600020600101600260038110610d7557610d74612772565b5b602091828204019190069054906101000a900460ff1660ff16145b610dcf576040517f08c379a0000000000000000000000000000000000000000000000000000000008152600401610dc690612813565b60405180910390fd5b600085858585604051602001610de8949392919061290e565b6040516020818303038152906040528051906020012090506006600082815260200190815260200160002060000160149054906101000a900460ff16610e63576040517f08c379a0000000000000000000000000000000000000000000000000000000008152600401610e5a906129ca565b60405180910390fd5b6006600082815260200190815260200160002060010160008360ff1660ff168152602001908152602001600020339080600181540180825580915050600190039060005260206000200160009091909190916101000a81548173ffffffffffffffffffffffffffffffffffffffff021916908373ffffffffffffffffffffffffffffffffffffffff1602179055507f43c853095c2752648493c88b4baac4d580d2594ffb00c6f1d4242d844514f78385858585604051610f269493929190612726565b60405180910390a160036006600083815260200190815260200160002060010160008460ff1660ff1681526020019081526020016000208054905010610fb0577fe23f5229de535c091e3b7bec2665f5d698192d3b31393066e8987b7a05076b6c85858585604051610f9b9493929190612726565b60405180910390a1610faf8585858561194b565b5b505050505050565b60006001905090565b60008054906101000a900473ffffffffffffffffffffffffffffffffffffffff1673ffffffffffffffffffffffffffffffffffffffff1663cd905dff6040518163ffffffff1660e01b8152600401602060405180830381865afa15801561102c573d6000803e3d6000fd5b505050506040513d601f19601f8201168201806040525081019061105091906122fe565b61108f576040517f08c379a0000000000000000000000000000000000000000000000000000000008152600401611086906123ae565b60405180910390fd5b60008054906101000a900473ffffffffffffffffffffffffffffffffffffffff1673ffffffffffffffffffffffffffffffffffffffff166313b0633c336040518263ffffffff1660e01b81526004016110e891906123dd565b602060405180830381865afa158015611105573d6000803e3d6000fd5b505050506040513d601f19601f8201168201806040525081019061112991906122fe565b611168576040517f08c379a000000000000000000000000000000000000000000000000000000000815260040161115f90612ace565b60405180910390fd5b60008054906101000a900473ffffffffffffffffffffffffffffffffffffffff1673ffffffffffffffffffffffffffffffffffffffff1663ee38a74983836040518363ffffffff1660e01b81526004016111c3929190612aee565b600060405180830381600087803b1580156111dd57600080fd5b505af11580156111f1573d6000803e3d6000fd5b505050505050565b60008054906101000a900473ffffffffffffffffffffffffffffffffffffffff1673ffffffffffffffffffffffffffffffffffffffff1663cd905dff6040518163ffffffff1660e01b8152600401602060405180830381865afa158015611264573d6000803e3d6000fd5b505050506040513d601f19601f8201168201806040525081019061128891906122fe565b6112c7576040517f08c379a00000000000000000000000000000000000000000000000000000000081526004016112be906123ae565b60405180910390fd5b60008054906101000a900473ffffffffffffffffffffffffffffffffffffffff1673ffffffffffffffffffffffffffffffffffffffff166313b0633c336040518263ffffffff1660e01b815260040161132091906123dd565b602060405180830381865afa15801561133d573d6000803e3d6000fd5b505050506040513d601f19601f8201168201806040525081019061136191906122fe565b6113a0576040517f08c379a000000000000000000000000000000000000000000000000000000000815260040161139790612ace565b60405180910390fd5b60006113ad338385611915565b90506000826040516020016113c29190612b1e565b60405160208183030381529060405280519060200120600360008481526020019081526020016000206003016040516020016113fe9190612c29565b604051602081830303815290604052805190602001201490508015611458576040517f08c379a000000000000000000000000000000000000000000000000000000000815260040161144f90612cd8565b60405180910390fd5b82600360008481526020019081526020016000206003019080519060200190611482929190611bab565b50336003600084815260200190815260200160002060020160006101000a81548173ffffffffffffffffffffffffffffffffffffffff021916908373ffffffffffffffffffffffffffffffffffffffff16021790555060006003600084815260200190815260200160002060000160016101000a81548160ff021916908360ff16021790555083600360008481526020019081526020016000206001018190555060016003600084815260200190815260200160002060000160006101000a81548160ff0219169083151502179055507ff36888bfb476ff598f8870d1a63a133e2181fbd122a802be9bf6aeef4e730f8d8233604051611583929190612d11565b60405180910390a150505050565b60008060009054906101000a900473ffffffffffffffffffffffffffffffffffffffff1673ffffffffffffffffffffffffffffffffffffffff1663f53b6d65836040518263ffffffff1660e01b81526004016115ed91906123dd565b602060405180830381865afa15801561160a573d6000803e3d6000fd5b505050506040513d601f19601f8201168201806040525081019061162e91906122fe565b9050919050565b600061164033611a6a565b905060008185858560405160200161165b949392919061290e565b6040516020818303038152906040528051906020012090506000600660008381526020019081526020016000209050338160000160006101000a81548173ffffffffffffffffffffffffffffffffffffffff021916908373ffffffffffffffffffffffffffffffffffffffff16021790555060018160000160146101000a81548160ff0219169083151502179055507f3ed01f2c3fc24c6b329d931e35b03e390d23497d22b3f90e15b600343e93df118387878760405161171f9493929190612d3a565b60405180910390a1505050505050565b611737611b89565b61173f611b89565b61174883611a6a565b8160006003811061175c5761175b612772565b5b602002019060ff16908160ff16815250508060006003811061178157611780612772565b5b60200201518160016003811061179a57611799612772565b5b602002019060ff16908160ff16815250505b806000600381106117c0576117bf612772565b5b602002015160ff16816001600381106117dc576117db612772565b5b602002015160ff160361181c576117f283611a6a565b8160016003811061180657611805612772565b5b602002019060ff16908160ff16815250506117ac565b806001600381106118305761182f612772565b5b60200201518160026003811061184957611848612772565b5b602002019060ff16908160ff16815250505b8060006003811061186f5761186e612772565b5b602002015160ff168160026003811061188b5761188a612772565b5b602002015160ff1614806118d45750806001600381106118ae576118ad612772565b5b602002015160ff16816002600381106118ca576118c9612772565b5b602002015160ff16145b1561190c576118e283611a6a565b816002600381106118f6576118f5612772565b5b602002019060ff16908160ff168152505061185b565b80915050919050565b600083838360405160200161192c93929190612d86565b6040516020818303038152906040528051906020012090509392505050565b6000611958858585611915565b9050816003600083815260200190815260200160002060000160016101000a81548160ff021916908360ff160217905550600a60ff168260ff1614611a265760008054906101000a900473ffffffffffffffffffffffffffffffffffffffff1673ffffffffffffffffffffffffffffffffffffffff166303ee4e568560966040518363ffffffff1660e01b81526004016119f3929190612dfa565b600060405180830381600087803b158015611a0d57600080fd5b505af1158015611a21573d6000803e3d6000fd5b505050505b7fe23f5229de535c091e3b7bec2665f5d698192d3b31393066e8987b7a05076b6c85858585604051611a5b9493929190612726565b60405180910390a15050505050565b600080600a905060008160ff1660046000815480929190611a8a90612e59565b9190505543611a999190612ea1565b4085604051602001611aac929190612ef6565b6040516020818303038152906040528051906020012060001c611acf9190612f51565b905060fa6004541115611ae55760006004819055505b8092505050919050565b826003601f01602090048101928215611b785791602002820160005b83821115611b4957835183826101000a81548160ff021916908360ff1602179055509260200192600101602081600001049283019260010302611b0b565b8015611b765782816101000a81549060ff0219169055600101602081600001049283019260010302611b49565b505b509050611b859190611c31565b5090565b6040518060600160405280600390602082028036833780820191505090505090565b828054611bb790612b64565b90600052602060002090601f016020900481019282611bd95760008555611c20565b82601f10611bf257805160ff1916838001178555611c20565b82800160010185558215611c20579182015b82811115611c1f578251825591602001919060010190611c04565b5b509050611c2d9190611c31565b5090565b5b80821115611c4a576000816000905550600101611c32565b5090565b6000604051905090565b600080fd5b600080fd5b600073ffffffffffffffffffffffffffffffffffffffff82169050919050565b6000611c8d82611c62565b9050919050565b611c9d81611c82565b8114611ca857600080fd5b50565b600081359050611cba81611c94565b92915050565b600060208284031215611cd657611cd5611c58565b5b6000611ce484828501611cab565b91505092915050565b6000819050919050565b611d0081611ced565b82525050565b6000602082019050611d1b6000830184611cf7565b92915050565b600080fd5b600080fd5b6000601f19601f8301169050919050565b7f4e487b7100000000000000000000000000000000000000000000000000000000600052604160045260246000fd5b611d7482611d2b565b810181811067ffffffffffffffff82111715611d9357611d92611d3c565b5b80604052505050565b6000611da6611c4e565b9050611db28282611d6b565b919050565b600067ffffffffffffffff821115611dd257611dd1611d3c565b5b611ddb82611d2b565b9050602081019050919050565b82818337600083830152505050565b6000611e0a611e0584611db7565b611d9c565b905082815260208101848484011115611e2657611e25611d26565b5b611e31848285611de8565b509392505050565b600082601f830112611e4e57611e4d611d21565b5b8135611e5e848260208601611df7565b91505092915050565b611e7081611ced565b8114611e7b57600080fd5b50565b600081359050611e8d81611e67565b92915050565b600080600080600060a08688031215611eaf57611eae611c58565b5b600086013567ffffffffffffffff811115611ecd57611ecc611c5d565b5b611ed988828901611e39565b955050602086013567ffffffffffffffff811115611efa57611ef9611c5d565b5b611f0688828901611e39565b9450506040611f1788828901611cab565b9350506060611f2888828901611e7e565b9250506080611f3988828901611cab565b9150509295509295909350565b600080600060608486031215611f5f57611f5e611c58565b5b6000611f6d86828701611cab565b9350506020611f7e86828701611e7e565b925050604084013567ffffffffffffffff811115611f9f57611f9e611c5d565b5b611fab86828701611e39565b9150509250925092565b60008115159050919050565b611fca81611fb5565b82525050565b6000602082019050611fe56000830184611fc1565b92915050565b600060039050919050565b600081905092915050565b6000819050919050565b600060ff82169050919050565b6120218161200b565b82525050565b60006120338383612018565b60208301905092915050565b6000602082019050919050565b61205581611feb565b61205f8184611ff6565b925061206a82612001565b8060005b8381101561209b5781516120828782612027565b965061208d8361203f565b92505060018101905061206e565b505050505050565b60006060820190506120b8600083018461204c565b92915050565b6000806000606084860312156120d7576120d6611c58565b5b60006120e586828701611cab565b935050602084013567ffffffffffffffff81111561210657612105611c5d565b5b61211286828701611e39565b925050604061212386828701611e7e565b9150509250925092565b6121368161200b565b82525050565b6000602082019050612151600083018461212d565b92915050565b6121608161200b565b811461216b57600080fd5b50565b60008135905061217d81612157565b92915050565b600080600080600060a0868803121561219f5761219e611c58565b5b60006121ad8882890161216e565b95505060206121be88828901611cab565b945050604086013567ffffffffffffffff8111156121df576121de611c5d565b5b6121eb88828901611e39565b93505060606121fc88828901611e7e565b925050608061220d8882890161216e565b9150509295509295909350565b6000806040838503121561223157612230611c58565b5b600061223f85828601611cab565b925050602083013567ffffffffffffffff8111156122605761225f611c5d565b5b61226c85828601611e39565b9150509250929050565b6000806040838503121561228d5761228c611c58565b5b600061229b85828601611e7e565b925050602083013567ffffffffffffffff8111156122bc576122bb611c5d565b5b6122c885828601611e39565b9150509250929050565b6122db81611fb5565b81146122e657600080fd5b50565b6000815190506122f8816122d2565b92915050565b60006020828403121561231457612313611c58565b5b6000612322848285016122e9565b91505092915050565b600082825260208201905092915050565b7f436f6e74726163742069732063757272656e746c79206e6f74206f706572617460008201527f696f6e616c000000000000000000000000000000000000000000000000000000602082015250565b600061239860258361232b565b91506123a38261233c565b604082019050919050565b600060208201905081810360008301526123c78161238b565b9050919050565b6123d781611c82565b82525050565b60006020820190506123f260008301846123ce565b92915050565b60008151905061240781611e67565b92915050565b60006020828403121561242357612422611c58565b5b6000612431848285016123f8565b91505092915050565b7f464c49474854204e4f5420464f554e443a20596f752063616e206f6e6c79206260008201527f757920696e737572616e636520666f72207265676973746572656420666c696760208201527f6874730000000000000000000000000000000000000000000000000000000000604082015250565b60006124bc60438361232b565b91506124c78261243a565b606082019050919050565b600060208201905081810360008301526124eb816124af565b9050919050565b600081519050919050565b60005b8381101561251b578082015181840152602081019050612500565b8381111561252a576000848401525b50505050565b600061253b826124f2565b612545818561232b565b93506125558185602086016124fd565b61255e81611d2b565b840191505092915050565b600060808201905081810360008301526125838187612530565b905081810360208301526125978186612530565b90506125a660408301856123ce565b6125b36060830184611cf7565b95945050505050565b7f526567697374726174696f6e2066656520697320726571756972656400000000600082015250565b60006125f2601c8361232b565b91506125fd826125bc565b602082019050919050565b60006020820190508181036000830152612621816125e5565b9050919050565b7f4e6f74207265676973746572656420617320616e206f7261636c650000000000600082015250565b600061265e601b8361232b565b915061266982612628565b602082019050919050565b6000602082019050818103600083015261268d81612651565b9050919050565b7f57524f4e472043414c4c45523a204f6e6c7920454f412063616e2063616c6c2060008201527f746869732066756e6374696f6e00000000000000000000000000000000000000602082015250565b60006126f0602d8361232b565b91506126fb82612694565b604082019050919050565b6000602082019050818103600083015261271f816126e3565b9050919050565b600060808201905061273b60008301876123ce565b818103602083015261274d8186612530565b905061275c6040830185611cf7565b612769606083018461212d565b95945050505050565b7f4e487b7100000000000000000000000000000000000000000000000000000000600052603260045260246000fd5b7f496e64657820646f6573206e6f74206d61746368206f7261636c65207265717560008201527f6573740000000000000000000000000000000000000000000000000000000000602082015250565b60006127fd60238361232b565b9150612808826127a1565b604082019050919050565b6000602082019050818103600083015261282c816127f0565b9050919050565b60008160f81b9050919050565b600061284b82612833565b9050919050565b61286361285e8261200b565b612840565b82525050565b60008160601b9050919050565b600061288182612869565b9050919050565b600061289382612876565b9050919050565b6128ab6128a682611c82565b612888565b82525050565b600081905092915050565b60006128c7826124f2565b6128d181856128b1565b93506128e18185602086016124fd565b80840191505092915050565b6000819050919050565b61290861290382611ced565b6128ed565b82525050565b600061291a8287612852565b60018201915061292a828661289a565b60148201915061293a82856128bc565b915061294682846128f7565b60208201915081905095945050505050565b7f466c69676874206f722074696d657374616d7020646f206e6f74206d6174636860008201527f206f7261636c6520726571756573740000000000000000000000000000000000602082015250565b60006129b4602f8361232b565b91506129bf82612958565b604082019050919050565b600060208201905081810360008301526129e3816129a7565b9050919050565b7f20494e414354495645204149524c494e453a20436f6e6669726d20746861742060008201527f796f75206861766520626f7468206265656e207265676973746572656420616e60208201527f64206861766520706169642074686520736565642066756e64206265666f726560408201527f20617474656d7074696e67207265676973746572696e672061206e657720616960608201527f726c696e652e0000000000000000000000000000000000000000000000000000608082015250565b6000612ab860868361232b565b9150612ac3826129ea565b60a082019050919050565b60006020820190508181036000830152612ae781612aab565b9050919050565b6000604082019050612b0360008301856123ce565b8181036020830152612b158184612530565b90509392505050565b6000612b2a82846128bc565b915081905092915050565b7f4e487b7100000000000000000000000000000000000000000000000000000000600052602260045260246000fd5b60006002820490506001821680612b7c57607f821691505b602082108103612b8f57612b8e612b35565b5b50919050565b60008190508160005260206000209050919050565b60008154612bb781612b64565b612bc181866128b1565b94506001821660008114612bdc5760018114612bed57612c20565b60ff19831686528186019350612c20565b612bf685612b95565b60005b83811015612c1857815481890152600182019150602081019050612bf9565b838801955050505b50505092915050565b6000612c358284612baa565b915081905092915050565b7f444f55424c4520524547495354524154494f4e20415454454d50543a2054686560008201527f20676976656e20666c696768742068617320616c7265616479206265656e207260208201527f6567697374657265640000000000000000000000000000000000000000000000604082015250565b6000612cc260498361232b565b9150612ccd82612c40565b606082019050919050565b60006020820190508181036000830152612cf181612cb5565b9050919050565b6000819050919050565b612d0b81612cf8565b82525050565b6000604082019050612d266000830185612d02565b612d3360208301846123ce565b9392505050565b6000608082019050612d4f600083018761212d565b612d5c60208301866123ce565b8181036040830152612d6e8185612530565b9050612d7d6060830184611cf7565b95945050505050565b6000612d92828661289a565b601482019150612da282856128bc565b9150612dae82846128f7565b602082019150819050949350505050565b6000819050919050565b6000612de4612ddf612dda8461200b565b612dbf565b611ced565b9050919050565b612df481612dc9565b82525050565b60006040820190508181036000830152612e148185612530565b9050612e236020830184612deb565b9392505050565b7f4e487b7100000000000000000000000000000000000000000000000000000000600052601160045260246000fd5b6000612e6482611ced565b91507fffffffffffffffffffffffffffffffffffffffffffffffffffffffffffffffff8203612e9657612e95612e2a565b5b600182019050919050565b6000612eac82611ced565b9150612eb783611ced565b925082821015612eca57612ec9612e2a565b5b828203905092915050565b6000819050919050565b612ef0612eeb82612cf8565b612ed5565b82525050565b6000612f028285612edf565b602082019150612f12828461289a565b6014820191508190509392505050565b7f4e487b7100000000000000000000000000000000000000000000000000000000600052601260045260246000fd5b6000612f5c82611ced565b9150612f6783611ced565b925082612f7757612f76612f22565b5b82820690509291505056fea264697066735822122042d238732f5e60cd7517cccde7932ddb0302b477c4caec0d84a86215dc4783a464736f6c634300080e0033",
  "immutableReferences": {},
  "source": "// SPDX-License-Identifier: MIT\npragma solidity ^0.8.13;\n\n// It's important to avoid vulnerabilities due to numeric overflow bugs\n// OpenZeppelin's SafeMath library, when used correctly, protects agains such bugs\n// More info: https://www.nccgroup.trust/us/about-us/newsroom-and-events/blog/2018/november/smart-contract-insecurity-bad-arithmetic/\n\nimport \"@openzeppelin/contracts/utils/math/SafeMath.sol\";\n\n/************************************************** */\n/* FlightSurety Smart Contract                      */\n/************************************************** */\ncontract FlightSuretyApp {\n    using SafeMath for uint256; // Allow SafeMath functions to be called for all uint256 types (similar to \"prototype\" in Javascript)\n\n\n    IFlightSuretyData flightSuretyData;\n\n    /********************************************************************************************/\n    /*                                       DATA VARIABLES                                     */\n    /********************************************************************************************/\n\n    // Flight status codees\n    uint8 private constant STATUS_CODE_UNKNOWN = 0;\n    uint8 private constant STATUS_CODE_ON_TIME = 10;\n    uint8 private constant STATUS_CODE_LATE_AIRLINE = 20;\n    uint8 private constant STATUS_CODE_LATE_WEATHER = 30;\n    uint8 private constant STATUS_CODE_LATE_TECHNICAL = 40;\n    uint8 private constant STATUS_CODE_LATE_OTHER = 50;\n\n\n    // Credit value\n    uint8 private constant PASSENGER_CREDIT_VALUE = 150;\n\n    address private contractOwner;          // Account used to deploy contract\n    address private firstAirline;\n\n    struct Flight {\n        bool isRegistered;\n        uint8 statusCode;\n        uint256 updatedTimestamp;        \n        address airline;\n        string flight;\n    }\n    mapping(bytes32 => Flight) private s_flights;\n\n\n\n    /********************************************************************************************/\n    /*                                       EVENT DEFINITIONS                                  */\n    /********************************************************************************************/\n \n    event FlightRegistered(bytes32 flightKey, address airline);\n\n    /********************************************************************************************/\n    /*                                       FUNCTION MODIFIERS                                 */\n    /********************************************************************************************/\n\n    // Modifiers help avoid duplication of code. They are typically used to validate something\n    // before a function is allowed to be executed.\n\n    /**\n    * @dev Modifier that requires the \"operational\" boolean variable to be \"true\"\n    *      This is used on all state changing functions to pause the contract in \n    *      the event there is an issue that needs to be fixed\n    */\n    modifier requireIsOperational() \n    {\n         // Modify to call data contract's status\n        require(flightSuretyData.isOperational(), \"Contract is currently not operational\");  \n        _;  // All modifiers require an \"_\" which indicates where the function body will be added\n    }\n\n    /**\n    * @dev Modifier that requires the caller of registerAirline to be a registeredAirline.\n    */\n    \n\n    /**\n    * @dev Modifier that requires the \"ContractOwner\" account to be the function caller\n    */\n    modifier requireContractOwner()\n    {\n        require(msg.sender == contractOwner, \"Caller is not contract owner\");\n        _;\n    }\n\n    modifier requireAirlineIsActive() \n    {\n        require(flightSuretyData.isAirlineActive(msg.sender), \" INACTIVE AIRLINE: Confirm that you have both been registered and have paid the seed fund before attempting registering a new airline.\");  \n        _;  \n    }\n\n    // Modifier to check if number of registered users have reached 4\n\n    /********************************************************************************************/\n    /*                                       CONSTRUCTOR                                        */\n    /********************************************************************************************/\n\n    /**\n    * @dev Contract constructor\n    *\n    */\n    constructor ( address dataContract){\n\n        contractOwner = msg.sender;\n\n        flightSuretyData = IFlightSuretyData(dataContract);\n\n    }\n\n    /********************************************************************************************/\n    /*                                       UTILITY FUNCTIONS                                  */\n    /********************************************************************************************/\n\n    function isOperational() \n                            public \n                            pure \n                            returns(bool) \n    {\n        return true;  // Modify to call data contract's status\n    }\n\n    function isFlightRegistered(address airline, uint timestamp, string memory flight) public view returns (bool){\n       \n       bytes32 flightKey = getFlightKey(airline, flight, timestamp);\n        return s_flights[flightKey].isRegistered;\n\n    }\n\n    function isAirlineFunded(address airline) public view returns(bool){\n        return flightSuretyData.isAirlineFunded(airline);\n    }\n\n\n    /********************************************************************************************/\n    /*                                     SMART CONTRACT FUNCTIONS                             */\n    /********************************************************************************************/\n\n  \n   /**\n    * @dev Add an airline to the registration queue\n    *\n    */   \n    function registerAirline ( address newAirline, string memory _name ) public requireIsOperational requireAirlineIsActive {\n        flightSuretyData.registerAirline(newAirline, _name);\n    }\n\n\n\n\n   /**\n    * @dev Register a future flight for insuring.\n    *\n    */  \n    function registerFlight (uint _timestamp, string memory _flight ) public requireIsOperational requireAirlineIsActive{\n        \n\n        bytes32 flightKey = getFlightKey(msg.sender, _flight, _timestamp);\n\n        bool isRegisteredTwice = keccak256(abi.encodePacked((s_flights[flightKey].flight))) == keccak256(abi.encodePacked((_flight)));\n        require(!isRegisteredTwice,'DOUBLE REGISTRATION ATTEMPT: The given flight has already been registered');\n\n        // TODO: WRITE TO FLIGHTS STORAGE ONLY ONCE\n\n        s_flights[flightKey].flight = _flight;\n        s_flights[flightKey].airline = msg.sender;\n        s_flights[flightKey].statusCode = STATUS_CODE_UNKNOWN;\n        s_flights[flightKey].updatedTimestamp = _timestamp;\n        s_flights[flightKey].isRegistered = true;\n\n        emit FlightRegistered(flightKey, msg.sender);\n\n    }\n\n    function fundAirline() public payable{\n        flightSuretyData.fund{value: msg.value}(msg.sender);\n    }\n\n    function buyFlightInsurance ( \n        string memory _flight, \n        string memory passengerName,\n        address passengerAddress,\n        uint256 _timestamp, \n        address airline \n        ) public payable requireIsOperational{\n\n        // confirm that flight is registered.\n        require(isFlightRegistered(airline, _timestamp, _flight),'FLIGHT NOT FOUND: You can only buy insurance for registered flights');\n\n        flightSuretyData.buyInsurance(_flight, passengerName, passengerAddress, msg.value);\n    }\n    \n   /**\n    * @dev Called after oracle has updated flight status\n    *\n    */  \n    function processFlightStatus ( \n        address airline, \n        string memory flight, \n        uint256 timestamp, \n        uint8 statusCode ) internal {\n\n            //generate flightKey\n            bytes32 flightKey = getFlightKey(airline, flight, timestamp);\n\n            // update flight status code\n            s_flights[flightKey].statusCode = statusCode;\n\n            // When flight is delayed, credit passengers with insurance \n          if (statusCode != STATUS_CODE_ON_TIME) {\n            flightSuretyData.creditInsuree(flight, PASSENGER_CREDIT_VALUE);\n          }\n\n            emit FlightStatusInfo(airline, flight, timestamp, statusCode);\n\n    }\n    \n\n    // Get the current flight status\n    function getFlightStatus (\n                                address airline,\n                                string memory flight,                        \n                                uint256 timestamp     \n                            )\n                            public\n                            view\n                            returns(uint8)\n    {\n        bytes32 flightKey = getFlightKey(airline, flight, timestamp);\n        return s_flights[flightKey].statusCode;\n    }\n\n    function withdrawCredit(address passengerAddress) public requireIsOperational{\n         // verify it's be en called from an externally owned account - msg.sender == tx.origin\n        require(msg.sender == tx.origin,'WRONG CALLER: Only EOA can call this function');\n\n        // transfer funds to passenger account.\n        uint256 creditToPay = flightSuretyData.pay(passengerAddress);\n\n        payable(passengerAddress).transfer(creditToPay);\n \n    }\n\n    function getPassengerCredit(address passengerAddress) public view requireIsOperational returns(uint){\n        return flightSuretyData.getPassengerCredit(passengerAddress);\n    }\n\n   \n\n// region ORACLE MANAGEMENT\n\n    // Incremented to add pseudo-randomness at various points\n    uint256 private nonce = 0;    \n\n    // Fee to be paid when registering oracle\n    uint256 public constant REGISTRATION_FEE = 1 ether;\n\n    // Number of oracles that must respond for valid status\n    uint256 private constant MIN_RESPONSES = 3;\n\n\n    struct Oracle {\n        bool isRegistered;\n        uint8[3] indexes;        \n    }\n\n    // Track all registered oracles\n    mapping(address => Oracle) private oracles;\n\n    // Model for responses from oracles\n    struct ResponseInfo {\n        address requester;                              // Account that requested status\n        bool isOpen;                                    // If open, oracle responses are accepted\n        mapping(uint8 => address[]) responses;          // Mapping key is the status code reported\n                                                        // This lets us group responses and identify                                                 // the response that majority of the oracles\n    }\n\n    // Track all oracle responses\n    // Key = hash(index, flight, timestamp)\n    mapping(bytes32 => ResponseInfo) private oracleResponses;\n\n\n\n    // Event fired each time an oracle submits a response\n    event FlightStatusInfo(address airline, string flight, uint256 timestamp, uint8 status);\n\n    event OracleReport(address airline, string flight, uint256 timestamp, uint8 status);\n\n    // Event fired when flight status request is submitted\n    // Oracles track this and if they have a matching index\n    // they fetch data and submit a response\n    event OracleRequest(uint8 index, address airline, string flight, uint256 timestamp);\n\n\n\n\n    // Register an oracle with the contract\n    function registerOracle ( ) external payable{\n        // Require registration fee\n        require(msg.value >= REGISTRATION_FEE, \"Registration fee is required\");\n\n        // uint8[3] memory indexes = [5,6,8];\n        uint8[3] memory indexes = generateIndexes(msg.sender);\n\n        oracles[msg.sender] = Oracle({\n                                        isRegistered: true,\n                                        indexes: indexes\n                                    });\n    }\n\n     // Generate a request for oracles to fetch flight information\n    function fetchFlightStatus (\n                            address airline,\n                            string memory flight,\n                            uint256 timestamp                            \n                        )\n                        external\n    {\n        uint8 index = getRandomIndex(msg.sender);\n    \n\n        // Generate a unique key for storing the request\n        bytes32 key = keccak256(abi.encodePacked(index, airline, flight, timestamp));\n\n        ResponseInfo storage s_response = oracleResponses[key];\n\n        s_response.requester = msg.sender;\n        s_response.isOpen = true;\n\n        emit OracleRequest(index, airline, flight, timestamp);\n    } \n\n\n    function getMyIndexes ( ) view external returns(uint8[3] memory)\n    {\n        require(oracles[msg.sender].isRegistered, \"Not registered as an oracle\");\n\n        return oracles[msg.sender].indexes;\n    }\n\n\n\n\n    // Called by oracle when a response is available to an outstanding request\n    // For the response to be accepted, there must be a pending request that is open\n    // and matches one of the three Indexes randomly assigned to the oracle at the\n    // time of registration (i.e. uninvited oracles are not welcome)\n    function submitOracleResponse\n                        (\n                            uint8 index,\n                            address airline,\n                            string memory flight,\n                            uint256 timestamp,\n                            uint8 statusCode\n                        )\n                        external\n    {\n        emit OracleReport(airline, flight, timestamp, statusCode);\n        require((oracles[msg.sender].indexes[0] == index) || (oracles[msg.sender].indexes[1] == index) || (oracles[msg.sender].indexes[2] == index), \"Index does not match oracle request\");\n\n\n        bytes32 key = keccak256(abi.encodePacked(index, airline, flight, timestamp)); \n        require(oracleResponses[key].isOpen, \"Flight or timestamp do not match oracle request\");\n\n        oracleResponses[key].responses[statusCode].push(msg.sender);\n\n        // Information isn't considered verified until at least MIN_RESPONSES\n        // oracles respond with the *** same *** information\n        emit OracleReport(airline, flight, timestamp, statusCode);\n        if (oracleResponses[key].responses[statusCode].length >= MIN_RESPONSES) {\n\n            emit FlightStatusInfo(airline, flight, timestamp, statusCode);\n\n            // TODO: CLOSE response acceptance for request\n\n            // Handle flight status as appropriate\n            processFlightStatus(airline, flight, timestamp, statusCode);\n        }\n    }\n\n\n    function getFlightKey (\n         address airline, \n        string memory flight, \n        uint256 timestamp\n        ) pure internal returns(bytes32) {\n             return keccak256(abi.encodePacked(airline, flight, timestamp));\n    }\n\n    // Returns array of three non-duplicating integers from 0-9\n    function generateIndexes (address account) internal returns(uint8[3] memory)\n    {\n        uint8[3] memory indexes;\n        indexes[0] = getRandomIndex(account);\n        \n        indexes[1] = indexes[0];\n        while(indexes[1] == indexes[0]) {\n            indexes[1] = getRandomIndex(account);\n        }\n\n        indexes[2] = indexes[1];\n        while((indexes[2] == indexes[0]) || (indexes[2] == indexes[1])) {\n            indexes[2] = getRandomIndex(account);\n        }\n\n        return indexes;\n    }\n\n    // Returns array of three non-duplicating integers from 0-9\n    function getRandomIndex\n                            (\n                                address account\n                            )\n                            internal\n                            returns (uint8)\n    {\n        uint8 maxValue = 10;\n\n        // Pseudo random number...the incrementing nonce adds variation\n        uint8 random = uint8(uint256(keccak256(abi.encodePacked(blockhash(block.number - nonce++), account))) % maxValue);\n        // uint8 random = uint8(uint256(keccak256(abi.encodePacked(blockhash(block.number.sub(nonce.add(1))), account))).mod(maxValue));\n\n        if (nonce > 250) {\n            nonce = 0;  // Can only fetch blockhashes for last 256 blocks so we adapt\n        }\n\n        return random;\n    }\n\n// endregion\n\n}   \n\ninterface IFlightSuretyData{\n    function registerAirline(address airline, string memory name) external;\n    function isOperational() external view returns (bool);\n    function isAirline(address airline) external view returns (bool);\n    function isAirlineActive(address airline) external view returns (bool);\n    function buyInsurance(string memory flight, string memory passengerName, address passengerAddress, uint256 insuranceAmount) external payable;\n    function creditInsuree(string memory flight, uint256 creditAmount) external;\n    function getPassengerCredit(address passengerAddress) external view returns(uint256);\n    // function clearPassengerCredit(address passengerAddress) external;\n    function pay(address passengerAddress) external returns(uint256);\n    function isAirlineFunded(address airline) external view returns(bool);\n    function fund(address sender) external payable;\n}\n",
  "sourcePath": "/Users/apple/Documents/personal/tutorials/ethereum/flightSuretyDApp/contracts/flightSuretyApp.sol",
  "compiler": {
    "name": "solc",
    "version": "0.8.14+commit.80d49f37.Emscripten.clang"
  },
  "schemaVersion": "3.4.7",
  "updatedAt": "2022-05-30T13:19:46.659Z",
  "networkType": "ethereum",
  "devdoc": {
    "kind": "dev",
    "methods": {
      "constructor": {
        "details": "Contract constructor"
      },
      "registerAirline(address,string)": {
        "details": "Add an airline to the registration queue"
      },
      "registerFlight(uint256,string)": {
        "details": "Register a future flight for insuring."
      }
    },
    "version": 1
  },
  "userdoc": {
    "kind": "user",
    "methods": {},
    "version": 1
  }
}